{
  "_format": "hh-sol-artifact-1",
  "contractName": "TestDate",
  "sourceName": "contracts/test/TestDate.sol",
  "abi": [
    {
      "inputs": [
        {
          "internalType": "string",
          "name": "prefix",
          "type": "string"
        },
        {
          "internalType": "uint256",
          "name": "timestamp",
          "type": "uint256"
        }
      ],
      "name": "encodePrefixTimestamp",
      "outputs": [
        {
          "internalType": "string",
          "name": "",
          "type": "string"
        }
      ],
      "stateMutability": "nonpayable",
      "type": "function"
    },
    {
      "inputs": [
        {
          "internalType": "uint256",
          "name": "timestamp",
          "type": "uint256"
        }
      ],
      "name": "encodeTimestamp",
      "outputs": [
        {
          "internalType": "string",
          "name": "",
          "type": "string"
        }
      ],
      "stateMutability": "nonpayable",
      "type": "function"
    },
    {
      "inputs": [],
      "name": "testString",
      "outputs": [
        {
          "internalType": "string",
          "name": "",
          "type": "string"
        }
      ],
      "stateMutability": "view",
      "type": "function"
    }
  ],
  "bytecode": "0x60c060405260066080819052652a32b9ba32b960d11b60a09081526200002991600091906200003e565b503480156200003757600080fd5b5062000121565b8280546200004c90620000e4565b90600052602060002090601f016020900481019282620000705760008555620000bb565b82601f106200008b57805160ff1916838001178555620000bb565b82800160010185558215620000bb579182015b82811115620000bb5782518255916020019190600101906200009e565b50620000c9929150620000cd565b5090565b5b80821115620000c95760008155600101620000ce565b600281046001821680620000f957607f821691505b602082108114156200011b57634e487b7160e01b600052602260045260246000fd5b50919050565b61143980620001316000396000f3fe608060405234801561001057600080fd5b50600436106100415760003560e01c806302542a8f146100465780636aec4af61461006f578063fb8f0f5914610082575b600080fd5b610059610054366004610f90565b61008a565b604051610066919061101b565b60405180910390f35b61005961007d366004611003565b610161565b610059610200565b60606100cd84848080601f0160208091040260200160405190810160405280939291908181526020018383808284376000920182905250879350915061028e9050565b600080546100da90611304565b80601f016020809104026020016040519081016040528092919081815260200182805461010690611304565b80156101535780601f1061012857610100808354040283529160200191610153565b820191906000526020600020905b81548152906001019060200180831161013657829003601f168201915b505050505090509392505050565b606061016e826000610422565b6000805461017b90611304565b80601f01602080910402602001604051908101604052809291908181526020018280546101a790611304565b80156101f45780601f106101c9576101008083540402835291602001916101f4565b820191906000526020600020905b8154815290600101906020018083116101d757829003601f168201915b50505050509050919050565b6000805461020d90611304565b80601f016020809104026020016040519081016040528092919081815260200182805461023990611304565b80156102865780601f1061025b57610100808354040283529160200191610286565b820191906000526020600020905b81548152906001019060200180831161026957829003601f168201915b505050505081565b828160005b825181101561037157818382815181106102d6577f4e487b7100000000000000000000000000000000000000000000000000000000600052603260045260246000fd5b602001015160f81c60f81b90808054806102ef90611304565b80601f81146102fd57610313565b83600052602060002060ff1984168155603f9350505b5060029190910190915581546001161561033c5790600052602060002090602091828204019190065b909190919091601f036101000a81548160ff02191690600160f81b84040217905550808061036990611358565b915050610293565b50807f2d0000000000000000000000000000000000000000000000000000000000000090808054806103a290611304565b80601f81146103b0576103c6565b83600052602060002060ff1984168155603f9350505b506002919091019091558154600116156103ef5790600052602060002090602091828204019190065b909190919091601f036101000a81548160ff02191690600160f81b8404021790555061041b8484610c8b565b5050505050565b806000808061043c61043762015180886111c4565b610c99565b919450925090506000610450600a836111c4565b90508461045e826030611137565b60f81b908080548061046f90611304565b80601f811461047d57610493565b83600052602060002060ff1984168155603f9350505b506002919091019091558154600116156104bc5790600052602060002090602091828204019190065b909190919091601f036101000a81548160ff02191690600160f81b840402179055506000600a836104ed9190611391565b9050856104fb826030611137565b60f81b908080548061050c90611304565b80601f811461051a57610530565b83600052602060002060ff1984168155603f9350505b506002919091019091558154600116156105595790600052602060002090602091828204019190065b909190919091601f036101000a81548160ff02191690600160f81b84040217905550505081600114156105f7576105f2847f4a000000000000000000000000000000000000000000000000000000000000007f41000000000000000000000000000000000000000000000000000000000000007f4e00000000000000000000000000000000000000000000000000000000000000610e0d565b610b39565b816002141561066c576105f2847f46000000000000000000000000000000000000000000000000000000000000007f45000000000000000000000000000000000000000000000000000000000000007f4200000000000000000000000000000000000000000000000000000000000000610e0d565b81600314156106e1576105f2847f4d000000000000000000000000000000000000000000000000000000000000007f41000000000000000000000000000000000000000000000000000000000000007f5200000000000000000000000000000000000000000000000000000000000000610e0d565b8160041415610756576105f2847f41000000000000000000000000000000000000000000000000000000000000007f50000000000000000000000000000000000000000000000000000000000000007f5200000000000000000000000000000000000000000000000000000000000000610e0d565b81600514156107cb576105f2847f4d000000000000000000000000000000000000000000000000000000000000007f41000000000000000000000000000000000000000000000000000000000000007f5900000000000000000000000000000000000000000000000000000000000000610e0d565b8160061415610840576105f2847f4a000000000000000000000000000000000000000000000000000000000000007f55000000000000000000000000000000000000000000000000000000000000007f4e00000000000000000000000000000000000000000000000000000000000000610e0d565b81600714156108b5576105f2847f4a000000000000000000000000000000000000000000000000000000000000007f55000000000000000000000000000000000000000000000000000000000000007f4c00000000000000000000000000000000000000000000000000000000000000610e0d565b816008141561092a576105f2847f41000000000000000000000000000000000000000000000000000000000000007f55000000000000000000000000000000000000000000000000000000000000007f4700000000000000000000000000000000000000000000000000000000000000610e0d565b816009141561099f576105f2847f53000000000000000000000000000000000000000000000000000000000000007f45000000000000000000000000000000000000000000000000000000000000007f5000000000000000000000000000000000000000000000000000000000000000610e0d565b81600a1415610a14576105f2847f4f000000000000000000000000000000000000000000000000000000000000007f43000000000000000000000000000000000000000000000000000000000000007f5400000000000000000000000000000000000000000000000000000000000000610e0d565b81600b1415610a89576105f2847f4e000000000000000000000000000000000000000000000000000000000000007f4f000000000000000000000000000000000000000000000000000000000000007f5600000000000000000000000000000000000000000000000000000000000000610e0d565b81600c1415610afe576105f2847f44000000000000000000000000000000000000000000000000000000000000007f45000000000000000000000000000000000000000000000000000000000000007f4300000000000000000000000000000000000000000000000000000000000000610e0d565b6040517f08c379a0000000000000000000000000000000000000000000000000000000008152600401610b309061108c565b60405180910390fd5b6000610b46606485611391565b90506000610b55600a836111c4565b905085610b63826030611137565b60f81b9080805480610b7490611304565b80601f8114610b8257610b98565b83600052602060002060ff1984168155603f9350505b50600291909101909155815460011615610bc15790600052602060002090602091828204019190065b909190919091601f036101000a81548160ff02191690600160f81b840402179055506000600a83610bf29190611391565b905086610c00826030611137565b60f81b9080805480610c1190611304565b80601f8114610c1f57610c35565b83600052602060002060ff1984168155603f9350505b50600291909101909155815460011615610c5e5790600052602060002090602091828204019190065b909190919091601f036101000a81548160ff02191690600160f81b84040217905550505050505050505050565b610c958282610422565b5050565b60008080838162253d8c610cb08362010bd96110c3565b610cba91906110c3565b9050600062023ab1610ccd8360046111d8565b610cd7919061115c565b90506004610ce88262023ab16111d8565b610cf39060036110c3565b610cfd919061115c565b610d079083611290565b9150600062164b09610d1a8460016110c3565b610d2690610fa06111d8565b610d30919061115c565b90506004610d40826105b56111d8565b610d4a919061115c565b610d549084611290565b610d5f90601f6110c3565b9250600061098f610d718560506111d8565b610d7b919061115c565b905060006050610d8d8361098f6111d8565b610d97919061115c565b610da19086611290565b9050610dae600b8361115c565b9450610dbb85600c6111d8565b610dc68360026110c3565b610dd09190611290565b91508483610ddf603187611290565b610dea9060646111d8565b610df491906110c3565b610dfe91906110c3565b9a919950975095505050505050565b83839080805480610e1d90611304565b80601f8114610e2b57610e41565b83600052602060002060ff1984168155603f9350505b50600291909101909155815460011615610e6a5790600052602060002090602091828204019190065b909190919091601f036101000a81548160ff02191690600160f81b8404021790555083829080805480610e9c90611304565b80601f8114610eaa57610ec0565b83600052602060002060ff1984168155603f9350505b50600291909101909155815460011615610ee95790600052602060002090602091828204019190065b909190919091601f036101000a81548160ff02191690600160f81b8404021790555083819080805480610f1b90611304565b80601f8114610f2957610f3f565b83600052602060002060ff1984168155603f9350505b50600291909101909155815460011615610f685790600052602060002090602091828204019190065b909190919091601f036101000a81548160ff02191690600160f81b8404021790555050505050565b600080600060408486031215610fa4578283fd5b833567ffffffffffffffff80821115610fbb578485fd5b818601915086601f830112610fce578485fd5b813581811115610fdc578586fd5b876020828501011115610fed578586fd5b6020928301989097509590910135949350505050565b600060208284031215611014578081fd5b5035919050565b6000602080835283518082850152825b818110156110475785810183015185820160400152820161102b565b818111156110585783604083870101525b50601f017fffffffffffffffffffffffffffffffffffffffffffffffffffffffffffffffe016929092016040019392505050565b60208082526013908201527f64617465206465636f64696e67206572726f7200000000000000000000000000604082015260600190565b6000808212827f7fffffffffffffffffffffffffffffffffffffffffffffffffffffffffffffff038413811516156110fd576110fd6113a5565b827f8000000000000000000000000000000000000000000000000000000000000000038412811615611131576111316113a5565b50500190565b600060ff821660ff84168060ff03821115611154576111546113a5565b019392505050565b60008261116b5761116b6113d4565b7fffffffffffffffffffffffffffffffffffffffffffffffffffffffffffffffff83147f8000000000000000000000000000000000000000000000000000000000000000831416156111bf576111bf6113a5565b500590565b6000826111d3576111d36113d4565b500490565b60007f7fffffffffffffffffffffffffffffffffffffffffffffffffffffffffffffff81841382841385830485118282161615611217576112176113a5565b7f800000000000000000000000000000000000000000000000000000000000000084871286820588128184161615611251576112516113a5565b85871292508782058712848416161561126c5761126c6113a5565b87850587128184161615611282576112826113a5565b505050929093029392505050565b6000808312837f8000000000000000000000000000000000000000000000000000000000000000018312811516156112ca576112ca6113a5565b837f7fffffffffffffffffffffffffffffffffffffffffffffffffffffffffffffff0183138116156112fe576112fe6113a5565b50500390565b60028104600182168061131857607f821691505b60208210811415611352577f4e487b7100000000000000000000000000000000000000000000000000000000600052602260045260246000fd5b50919050565b60007fffffffffffffffffffffffffffffffffffffffffffffffffffffffffffffffff82141561138a5761138a6113a5565b5060010190565b6000826113a0576113a06113d4565b500690565b7f4e487b7100000000000000000000000000000000000000000000000000000000600052601160045260246000fd5b7f4e487b7100000000000000000000000000000000000000000000000000000000600052601260045260246000fdfea2646970667358221220552926828c0e1b3dd51f6ac2e11e8a86b78d65ef8077831cb1ba40e839bfadc264736f6c63430008000033",
  "linkReferences": {},
  "deployedLinkReferences": {}
}