{
  "_format": "hh-sol-artifact-1",
  "contractName": "TestYVaultV4",
  "sourceName": "contracts/test/TestYVaultV4.sol",
  "abi": [
    {
      "inputs": [
        {
          "internalType": "address",
          "name": "_token",
          "type": "address"
        },
        {
          "internalType": "uint8",
          "name": "_decimals",
          "type": "uint8"
        }
      ],
      "stateMutability": "nonpayable",
      "type": "constructor"
    },
    {
      "anonymous": false,
      "inputs": [
        {
          "indexed": true,
          "internalType": "address",
          "name": "owner",
          "type": "address"
        },
        {
          "indexed": true,
          "internalType": "address",
          "name": "spender",
          "type": "address"
        },
        {
          "indexed": false,
          "internalType": "uint256",
          "name": "value",
          "type": "uint256"
        }
      ],
      "name": "Approval",
      "type": "event"
    },
    {
      "anonymous": false,
      "inputs": [
        {
          "indexed": true,
          "internalType": "address",
          "name": "from",
          "type": "address"
        },
        {
          "indexed": true,
          "internalType": "address",
          "name": "to",
          "type": "address"
        },
        {
          "indexed": false,
          "internalType": "uint256",
          "name": "value",
          "type": "uint256"
        }
      ],
      "name": "Transfer",
      "type": "event"
    },
    {
      "inputs": [],
      "name": "DOMAIN_SEPARATOR",
      "outputs": [
        {
          "internalType": "bytes32",
          "name": "",
          "type": "bytes32"
        }
      ],
      "stateMutability": "view",
      "type": "function"
    },
    {
      "inputs": [],
      "name": "PERMIT_TYPEHASH",
      "outputs": [
        {
          "internalType": "bytes32",
          "name": "",
          "type": "bytes32"
        }
      ],
      "stateMutability": "view",
      "type": "function"
    },
    {
      "inputs": [
        {
          "internalType": "address",
          "name": "",
          "type": "address"
        },
        {
          "internalType": "address",
          "name": "",
          "type": "address"
        }
      ],
      "name": "allowance",
      "outputs": [
        {
          "internalType": "uint256",
          "name": "",
          "type": "uint256"
        }
      ],
      "stateMutability": "view",
      "type": "function"
    },
    {
      "inputs": [],
      "name": "apiVersion",
      "outputs": [
        {
          "internalType": "string",
          "name": "",
          "type": "string"
        }
      ],
      "stateMutability": "pure",
      "type": "function"
    },
    {
      "inputs": [
        {
          "internalType": "address",
          "name": "account",
          "type": "address"
        },
        {
          "internalType": "uint256",
          "name": "amount",
          "type": "uint256"
        }
      ],
      "name": "approve",
      "outputs": [
        {
          "internalType": "bool",
          "name": "",
          "type": "bool"
        }
      ],
      "stateMutability": "nonpayable",
      "type": "function"
    },
    {
      "inputs": [
        {
          "internalType": "address",
          "name": "",
          "type": "address"
        }
      ],
      "name": "balanceOf",
      "outputs": [
        {
          "internalType": "uint256",
          "name": "",
          "type": "uint256"
        }
      ],
      "stateMutability": "view",
      "type": "function"
    },
    {
      "inputs": [],
      "name": "decimals",
      "outputs": [
        {
          "internalType": "uint8",
          "name": "",
          "type": "uint8"
        }
      ],
      "stateMutability": "view",
      "type": "function"
    },
    {
      "inputs": [
        {
          "internalType": "uint256",
          "name": "_amount",
          "type": "uint256"
        },
        {
          "internalType": "address",
          "name": "destination",
          "type": "address"
        }
      ],
      "name": "deposit",
      "outputs": [
        {
          "internalType": "uint256",
          "name": "",
          "type": "uint256"
        }
      ],
      "stateMutability": "nonpayable",
      "type": "function"
    },
    {
      "inputs": [],
      "name": "governance",
      "outputs": [
        {
          "internalType": "address",
          "name": "",
          "type": "address"
        }
      ],
      "stateMutability": "pure",
      "type": "function"
    },
    {
      "inputs": [],
      "name": "name",
      "outputs": [
        {
          "internalType": "string",
          "name": "",
          "type": "string"
        }
      ],
      "stateMutability": "view",
      "type": "function"
    },
    {
      "inputs": [
        {
          "internalType": "address",
          "name": "",
          "type": "address"
        }
      ],
      "name": "nonces",
      "outputs": [
        {
          "internalType": "uint256",
          "name": "",
          "type": "uint256"
        }
      ],
      "stateMutability": "view",
      "type": "function"
    },
    {
      "inputs": [
        {
          "internalType": "address",
          "name": "owner",
          "type": "address"
        },
        {
          "internalType": "address",
          "name": "spender",
          "type": "address"
        },
        {
          "internalType": "uint256",
          "name": "value",
          "type": "uint256"
        },
        {
          "internalType": "uint256",
          "name": "deadline",
          "type": "uint256"
        },
        {
          "internalType": "uint8",
          "name": "v",
          "type": "uint8"
        },
        {
          "internalType": "bytes32",
          "name": "r",
          "type": "bytes32"
        },
        {
          "internalType": "bytes32",
          "name": "s",
          "type": "bytes32"
        }
      ],
      "name": "permit",
      "outputs": [],
      "stateMutability": "nonpayable",
      "type": "function"
    },
    {
      "inputs": [],
      "name": "pricePerShare",
      "outputs": [
        {
          "internalType": "uint256",
          "name": "",
          "type": "uint256"
        }
      ],
      "stateMutability": "view",
      "type": "function"
    },
    {
      "inputs": [
        {
          "internalType": "uint256",
          "name": "",
          "type": "uint256"
        }
      ],
      "name": "setDepositLimit",
      "outputs": [],
      "stateMutability": "pure",
      "type": "function"
    },
    {
      "inputs": [],
      "name": "symbol",
      "outputs": [
        {
          "internalType": "string",
          "name": "",
          "type": "string"
        }
      ],
      "stateMutability": "view",
      "type": "function"
    },
    {
      "inputs": [],
      "name": "token",
      "outputs": [
        {
          "internalType": "address",
          "name": "",
          "type": "address"
        }
      ],
      "stateMutability": "view",
      "type": "function"
    },
    {
      "inputs": [],
      "name": "totalAssets",
      "outputs": [
        {
          "internalType": "uint256",
          "name": "",
          "type": "uint256"
        }
      ],
      "stateMutability": "view",
      "type": "function"
    },
    {
      "inputs": [],
      "name": "totalSupply",
      "outputs": [
        {
          "internalType": "uint256",
          "name": "",
          "type": "uint256"
        }
      ],
      "stateMutability": "view",
      "type": "function"
    },
    {
      "inputs": [
        {
          "internalType": "address",
          "name": "recipient",
          "type": "address"
        },
        {
          "internalType": "uint256",
          "name": "amount",
          "type": "uint256"
        }
      ],
      "name": "transfer",
      "outputs": [
        {
          "internalType": "bool",
          "name": "",
          "type": "bool"
        }
      ],
      "stateMutability": "nonpayable",
      "type": "function"
    },
    {
      "inputs": [
        {
          "internalType": "address",
          "name": "spender",
          "type": "address"
        },
        {
          "internalType": "address",
          "name": "recipient",
          "type": "address"
        },
        {
          "internalType": "uint256",
          "name": "amount",
          "type": "uint256"
        }
      ],
      "name": "transferFrom",
      "outputs": [
        {
          "internalType": "bool",
          "name": "",
          "type": "bool"
        }
      ],
      "stateMutability": "nonpayable",
      "type": "function"
    },
    {
      "inputs": [],
      "name": "updateShares",
      "outputs": [],
      "stateMutability": "nonpayable",
      "type": "function"
    },
    {
      "inputs": [
        {
          "internalType": "uint256",
          "name": "_shares",
          "type": "uint256"
        },
        {
          "internalType": "address",
          "name": "destination",
          "type": "address"
        },
        {
          "internalType": "uint256",
          "name": "",
          "type": "uint256"
        }
      ],
      "name": "withdraw",
      "outputs": [
        {
          "internalType": "uint256",
          "name": "",
          "type": "uint256"
        }
      ],
      "stateMutability": "nonpayable",
      "type": "function"
    }
  ],
  "bytecode": "0x60806040523480156200001157600080fd5b5060405162001c2f38038062001c2f83398101604081905262000034916200027e565b604080518082018252600b81526a3a32b9ba103cba37b5b2b760a91b6020808301918252835180850190945260068452653caa37b5b2b760d11b908401528151859385939290916200008991600091620001d8565b5080516200009f906001906020840190620001d8565b506002805460ff1916601217905560036020526000197f3617319a054d772f909f7c479a2cebe5066e836a939412e32403c99029b92eff8190553060009081526040902055620000ee620001c0565b7f8b73c3c69bb8fe3d512ecc4cf759cc79239f7b179b0ffacaa9a75d522b39400f6000604051620001209190620002ca565b60408051918290038220828201825260018352603160f81b60209384015290516200017393927fc89efdaa54c0f20c7adf612882df0950f5a951637e0307cdcb4c672f298b8bc69146913091016200036f565b60408051808303601f1901815291905280516020909101206006555050600880546001600160a01b0319166001600160a01b038416179055620001b681620001c2565b50505050620003e4565b565b6002805460ff191660ff92909216919091179055565b828054620001e690620003a7565b90600052602060002090601f0160209004810192826200020a576000855562000255565b82601f106200022557805160ff191683800117855562000255565b8280016001018555821562000255579182015b828111156200025557825182559160200191906001019062000238565b506200026392915062000267565b5090565b5b8082111562000263576000815560010162000268565b6000806040838503121562000291578182fd5b82516001600160a01b0381168114620002a8578283fd5b602084015190925060ff81168114620002bf578182fd5b809150509250929050565b8154600090819060028104600180831680620002e757607f831692505b60208084108214156200030857634e487b7160e01b87526022600452602487fd5b8180156200031f5760018114620003315762000361565b60ff1986168952848901965062000361565b6200033c8a6200039b565b885b86811015620003595781548b8201529085019083016200033e565b505084890196505b509498975050505050505050565b9485526020850193909352604084019190915260608301526001600160a01b0316608082015260a00190565b60009081526020902090565b600281046001821680620003bc57607f821691505b60208210811415620003de57634e487b7160e01b600052602260045260246000fd5b50919050565b61183b80620003f46000396000f3fe608060405234801561001057600080fd5b50600436106101825760003560e01c80636e553f65116100d8578063a9059cbb1161008c578063dd62ed3e11610066578063dd62ed3e146102c3578063e63697c8146102d6578063fc0c546a146102e957610182565b8063a9059cbb1461028a578063bdc8144b1461029d578063d505accf146102b057610182565b80637ecebe00116100bd5780637ecebe001461026757806395d89b411461027a57806399530b061461028257610182565b80636e553f651461024157806370a082311461025457610182565b8063258294101161013a578063313ce56711610114578063313ce5671461020f5780633644e515146102245780635aa6e6751461022c57610182565b806325829410146101f55780632a410068146101fd57806330adf81f1461020757610182565b8063095ea7b31161016b578063095ea7b3146101ba57806318160ddd146101da57806323b872dd146101e257610182565b806301e1d1141461018757806306fdde03146101a5575b600080fd5b61018f6102f1565b60405161019c919061133b565b60405180910390f35b6101ad61039e565b60405161019c91906113a3565b6101cd6101c83660046111c3565b61042c565b60405161019c9190611330565b61018f6104a3565b6101cd6101f0366004611117565b6104a9565b6101ad61069c565b6102056106d3565b005b61018f6107f9565b61021761081d565b60405161019c91906115bb565b61018f610826565b61023461082c565b60405161019c91906112b8565b61018f61024f36600461123c565b610860565b61018f6102623660046110cb565b61095c565b61018f6102753660046110cb565b61096e565b6101ad610980565b61018f61098d565b6101cd6102983660046111c3565b610a86565b6102056102ab36600461120c565b610a93565b6102056102be366004611152565b610ac5565b61018f6102d13660046110e5565b610dd7565b61018f6102e436600461125e565b610df4565b610234610f02565b6008546040517f70a0823100000000000000000000000000000000000000000000000000000000815260009173ffffffffffffffffffffffffffffffffffffffff16906370a08231906103489030906004016112b8565b60206040518083038186803b15801561036057600080fd5b505afa158015610374573d6000803e3d6000fd5b505050506040513d601f19601f820116820180604052508101906103989190611224565b90505b90565b600080546103ab90611767565b80601f01602080910402602001604051908101604052809291908181526020018280546103d790611767565b80156104245780601f106103f957610100808354040283529160200191610424565b820191906000526020600020905b81548152906001019060200180831161040757829003601f168201915b505050505081565b33600081815260046020908152604080832073ffffffffffffffffffffffffffffffffffffffff8716808552925280832085905551919290917f8c5be1e5ebec7d5bd14f71427d1e84f3dd0314c0f7b2291e5b200ac8c7c3b9259061049290869061133b565b60405180910390a350600192915050565b60075481565b73ffffffffffffffffffffffffffffffffffffffff831660009081526003602052604081205482811015610512576040517f08c379a00000000000000000000000000000000000000000000000000000000081526004016105099061154d565b60405180910390fd5b73ffffffffffffffffffffffffffffffffffffffff851633146105e15773ffffffffffffffffffffffffffffffffffffffff8516600090815260046020908152604080832033845290915290205460001981146105df57838110156105a3576040517f08c379a000000000000000000000000000000000000000000000000000000000815260040161050990611414565b6105ad8482611750565b73ffffffffffffffffffffffffffffffffffffffff871660009081526004602090815260408083203384529091529020555b505b6105eb8382611750565b73ffffffffffffffffffffffffffffffffffffffff80871660009081526003602052604080822093909355908616815220546106289084906115c9565b73ffffffffffffffffffffffffffffffffffffffff80861660008181526003602052604090819020939093559151908716907fddf252ad1be2c89b69c2b068fc378daa952ba7f163c4a11628f55a4df523b3ef9061068790879061133b565b60405180910390a360019150505b9392505050565b60408051808201909152600581527f302e342e32000000000000000000000000000000000000000000000000000000602082015290565b6008546040517f70a0823100000000000000000000000000000000000000000000000000000000815260009173ffffffffffffffffffffffffffffffffffffffff16906370a082319061072a9030906004016112b8565b60206040518083038186803b15801561074257600080fd5b505afa158015610756573d6000803e3d6000fd5b505050506040513d601f19601f8201168201806040525081019061077a9190611224565b60085490915073ffffffffffffffffffffffffffffffffffffffff166340c10f19306107a7600a856115e1565b6040518363ffffffff1660e01b81526004016107c492919061130a565b600060405180830381600087803b1580156107de57600080fd5b505af11580156107f2573d6000803e3d6000fd5b5050505050565b7f6e71edae12b1b97f4d1f60370fef10105fa2faae0126114a169c64845d6126c981565b60025460ff1681565b60065481565b60006040517f08c379a000000000000000000000000000000000000000000000000000000000815260040161050990611584565b600080600754600014156108755750826108a5565b61087d61098d565b60025461088e9060ff16600a611660565b6108989086611731565b6108a291906115e1565b90505b6008546040517f23b872dd00000000000000000000000000000000000000000000000000000000815273ffffffffffffffffffffffffffffffffffffffff909116906323b872dd906108ff903390309089906004016112d9565b602060405180830381600087803b15801561091957600080fd5b505af115801561092d573d6000803e3d6000fd5b505050506040513d601f19601f8201168201806040525081019061095191906111ec565b506106958382610f1e565b60036020526000908152604090205481565b60056020526000908152604090205481565b600180546103ab90611767565b6008546040517f70a08231000000000000000000000000000000000000000000000000000000008152600091829173ffffffffffffffffffffffffffffffffffffffff909116906370a08231906109e89030906004016112b8565b60206040518083038186803b158015610a0057600080fd5b505afa158015610a14573d6000803e3d6000fd5b505050506040513d601f19601f82011682018060405250810190610a389190611224565b905080610a5857600254610a509060ff16600a611660565b91505061039b565b600754600254610a6c9060ff16600a611660565b610a769083611731565b610a8091906115e1565b91505090565b60006106953384846104a9565b6040517f08c379a000000000000000000000000000000000000000000000000000000000815260040161050990611584565b60065473ffffffffffffffffffffffffffffffffffffffff88166000908152600560209081526040808320549051929392610b2b927f6e71edae12b1b97f4d1f60370fef10105fa2faae0126114a169c64845d6126c9928d928d928d92918d9101611344565b60405160208183030381529060405280519060200120604051602001610b52929190611282565b604080517fffffffffffffffffffffffffffffffffffffffffffffffffffffffffffffffe08184030181529190528051602090910120905073ffffffffffffffffffffffffffffffffffffffff8816610bd7576040517f08c379a0000000000000000000000000000000000000000000000000000000008152600401610509906114a8565b60018185858560405160008152602001604052604051610bfa9493929190611385565b6020604051602081039080840390855afa158015610c1c573d6000803e3d6000fd5b5050506020604051035173ffffffffffffffffffffffffffffffffffffffff168873ffffffffffffffffffffffffffffffffffffffff1614610c8a576040517f08c379a0000000000000000000000000000000000000000000000000000000008152600401610509906114df565b841580610c975750844211155b610ccd576040517f08c379a000000000000000000000000000000000000000000000000000000000815260040161050990611516565b7f7fffffffffffffffffffffffffffffff5d576e7357a4501ddfe92f46681b20a0821115610d27576040517f08c379a00000000000000000000000000000000000000000000000000000000081526004016105099061144b565b73ffffffffffffffffffffffffffffffffffffffff88166000908152600560205260408120805491610d58836117bb565b909155505073ffffffffffffffffffffffffffffffffffffffff8089166000818152600460209081526040808320948c168084529490915290819020899055517f8c5be1e5ebec7d5bd14f71427d1e84f3dd0314c0f7b2291e5b200ac8c7c3b92590610dc5908a9061133b565b60405180910390a35050505050505050565b600460209081526000928352604080842090915290825290205481565b6000600019841415610e13573360009081526003602052604090205493505b600254600090610e279060ff16600a611660565b610e2f61098d565b610e399087611731565b610e4391906115e1565b9050610e4f3386610fe6565b6008546040517fa9059cbb00000000000000000000000000000000000000000000000000000000815273ffffffffffffffffffffffffffffffffffffffff9091169063a9059cbb90610ea7908790859060040161130a565b602060405180830381600087803b158015610ec157600080fd5b505af1158015610ed5573d6000803e3d6000fd5b505050506040513d601f19601f82011682018060405250810190610ef991906111ec565b50949350505050565b60085473ffffffffffffffffffffffffffffffffffffffff1681565b73ffffffffffffffffffffffffffffffffffffffff8216600090815260036020526040902054610f4f9082906115c9565b73ffffffffffffffffffffffffffffffffffffffff831660009081526003602052604081209190915560078054839290610f8a9084906115c9565b909155505060405173ffffffffffffffffffffffffffffffffffffffff8316906000907fddf252ad1be2c89b69c2b068fc378daa952ba7f163c4a11628f55a4df523b3ef90610fda90859061133b565b60405180910390a35050565b73ffffffffffffffffffffffffffffffffffffffff8216600090815260036020526040902054611017908290611750565b73ffffffffffffffffffffffffffffffffffffffff831660009081526003602052604081209190915560078054839290611052908490611750565b909155505060405160009073ffffffffffffffffffffffffffffffffffffffff8416907fddf252ad1be2c89b69c2b068fc378daa952ba7f163c4a11628f55a4df523b3ef90610fda90859061133b565b803573ffffffffffffffffffffffffffffffffffffffff811681146110c657600080fd5b919050565b6000602082840312156110dc578081fd5b610695826110a2565b600080604083850312156110f7578081fd5b611100836110a2565b915061110e602084016110a2565b90509250929050565b60008060006060848603121561112b578081fd5b611134846110a2565b9250611142602085016110a2565b9150604084013590509250925092565b600080600080600080600060e0888a03121561116c578283fd5b611175886110a2565b9650611183602089016110a2565b95506040880135945060608801359350608088013560ff811681146111a6578384fd5b9699959850939692959460a0840135945060c09093013592915050565b600080604083850312156111d5578182fd5b6111de836110a2565b946020939093013593505050565b6000602082840312156111fd578081fd5b81518015158114610695578182fd5b60006020828403121561121d578081fd5b5035919050565b600060208284031215611235578081fd5b5051919050565b6000806040838503121561124e578182fd5b8235915061110e602084016110a2565b600080600060608486031215611272578283fd5b83359250611142602085016110a2565b7f190100000000000000000000000000000000000000000000000000000000000081526002810192909252602282015260420190565b73ffffffffffffffffffffffffffffffffffffffff91909116815260200190565b73ffffffffffffffffffffffffffffffffffffffff9384168152919092166020820152604081019190915260600190565b73ffffffffffffffffffffffffffffffffffffffff929092168252602082015260400190565b901515815260200190565b90815260200190565b95865273ffffffffffffffffffffffffffffffffffffffff94851660208701529290931660408501526060840152608083019190915260a082015260c00190565b93845260ff9290921660208401526040830152606082015260800190565b6000602080835283518082850152825b818110156113cf578581018301518582016040015282016113b3565b818111156113e05783604083870101525b50601f017fffffffffffffffffffffffffffffffffffffffffffffffffffffffffffffffe016929092016040019392505050565b6020808252601d908201527f45524332303a20696e73756666696369656e742d616c6c6f77616e6365000000604082015260600190565b60208082526022908201527f45524332303a20696e76616c6964207369676e6174757265202773272076616c60408201527f7565000000000000000000000000000000000000000000000000000000000000606082015260800190565b60208082526018908201527f45524332303a20696e76616c69642d616464726573732d300000000000000000604082015260600190565b60208082526015908201527f45524332303a20696e76616c69642d7065726d69740000000000000000000000604082015260600190565b60208082526015908201527f45524332303a207065726d69742d657870697265640000000000000000000000604082015260600190565b6020808252601b908201527f45524332303a20696e73756666696369656e742d62616c616e63650000000000604082015260600190565b6020808252600d908201527f556e696d706c656d656e74656400000000000000000000000000000000000000604082015260600190565b60ff91909116815260200190565b600082198211156115dc576115dc6117d6565b500190565b600082611615577f4e487b710000000000000000000000000000000000000000000000000000000081526012600452602481fd5b500490565b80825b600180861161162c5750611657565b81870482111561163e5761163e6117d6565b8086161561164b57918102915b9490941c93800261161d565b94509492505050565b600061069560001960ff85168460008261167c57506001610695565b8161168957506000610695565b816001811461169f57600281146116a9576116d6565b6001915050610695565b60ff8411156116ba576116ba6117d6565b6001841b9150848211156116d0576116d06117d6565b50610695565b5060208310610133831016604e8410600b8410161715611709575081810a83811115611704576117046117d6565b610695565b611716848484600161161a565b808604821115611728576117286117d6565b02949350505050565b600081600019048311821515161561174b5761174b6117d6565b500290565b600082821015611762576117626117d6565b500390565b60028104600182168061177b57607f821691505b602082108114156117b5577f4e487b7100000000000000000000000000000000000000000000000000000000600052602260045260246000fd5b50919050565b60006000198214156117cf576117cf6117d6565b5060010190565b7f4e487b7100000000000000000000000000000000000000000000000000000000600052601160045260246000fdfea264697066735822122078cf143853c4efc79661f850f9bab5d5cd0dcb480b91574fed2e253c58a7c7b764736f6c63430008000033",
  "linkReferences": {},
  "deployedLinkReferences": {}
}