{
  "_format": "hh-sol-artifact-1",
  "contractName": "PoolPriceOracle",
  "sourceName": "contracts/balancer-core-v2/pools/oracle/PoolPriceOracle.sol",
  "abi": [
    {
      "inputs": [
        {
          "internalType": "uint256",
          "name": "index",
          "type": "uint256"
        }
      ],
      "name": "getSample",
      "outputs": [
        {
          "internalType": "int256",
          "name": "logPairPrice",
          "type": "int256"
        },
        {
          "internalType": "int256",
          "name": "accLogPairPrice",
          "type": "int256"
        },
        {
          "internalType": "int256",
          "name": "logBptPrice",
          "type": "int256"
        },
        {
          "internalType": "int256",
          "name": "accLogBptPrice",
          "type": "int256"
        },
        {
          "internalType": "int256",
          "name": "logInvariant",
          "type": "int256"
        },
        {
          "internalType": "int256",
          "name": "accLogInvariant",
          "type": "int256"
        },
        {
          "internalType": "uint256",
          "name": "timestamp",
          "type": "uint256"
        }
      ],
      "stateMutability": "view",
      "type": "function"
    },
    {
      "inputs": [],
      "name": "getTotalSamples",
      "outputs": [
        {
          "internalType": "uint256",
          "name": "",
          "type": "uint256"
        }
      ],
      "stateMutability": "pure",
      "type": "function"
    }
  ],
  "bytecode": "0x608060405234801561001057600080fd5b5061031e806100206000396000f3fe608060405234801561001057600080fd5b50600436106100365760003560e01c806360d1507c1461003b578063b48b5b4014610090575b600080fd5b6100586004803603602081101561005157600080fd5b50356100aa565b604080519788526020880196909652868601949094526060860192909252608085015260a084015260c0830152519081900360e00190f35b6100986100f3565b60408051918252519081900360200190f35b60008060008060008060006100c5610400891061013b6100f9565b60006100d08961010b565b90506100db8161011d565b959f949e50929c50909a509850965090945092505050565b61040090565b816101075761010781610180565b5050565b60009081526020819052604090205490565b6000806000806000806000610131886101ed565b965061013c88610200565b95506101478861020d565b94506101528861021a565b935061015d88610227565b925061016888610234565b915061017388610241565b9050919395979092949650565b7f08c379a0000000000000000000000000000000000000000000000000000000006000908152602060045260076024526642414c23000030600a808404818106603090810160081b95839006959095019082900491820690940160101b939093010160c81b604452606490fd5b60006101fa8260ea61024d565b92915050565b60006101fa8260b5610293565b60006101fa82609f61024d565b60006101fa82606a610293565b60006101fa82605461024d565b60006101fa82601f610293565b60006101fa82826102de565b600082821c623fffff16621fffff8113610267578061028b565b7fffffffffffffffffffffffffffffffffffffffffffffffffffffffffffc0000081175b949350505050565b600082821c661fffffffffffff16660fffffffffffff81136102b5578061028b565b7fffffffffffffffffffffffffffffffffffffffffffffffffffe0000000000000179392505050565b1c637fffffff169056fea26469706673582212207268d89b18ead63dbc80d9132d6e47d702d7d0ee50d68e51952e2e48c152839364736f6c63430007010033",
  "linkReferences": {},
  "deployedLinkReferences": {}
}