{
  "_format": "hh-sol-artifact-1",
  "contractName": "Vault",
  "sourceName": "contracts/balancer-core-v2/vault/Vault.sol",
  "abi": [
    {
      "inputs": [
        {
          "internalType": "contract IAuthorizer",
          "name": "authorizer",
          "type": "address"
        },
        {
          "internalType": "contract IWETH",
          "name": "weth",
          "type": "address"
        },
        {
          "internalType": "uint256",
          "name": "pauseWindowDuration",
          "type": "uint256"
        },
        {
          "internalType": "uint256",
          "name": "bufferPeriodDuration",
          "type": "uint256"
        }
      ],
      "stateMutability": "nonpayable",
      "type": "constructor"
    },
    {
      "anonymous": false,
      "inputs": [
        {
          "indexed": true,
          "internalType": "contract IAuthorizer",
          "name": "newAuthorizer",
          "type": "address"
        }
      ],
      "name": "AuthorizerChanged",
      "type": "event"
    },
    {
      "anonymous": false,
      "inputs": [
        {
          "indexed": true,
          "internalType": "contract IERC20",
          "name": "token",
          "type": "address"
        },
        {
          "indexed": true,
          "internalType": "address",
          "name": "sender",
          "type": "address"
        },
        {
          "indexed": false,
          "internalType": "address",
          "name": "recipient",
          "type": "address"
        },
        {
          "indexed": false,
          "internalType": "uint256",
          "name": "amount",
          "type": "uint256"
        }
      ],
      "name": "ExternalBalanceTransfer",
      "type": "event"
    },
    {
      "anonymous": false,
      "inputs": [
        {
          "indexed": true,
          "internalType": "contract IFlashLoanRecipient",
          "name": "recipient",
          "type": "address"
        },
        {
          "indexed": true,
          "internalType": "contract IERC20",
          "name": "token",
          "type": "address"
        },
        {
          "indexed": false,
          "internalType": "uint256",
          "name": "amount",
          "type": "uint256"
        },
        {
          "indexed": false,
          "internalType": "uint256",
          "name": "feeAmount",
          "type": "uint256"
        }
      ],
      "name": "FlashLoan",
      "type": "event"
    },
    {
      "anonymous": false,
      "inputs": [
        {
          "indexed": true,
          "internalType": "address",
          "name": "user",
          "type": "address"
        },
        {
          "indexed": true,
          "internalType": "contract IERC20",
          "name": "token",
          "type": "address"
        },
        {
          "indexed": false,
          "internalType": "int256",
          "name": "delta",
          "type": "int256"
        }
      ],
      "name": "InternalBalanceChanged",
      "type": "event"
    },
    {
      "anonymous": false,
      "inputs": [
        {
          "indexed": false,
          "internalType": "bool",
          "name": "paused",
          "type": "bool"
        }
      ],
      "name": "PausedStateChanged",
      "type": "event"
    },
    {
      "anonymous": false,
      "inputs": [
        {
          "indexed": true,
          "internalType": "bytes32",
          "name": "poolId",
          "type": "bytes32"
        },
        {
          "indexed": true,
          "internalType": "address",
          "name": "liquidityProvider",
          "type": "address"
        },
        {
          "indexed": false,
          "internalType": "contract IERC20[]",
          "name": "tokens",
          "type": "address[]"
        },
        {
          "indexed": false,
          "internalType": "int256[]",
          "name": "deltas",
          "type": "int256[]"
        },
        {
          "indexed": false,
          "internalType": "uint256[]",
          "name": "protocolFeeAmounts",
          "type": "uint256[]"
        }
      ],
      "name": "PoolBalanceChanged",
      "type": "event"
    },
    {
      "anonymous": false,
      "inputs": [
        {
          "indexed": true,
          "internalType": "bytes32",
          "name": "poolId",
          "type": "bytes32"
        },
        {
          "indexed": true,
          "internalType": "address",
          "name": "assetManager",
          "type": "address"
        },
        {
          "indexed": true,
          "internalType": "contract IERC20",
          "name": "token",
          "type": "address"
        },
        {
          "indexed": false,
          "internalType": "int256",
          "name": "cashDelta",
          "type": "int256"
        },
        {
          "indexed": false,
          "internalType": "int256",
          "name": "managedDelta",
          "type": "int256"
        }
      ],
      "name": "PoolBalanceManaged",
      "type": "event"
    },
    {
      "anonymous": false,
      "inputs": [
        {
          "indexed": true,
          "internalType": "bytes32",
          "name": "poolId",
          "type": "bytes32"
        },
        {
          "indexed": true,
          "internalType": "address",
          "name": "poolAddress",
          "type": "address"
        },
        {
          "indexed": false,
          "internalType": "enum IVault.PoolSpecialization",
          "name": "specialization",
          "type": "uint8"
        }
      ],
      "name": "PoolRegistered",
      "type": "event"
    },
    {
      "anonymous": false,
      "inputs": [
        {
          "indexed": true,
          "internalType": "address",
          "name": "relayer",
          "type": "address"
        },
        {
          "indexed": true,
          "internalType": "address",
          "name": "sender",
          "type": "address"
        },
        {
          "indexed": false,
          "internalType": "bool",
          "name": "approved",
          "type": "bool"
        }
      ],
      "name": "RelayerApprovalChanged",
      "type": "event"
    },
    {
      "anonymous": false,
      "inputs": [
        {
          "indexed": true,
          "internalType": "bytes32",
          "name": "poolId",
          "type": "bytes32"
        },
        {
          "indexed": true,
          "internalType": "contract IERC20",
          "name": "tokenIn",
          "type": "address"
        },
        {
          "indexed": true,
          "internalType": "contract IERC20",
          "name": "tokenOut",
          "type": "address"
        },
        {
          "indexed": false,
          "internalType": "uint256",
          "name": "amountIn",
          "type": "uint256"
        },
        {
          "indexed": false,
          "internalType": "uint256",
          "name": "amountOut",
          "type": "uint256"
        }
      ],
      "name": "Swap",
      "type": "event"
    },
    {
      "anonymous": false,
      "inputs": [
        {
          "indexed": true,
          "internalType": "bytes32",
          "name": "poolId",
          "type": "bytes32"
        },
        {
          "indexed": false,
          "internalType": "contract IERC20[]",
          "name": "tokens",
          "type": "address[]"
        }
      ],
      "name": "TokensDeregistered",
      "type": "event"
    },
    {
      "anonymous": false,
      "inputs": [
        {
          "indexed": true,
          "internalType": "bytes32",
          "name": "poolId",
          "type": "bytes32"
        },
        {
          "indexed": false,
          "internalType": "contract IERC20[]",
          "name": "tokens",
          "type": "address[]"
        },
        {
          "indexed": false,
          "internalType": "address[]",
          "name": "assetManagers",
          "type": "address[]"
        }
      ],
      "name": "TokensRegistered",
      "type": "event"
    },
    {
      "inputs": [],
      "name": "WETH",
      "outputs": [
        {
          "internalType": "contract IWETH",
          "name": "",
          "type": "address"
        }
      ],
      "stateMutability": "view",
      "type": "function"
    },
    {
      "inputs": [
        {
          "internalType": "enum IVault.SwapKind",
          "name": "kind",
          "type": "uint8"
        },
        {
          "components": [
            {
              "internalType": "bytes32",
              "name": "poolId",
              "type": "bytes32"
            },
            {
              "internalType": "uint256",
              "name": "assetInIndex",
              "type": "uint256"
            },
            {
              "internalType": "uint256",
              "name": "assetOutIndex",
              "type": "uint256"
            },
            {
              "internalType": "uint256",
              "name": "amount",
              "type": "uint256"
            },
            {
              "internalType": "bytes",
              "name": "userData",
              "type": "bytes"
            }
          ],
          "internalType": "struct IVault.BatchSwapStep[]",
          "name": "swaps",
          "type": "tuple[]"
        },
        {
          "internalType": "contract IAsset[]",
          "name": "assets",
          "type": "address[]"
        },
        {
          "components": [
            {
              "internalType": "address",
              "name": "sender",
              "type": "address"
            },
            {
              "internalType": "bool",
              "name": "fromInternalBalance",
              "type": "bool"
            },
            {
              "internalType": "address payable",
              "name": "recipient",
              "type": "address"
            },
            {
              "internalType": "bool",
              "name": "toInternalBalance",
              "type": "bool"
            }
          ],
          "internalType": "struct IVault.FundManagement",
          "name": "funds",
          "type": "tuple"
        },
        {
          "internalType": "int256[]",
          "name": "limits",
          "type": "int256[]"
        },
        {
          "internalType": "uint256",
          "name": "deadline",
          "type": "uint256"
        }
      ],
      "name": "batchSwap",
      "outputs": [
        {
          "internalType": "int256[]",
          "name": "assetDeltas",
          "type": "int256[]"
        }
      ],
      "stateMutability": "payable",
      "type": "function"
    },
    {
      "inputs": [
        {
          "internalType": "bytes32",
          "name": "poolId",
          "type": "bytes32"
        },
        {
          "internalType": "contract IERC20[]",
          "name": "tokens",
          "type": "address[]"
        }
      ],
      "name": "deregisterTokens",
      "outputs": [],
      "stateMutability": "nonpayable",
      "type": "function"
    },
    {
      "inputs": [
        {
          "internalType": "bytes32",
          "name": "poolId",
          "type": "bytes32"
        },
        {
          "internalType": "address",
          "name": "sender",
          "type": "address"
        },
        {
          "internalType": "address payable",
          "name": "recipient",
          "type": "address"
        },
        {
          "components": [
            {
              "internalType": "contract IAsset[]",
              "name": "assets",
              "type": "address[]"
            },
            {
              "internalType": "uint256[]",
              "name": "minAmountsOut",
              "type": "uint256[]"
            },
            {
              "internalType": "bytes",
              "name": "userData",
              "type": "bytes"
            },
            {
              "internalType": "bool",
              "name": "toInternalBalance",
              "type": "bool"
            }
          ],
          "internalType": "struct IVault.ExitPoolRequest",
          "name": "request",
          "type": "tuple"
        }
      ],
      "name": "exitPool",
      "outputs": [],
      "stateMutability": "nonpayable",
      "type": "function"
    },
    {
      "inputs": [
        {
          "internalType": "contract IFlashLoanRecipient",
          "name": "recipient",
          "type": "address"
        },
        {
          "internalType": "contract IERC20[]",
          "name": "tokens",
          "type": "address[]"
        },
        {
          "internalType": "uint256[]",
          "name": "amounts",
          "type": "uint256[]"
        },
        {
          "internalType": "bytes",
          "name": "userData",
          "type": "bytes"
        }
      ],
      "name": "flashLoan",
      "outputs": [],
      "stateMutability": "nonpayable",
      "type": "function"
    },
    {
      "inputs": [
        {
          "internalType": "bytes4",
          "name": "selector",
          "type": "bytes4"
        }
      ],
      "name": "getActionId",
      "outputs": [
        {
          "internalType": "bytes32",
          "name": "",
          "type": "bytes32"
        }
      ],
      "stateMutability": "view",
      "type": "function"
    },
    {
      "inputs": [],
      "name": "getAuthorizer",
      "outputs": [
        {
          "internalType": "contract IAuthorizer",
          "name": "",
          "type": "address"
        }
      ],
      "stateMutability": "view",
      "type": "function"
    },
    {
      "inputs": [],
      "name": "getDomainSeparator",
      "outputs": [
        {
          "internalType": "bytes32",
          "name": "",
          "type": "bytes32"
        }
      ],
      "stateMutability": "view",
      "type": "function"
    },
    {
      "inputs": [
        {
          "internalType": "address",
          "name": "user",
          "type": "address"
        },
        {
          "internalType": "contract IERC20[]",
          "name": "tokens",
          "type": "address[]"
        }
      ],
      "name": "getInternalBalance",
      "outputs": [
        {
          "internalType": "uint256[]",
          "name": "balances",
          "type": "uint256[]"
        }
      ],
      "stateMutability": "view",
      "type": "function"
    },
    {
      "inputs": [
        {
          "internalType": "address",
          "name": "user",
          "type": "address"
        }
      ],
      "name": "getNextNonce",
      "outputs": [
        {
          "internalType": "uint256",
          "name": "",
          "type": "uint256"
        }
      ],
      "stateMutability": "view",
      "type": "function"
    },
    {
      "inputs": [],
      "name": "getPausedState",
      "outputs": [
        {
          "internalType": "bool",
          "name": "paused",
          "type": "bool"
        },
        {
          "internalType": "uint256",
          "name": "pauseWindowEndTime",
          "type": "uint256"
        },
        {
          "internalType": "uint256",
          "name": "bufferPeriodEndTime",
          "type": "uint256"
        }
      ],
      "stateMutability": "view",
      "type": "function"
    },
    {
      "inputs": [
        {
          "internalType": "bytes32",
          "name": "poolId",
          "type": "bytes32"
        }
      ],
      "name": "getPool",
      "outputs": [
        {
          "internalType": "address",
          "name": "",
          "type": "address"
        },
        {
          "internalType": "enum IVault.PoolSpecialization",
          "name": "",
          "type": "uint8"
        }
      ],
      "stateMutability": "view",
      "type": "function"
    },
    {
      "inputs": [
        {
          "internalType": "bytes32",
          "name": "poolId",
          "type": "bytes32"
        },
        {
          "internalType": "contract IERC20",
          "name": "token",
          "type": "address"
        }
      ],
      "name": "getPoolTokenInfo",
      "outputs": [
        {
          "internalType": "uint256",
          "name": "cash",
          "type": "uint256"
        },
        {
          "internalType": "uint256",
          "name": "managed",
          "type": "uint256"
        },
        {
          "internalType": "uint256",
          "name": "lastChangeBlock",
          "type": "uint256"
        },
        {
          "internalType": "address",
          "name": "assetManager",
          "type": "address"
        }
      ],
      "stateMutability": "view",
      "type": "function"
    },
    {
      "inputs": [
        {
          "internalType": "bytes32",
          "name": "poolId",
          "type": "bytes32"
        }
      ],
      "name": "getPoolTokens",
      "outputs": [
        {
          "internalType": "contract IERC20[]",
          "name": "tokens",
          "type": "address[]"
        },
        {
          "internalType": "uint256[]",
          "name": "balances",
          "type": "uint256[]"
        },
        {
          "internalType": "uint256",
          "name": "lastChangeBlock",
          "type": "uint256"
        }
      ],
      "stateMutability": "view",
      "type": "function"
    },
    {
      "inputs": [],
      "name": "getProtocolFeesCollector",
      "outputs": [
        {
          "internalType": "contract ProtocolFeesCollector",
          "name": "",
          "type": "address"
        }
      ],
      "stateMutability": "view",
      "type": "function"
    },
    {
      "inputs": [
        {
          "internalType": "address",
          "name": "user",
          "type": "address"
        },
        {
          "internalType": "address",
          "name": "relayer",
          "type": "address"
        }
      ],
      "name": "hasApprovedRelayer",
      "outputs": [
        {
          "internalType": "bool",
          "name": "",
          "type": "bool"
        }
      ],
      "stateMutability": "view",
      "type": "function"
    },
    {
      "inputs": [
        {
          "internalType": "bytes32",
          "name": "poolId",
          "type": "bytes32"
        },
        {
          "internalType": "address",
          "name": "sender",
          "type": "address"
        },
        {
          "internalType": "address",
          "name": "recipient",
          "type": "address"
        },
        {
          "components": [
            {
              "internalType": "contract IAsset[]",
              "name": "assets",
              "type": "address[]"
            },
            {
              "internalType": "uint256[]",
              "name": "maxAmountsIn",
              "type": "uint256[]"
            },
            {
              "internalType": "bytes",
              "name": "userData",
              "type": "bytes"
            },
            {
              "internalType": "bool",
              "name": "fromInternalBalance",
              "type": "bool"
            }
          ],
          "internalType": "struct IVault.JoinPoolRequest",
          "name": "request",
          "type": "tuple"
        }
      ],
      "name": "joinPool",
      "outputs": [],
      "stateMutability": "payable",
      "type": "function"
    },
    {
      "inputs": [
        {
          "components": [
            {
              "internalType": "enum IVault.PoolBalanceOpKind",
              "name": "kind",
              "type": "uint8"
            },
            {
              "internalType": "bytes32",
              "name": "poolId",
              "type": "bytes32"
            },
            {
              "internalType": "contract IERC20",
              "name": "token",
              "type": "address"
            },
            {
              "internalType": "uint256",
              "name": "amount",
              "type": "uint256"
            }
          ],
          "internalType": "struct IVault.PoolBalanceOp[]",
          "name": "ops",
          "type": "tuple[]"
        }
      ],
      "name": "managePoolBalance",
      "outputs": [],
      "stateMutability": "nonpayable",
      "type": "function"
    },
    {
      "inputs": [
        {
          "components": [
            {
              "internalType": "enum IVault.UserBalanceOpKind",
              "name": "kind",
              "type": "uint8"
            },
            {
              "internalType": "contract IAsset",
              "name": "asset",
              "type": "address"
            },
            {
              "internalType": "uint256",
              "name": "amount",
              "type": "uint256"
            },
            {
              "internalType": "address",
              "name": "sender",
              "type": "address"
            },
            {
              "internalType": "address payable",
              "name": "recipient",
              "type": "address"
            }
          ],
          "internalType": "struct IVault.UserBalanceOp[]",
          "name": "ops",
          "type": "tuple[]"
        }
      ],
      "name": "manageUserBalance",
      "outputs": [],
      "stateMutability": "payable",
      "type": "function"
    },
    {
      "inputs": [
        {
          "internalType": "enum IVault.SwapKind",
          "name": "kind",
          "type": "uint8"
        },
        {
          "components": [
            {
              "internalType": "bytes32",
              "name": "poolId",
              "type": "bytes32"
            },
            {
              "internalType": "uint256",
              "name": "assetInIndex",
              "type": "uint256"
            },
            {
              "internalType": "uint256",
              "name": "assetOutIndex",
              "type": "uint256"
            },
            {
              "internalType": "uint256",
              "name": "amount",
              "type": "uint256"
            },
            {
              "internalType": "bytes",
              "name": "userData",
              "type": "bytes"
            }
          ],
          "internalType": "struct IVault.BatchSwapStep[]",
          "name": "swaps",
          "type": "tuple[]"
        },
        {
          "internalType": "contract IAsset[]",
          "name": "assets",
          "type": "address[]"
        },
        {
          "components": [
            {
              "internalType": "address",
              "name": "sender",
              "type": "address"
            },
            {
              "internalType": "bool",
              "name": "fromInternalBalance",
              "type": "bool"
            },
            {
              "internalType": "address payable",
              "name": "recipient",
              "type": "address"
            },
            {
              "internalType": "bool",
              "name": "toInternalBalance",
              "type": "bool"
            }
          ],
          "internalType": "struct IVault.FundManagement",
          "name": "funds",
          "type": "tuple"
        }
      ],
      "name": "queryBatchSwap",
      "outputs": [
        {
          "internalType": "int256[]",
          "name": "",
          "type": "int256[]"
        }
      ],
      "stateMutability": "nonpayable",
      "type": "function"
    },
    {
      "inputs": [
        {
          "internalType": "enum IVault.PoolSpecialization",
          "name": "specialization",
          "type": "uint8"
        }
      ],
      "name": "registerPool",
      "outputs": [
        {
          "internalType": "bytes32",
          "name": "",
          "type": "bytes32"
        }
      ],
      "stateMutability": "nonpayable",
      "type": "function"
    },
    {
      "inputs": [
        {
          "internalType": "bytes32",
          "name": "poolId",
          "type": "bytes32"
        },
        {
          "internalType": "contract IERC20[]",
          "name": "tokens",
          "type": "address[]"
        },
        {
          "internalType": "address[]",
          "name": "assetManagers",
          "type": "address[]"
        }
      ],
      "name": "registerTokens",
      "outputs": [],
      "stateMutability": "nonpayable",
      "type": "function"
    },
    {
      "inputs": [
        {
          "internalType": "contract IAuthorizer",
          "name": "newAuthorizer",
          "type": "address"
        }
      ],
      "name": "setAuthorizer",
      "outputs": [],
      "stateMutability": "nonpayable",
      "type": "function"
    },
    {
      "inputs": [
        {
          "internalType": "bool",
          "name": "paused",
          "type": "bool"
        }
      ],
      "name": "setPaused",
      "outputs": [],
      "stateMutability": "nonpayable",
      "type": "function"
    },
    {
      "inputs": [
        {
          "internalType": "address",
          "name": "sender",
          "type": "address"
        },
        {
          "internalType": "address",
          "name": "relayer",
          "type": "address"
        },
        {
          "internalType": "bool",
          "name": "approved",
          "type": "bool"
        }
      ],
      "name": "setRelayerApproval",
      "outputs": [],
      "stateMutability": "nonpayable",
      "type": "function"
    },
    {
      "inputs": [
        {
          "components": [
            {
              "internalType": "bytes32",
              "name": "poolId",
              "type": "bytes32"
            },
            {
              "internalType": "enum IVault.SwapKind",
              "name": "kind",
              "type": "uint8"
            },
            {
              "internalType": "contract IAsset",
              "name": "assetIn",
              "type": "address"
            },
            {
              "internalType": "contract IAsset",
              "name": "assetOut",
              "type": "address"
            },
            {
              "internalType": "uint256",
              "name": "amount",
              "type": "uint256"
            },
            {
              "internalType": "bytes",
              "name": "userData",
              "type": "bytes"
            }
          ],
          "internalType": "struct IVault.SingleSwap",
          "name": "singleSwap",
          "type": "tuple"
        },
        {
          "components": [
            {
              "internalType": "address",
              "name": "sender",
              "type": "address"
            },
            {
              "internalType": "bool",
              "name": "fromInternalBalance",
              "type": "bool"
            },
            {
              "internalType": "address payable",
              "name": "recipient",
              "type": "address"
            },
            {
              "internalType": "bool",
              "name": "toInternalBalance",
              "type": "bool"
            }
          ],
          "internalType": "struct IVault.FundManagement",
          "name": "funds",
          "type": "tuple"
        },
        {
          "internalType": "uint256",
          "name": "limit",
          "type": "uint256"
        },
        {
          "internalType": "uint256",
          "name": "deadline",
          "type": "uint256"
        }
      ],
      "name": "swap",
      "outputs": [
        {
          "internalType": "uint256",
          "name": "amountCalculated",
          "type": "uint256"
        }
      ],
      "stateMutability": "payable",
      "type": "function"
    },
    {
      "stateMutability": "payable",
      "type": "receive"
    }
  ],
  "bytecode": "0x6101806040523480156200001257600080fd5b5060405162006d2b38038062006d2b833981016040819052620000359162000253565b8382826040518060400160405280601181526020017010985b185b98d95c88158c8815985d5b1d607a1b81525080604051806040016040528060018152602001603160f81b815250306001600160a01b031660001b89806001600160a01b03166080816001600160a01b031660601b815250505030604051620000b89062000245565b620000c491906200029f565b604051809103906000f080158015620000e1573d6000803e3d6000fd5b5060601b6001600160601b03191660a052600160005560c052815160209283012060e052805191012061010052507f8b73c3c69bb8fe3d512ecc4cf759cc79239f7b179b0ffacaa9a75d522b39400f61012052620001486276a70083111561019462000181565b6200015c62278d0082111561019562000181565b429091016101408190520161016052620001768162000196565b5050505050620002cc565b8162000192576200019281620001f2565b5050565b6040516001600160a01b038216907f94b979b6831a51293e2641426f97747feed46f17779fed9cd18d1ecefcfe92ef90600090a2600380546001600160a01b0390921661010002610100600160a81b0319909216919091179055565b62461bcd60e51b6000908152602060045260076024526642414c23000030600a808404818106603090810160081b95839006959095019082900491820690940160101b939093010160c81b604452606490fd5b610b5c80620061cf83390190565b6000806000806080858703121562000269578384fd5b84516200027681620002b3565b60208601519094506200028981620002b3565b6040860151606090960151949790965092505050565b6001600160a01b0391909116815260200190565b6001600160a01b0381168114620002c957600080fd5b50565b60805160601c60a05160601c60c05160e05161010051610120516101405161016051615e9f6200033060003980611a94525080611a705250806128305250806128725250806128515250806110e15250806113955250806105285250615e9f6000f3fe6080604052600436106101a55760003560e01c8063945bcec9116100e1578063e6c460921161008a578063f84d066e11610064578063f84d066e1461048a578063f94d4668146104aa578063fa6e671d146104d9578063fec90d72146104f9576101d3565b8063e6c4609214610427578063ed24911d14610447578063f6c009271461045c576101d3565b8063b05f8e48116100bb578063b05f8e48146103cf578063b95cac28146103ff578063d2946c2b14610412576101d3565b8063945bcec914610385578063aaabadc514610398578063ad5c4648146103ba576101d3565b806352bbbe291161014e5780637d3aeb96116101285780637d3aeb9614610305578063851c1bb3146103255780638bdb39131461034557806390193b7c14610365576101d3565b806352bbbe29146102b25780635c38449e146102c557806366a9c7d2146102e5576101d3565b80630f5a6efa1161017f5780630f5a6efa1461024157806316c38b3c1461026e5780631c0de0511461028e576101d3565b8063058a628f146101d857806309b2760f146101f85780630e8e3e841461022e576101d3565b366101d3576101d16101b5610526565b6001600160a01b0316336001600160a01b03161461020661054b565b005b600080fd5b3480156101e457600080fd5b506101d16101f336600461505e565b61055d565b34801561020457600080fd5b506102186102133660046155e5565b610581565b6040516102259190615c1f565b60405180910390f35b6101d161023c366004615223565b610634565b34801561024d57600080fd5b5061026161025c3660046150fc565b610770565b6040516102259190615be9565b34801561027a57600080fd5b506101d161028936600461535f565b610805565b34801561029a57600080fd5b506102a361081e565b60405161022593929190615c07565b6102186102c036600461578c565b610847565b3480156102d157600080fd5b506101d16102e036600461555b565b6109e8565b3480156102f157600080fd5b506101d1610300366004615446565b610dea565b34801561031157600080fd5b506101d1610320366004615418565b610f89565b34801561033157600080fd5b50610218610340366004615533565b6110dd565b34801561035157600080fd5b506101d16103603660046153af565b61112f565b34801561037157600080fd5b5061021861038036600461505e565b611145565b610261610393366004615684565b611160565b3480156103a457600080fd5b506103ad611294565b6040516102259190615a44565b3480156103c657600080fd5b506103ad6112a8565b3480156103db57600080fd5b506103ef6103ea36600461550f565b6112b7565b6040516102259493929190615d9a565b6101d161040d3660046153af565b61137a565b34801561041e57600080fd5b506103ad611393565b34801561043357600080fd5b506101d1610442366004615149565b6113b7565b34801561045357600080fd5b506102186114d3565b34801561046857600080fd5b5061047c610477366004615397565b6114dd565b604051610225929190615a7c565b34801561049657600080fd5b506102616104a5366004615601565b611507565b3480156104b657600080fd5b506104ca6104c5366004615397565b6115eb565b60405161022593929190615bb3565b3480156104e557600080fd5b506101d16104f43660046150b2565b61161f565b34801561050557600080fd5b5061051961051436600461507a565b6116b1565b6040516102259190615bfc565b7f00000000000000000000000000000000000000000000000000000000000000005b90565b8161055957610559816116c6565b5050565b610565611719565b61056d611732565b61057681611760565b61057e6117c9565b50565b600061058b611719565b6105936117d0565b60006105a233846006546117e5565b6000818152600560205260409020549091506105c49060ff16156101f461054b565b60008181526005602052604090819020805460ff1916600190811790915560068054909101905551339082907f3c13bc30b8e878c53fd2a36b679409c073afd75950be43d8858768e956fbc20e9061061d908790615d1b565b60405180910390a3905061062f6117c9565b919050565b61063c611719565b6000806000805b845181101561075b5760008060008060006106718a878151811061066357fe5b602002602001015189611824565b9c50939850919650945092509050600185600381111561068d57fe5b14156106a45761069f8483838661189c565b61074a565b866106b6576106b16117d0565b600196505b60008560038111156106c457fe5b14156106f5576106d6848383866118bf565b6106df846118df565b1561069f576106ee89846118ec565b985061074a565b61070a610701856118df565b1561020761054b565b600061071585610548565b9050600286600381111561072557fe5b141561073c57610737818484876118fe565b610748565b61074881848487611917565b505b505060019093019250610643915050565b5061076583611985565b50505061057e6117c9565b606081516001600160401b038111801561078957600080fd5b506040519080825280602002602001820160405280156107b3578160200160208202803683370190505b50905060005b82518110156107fe576107df848483815181106107d257fe5b60200260200101516119a8565b8282815181106107eb57fe5b60209081029190910101526001016107b9565b5092915050565b61080d611719565b610815611732565b610576816119d3565b600080600061082b611a51565b159250610836611a6e565b9150610840611a92565b9050909192565b6000610851611719565b6108596117d0565b835161086481611ab6565b610873834211156101fc61054b565b61088660008760800151116101fe61054b565b60006108958760400151611ae8565b905060006108a68860600151611ae8565b90506108c9816001600160a01b0316836001600160a01b031614156101fd61054b565b6108d1614beb565b885160808201526020890151819060018111156108ea57fe5b908160018111156108f757fe5b9052506001600160a01b03808416602083015282811660408084019190915260808b0151606084015260a08b01516101008401528951821660c08401528901511660e082015260008061094983611b0d565b9198509250905061098060008c60200151600181111561096557fe5b146109735789831115610978565b898210155b6101fb61054b565b6109988b60400151838c600001518d60200151611c01565b6109b08b60600151828c604001518d60600151611cdf565b6109d26109c08c604001516118df565b6109cb5760006109cd565b825b611985565b5050505050506109e06117c9565b949350505050565b6109f0611719565b6109f86117d0565b610a0483518351611db9565b606083516001600160401b0381118015610a1d57600080fd5b50604051908082528060200260200182016040528015610a47578160200160208202803683370190505b509050606084516001600160401b0381118015610a6357600080fd5b50604051908082528060200260200182016040528015610a8d578160200160208202803683370190505b5090506000805b8651811015610c06576000878281518110610aab57fe5b602002602001015190506000878381518110610ac357fe5b60200260200101519050610b0e846001600160a01b0316836001600160a01b03161160006001600160a01b0316846001600160a01b031614610b06576066610b09565b60685b61054b565b819350816001600160a01b03166370a08231306040518263ffffffff1660e01b8152600401610b3d9190615a44565b60206040518083038186803b158015610b5557600080fd5b505afa158015610b69573d6000803e3d6000fd5b505050506040513d601f19601f82011682018060405250810190610b8d9190615864565b858481518110610b9957fe5b602002602001018181525050610bae81611dc6565b868481518110610bba57fe5b602002602001018181525050610be881868581518110610bd657fe5b6020026020010151101561021061054b565b610bfc6001600160a01b0383168b83611e4d565b5050600101610a94565b5060405163f04f270760e01b81526001600160a01b0388169063f04f270790610c39908990899088908a90600401615b66565b600060405180830381600087803b158015610c5357600080fd5b505af1158015610c67573d6000803e3d6000fd5b5050505060005b8651811015610dd8576000878281518110610c8557fe5b602002602001015190506000848381518110610c9d57fe5b602002602001015190506000826001600160a01b03166370a08231306040518263ffffffff1660e01b8152600401610cd59190615a44565b60206040518083038186803b158015610ced57600080fd5b505afa158015610d01573d6000803e3d6000fd5b505050506040513d601f19601f82011682018060405250810190610d259190615864565b9050610d368282101561020361054b565b60008282039050610d5f888681518110610d4c57fe5b602002602001015182101561025a61054b565b610d698482611ea3565b836001600160a01b03168c6001600160a01b03167f0d7d75e01ab95780d3cd1c8ec0dd6c2ce19e3a20427eec8bf53283b6fb8e95f08c8881518110610daa57fe5b602002602001015184604051610dc1929190615d2e565b60405180910390a350505050806001019050610c6e565b50505050610de46117c9565b50505050565b610df2611719565b610dfa6117d0565b82610e0481611ec5565b610e1083518351611db9565b60005b8351811015610eae576000848281518110610e2a57fe5b60200260200101519050610e5660006001600160a01b0316826001600160a01b0316141561013561054b565b838281518110610e6257fe5b6020908102919091018101516000888152600a835260408082206001600160a01b0395861683529093529190912080546001600160a01b03191692909116919091179055600101610e13565b506000610eba85611ef6565b90506002816002811115610eca57fe5b1415610f1857610ee0845160021461020c61054b565b610f138585600081518110610ef157fe5b602002602001015186600181518110610f0657fe5b6020026020010151611f10565b610f40565b6001816002811115610f2657fe5b1415610f3657610f138585611fbc565b610f408585612014565b847ff5847d3f2197b16cdcd2098ec95d0905cd1abdaf415f07bb7cef2bba8ac5dec48585604051610f72929190615ace565b60405180910390a25050610f846117c9565b505050565b610f91611719565b610f996117d0565b81610fa381611ec5565b6000610fae84611ef6565b90506002816002811115610fbe57fe5b141561100c57610fd4835160021461020c61054b565b6110078484600081518110610fe557fe5b602002602001015185600181518110610ffa57fe5b6020026020010151612069565b611034565b600181600281111561101a57fe5b141561102a5761100784846120d7565b6110348484612191565b60005b835181101561109a57600a6000868152602001908152602001600020600085838151811061106157fe5b6020908102919091018101516001600160a01b0316825281019190915260400160002080546001600160a01b0319169055600101611037565b50837f7dcdc6d02ef40c7c1a7046a011b058bd7f988fa14e20a66344f9d4e60657d610846040516110cb9190615abb565b60405180910390a250506105596117c9565b60007f0000000000000000000000000000000000000000000000000000000000000000826040516020016111129291906159be565b604051602081830303815290604052805190602001209050919050565b610de46001858585611140866121f4565b612200565b6001600160a01b031660009081526002602052604090205490565b606061116a611719565b6111726117d0565b835161117d81611ab6565b61118c834211156101fc61054b565b61119886518551611db9565b6111a48787878b612386565b91506000805b87518110156112765760008882815181106111c157fe5b6020026020010151905060008583815181106111d957fe5b602002602001015190506112058884815181106111f257fe5b60200260200101518213156101fb61054b565b600081131561124557885160208a015182916112249185918491611c01565b61122d836118df565b1561123f5761123c85826118ec565b94505b5061126c565b600081121561126c57600081600003905061126a83828c604001518d60600151611cdf565b505b50506001016111aa565b5061128081611985565b505061128a6117c9565b9695505050505050565b60035461010090046001600160a01b031690565b60006112b2610526565b905090565b600080600080856112c781612614565b6000806112d389611ef6565b905060028160028111156112e357fe5b14156112fa576112f38989612632565b9150611325565b600181600281111561130857fe5b1415611318576112f389896126ac565b611322898961271a565b91505b61132e82612732565b965061133982612745565b95506113448261275b565b6000998a52600a60209081526040808c206001600160a01b039b8c168d5290915290992054969995989796909616955050505050565b6113826117d0565b610de46000858585611140866121f4565b7f000000000000000000000000000000000000000000000000000000000000000090565b6113bf611719565b6113c76117d0565b6113cf614c3b565b60005b82518110156114c9578281815181106113e757fe5b6020026020010151915060008260200151905061140381612614565b604083015161141d6114158383612761565b61020961054b565b6000828152600a602090815260408083206001600160a01b038581168552925290912054611450911633146101f661054b565b83516060850151600080611466848787866127bd565b91509150846001600160a01b0316336001600160a01b0316877f6edcaf6241105b4c94c2efdbf3a6b12458eb3d07be3a0e81d24b13c44045fe7a85856040516114b0929190615d2e565b60405180910390a45050505050508060010190506113d2565b505061057e6117c9565b60006112b261282c565b600080826114ea81612614565b6114f3846128c9565b6114fc85611ef6565b925092505b50915091565b60603330146115c1576000306001600160a01b031660003660405161152d9291906159d6565b6000604051808303816000865af19150503d806000811461156a576040519150601f19603f3d011682016040523d82523d6000602084013e61156f565b606091505b50509050806000811461157e57fe5b60046000803e6000516001600160e01b031916637d30e60960e11b81146115a9573d6000803e3d6000fd5b50602060005260043d0380600460203e602081016000f35b60606115cf85858589612386565b9050602081510263fa61cc126020830352600482036024820181fd5b6060806000836115fa81612614565b6060611605866128cf565b909550905061161381612931565b95979096509350505050565b611627611719565b61162f6117d0565b8261163981611ab6565b6001600160a01b0384811660008181526004602090815260408083209488168084529490915290819020805460ff1916861515179055519091907f46961fdb4502b646d5095fba7600486a8ac05041d55cdf0f16ed677180b5cad8906116a0908690615bfc565b60405180910390a350610f846117c9565b60006116bd83836129df565b90505b92915050565b62461bcd60e51b6000908152602060045260076024526642414c23000030600a808404818106603090810160081b95839006959095019082900491820690940160101b939093010160c81b604452606490fd5b61172b6002600054141561019061054b565b6002600055565b60006117496000356001600160e01b0319166110dd565b905061057e6117588233612a0d565b61019161054b565b6040516001600160a01b038216907f94b979b6831a51293e2641426f97747feed46f17779fed9cd18d1ecefcfe92ef90600090a2600380546001600160a01b039092166101000274ffffffffffffffffffffffffffffffffffffffff0019909216919091179055565b6001600055565b6117e36117db611a51565b61019261054b565b565b600069ffffffffffffffffffff8216605084600281111561180257fe5b901b17606085901b6bffffffffffffffffffffffff19161790505b9392505050565b600080600080600080600088606001519050336001600160a01b0316816001600160a01b03161461187657876118615761185c611732565b600197505b61187661186e82336129df565b6101f761054b565b885160208a015160408b01516080909b0151919b909a9992985090965090945092505050565b6118b1836118a986611ae8565b836000612a97565b50610de48482846000611cdf565b6118d2826118cc86611ae8565b83612aed565b610de48482856000611c01565b6001600160a01b03161590565b60008282016116bd848210158361054b565b61190b8385836000612a97565b50610de4828583612aed565b8015610de4576119326001600160a01b038516848484612b1d565b826001600160a01b0316846001600160a01b03167f540a1a3f28340caec336c81d8d7b3df139ee5cdc1839a4f283d7ebb7eaae2d5c8484604051611977929190615aa2565b60405180910390a350505050565b6119948134101561020461054b565b348190038015610559576105593382612b3e565b6001600160a01b039182166000908152600b6020908152604080832093909416825291909152205490565b80156119f3576119ee6119e4611a6e565b421061019361054b565b611a08565b611a086119fe611a92565b42106101a961054b565b6003805460ff19168215151790556040517f9e3a5e37224532dea67b89face185703738a228a6e8a23dee546960180d3be6490611a46908390615bfc565b60405180910390a150565b6000611a5b611a92565b4211806112b257505060035460ff161590565b7f000000000000000000000000000000000000000000000000000000000000000090565b7f000000000000000000000000000000000000000000000000000000000000000090565b336001600160a01b0382161461057e57611ace611732565b611ad881336129df565b61057e5761057e816101f7612bb8565b6000611af3826118df565b611b0557611b0082610548565b6116c0565b6116c0610526565b600080600080611b2085608001516128c9565b90506000611b318660800151611ef6565b90506002816002811115611b4157fe5b1415611b5857611b518683612bec565b9450611b83565b6001816002811115611b6657fe5b1415611b7657611b518683612c9c565b611b808683612d2f565b94505b611b968660000151876060015187612f53565b809450819550505085604001516001600160a01b031686602001516001600160a01b031687608001517f2170c741c41531aec20e7c107c24eecfdd15e69c9bb0a8dd37b1840b9e0b207b8787604051611bf0929190615d2e565b60405180910390a450509193909250565b82611c0b57610de4565b611c14846118df565b15611c9557611c26811561020261054b565b611c358347101561020461054b565b611c3d610526565b6001600160a01b031663d0e30db0846040518263ffffffff1660e01b81526004016000604051808303818588803b158015611c7757600080fd5b505af1158015611c8b573d6000803e3d6000fd5b5050505050610de4565b6000611ca085610548565b90508115611cbd576000611cb78483876001612a97565b90940393505b8315611cd857611cd86001600160a01b038216843087612b1d565b5050505050565b82611ce957610de4565b611cf2846118df565b15611d8257611d04811561020261054b565b611d0c610526565b6001600160a01b0316632e1a7d4d846040518263ffffffff1660e01b8152600401611d379190615c1f565b600060405180830381600087803b158015611d5157600080fd5b505af1158015611d65573d6000803e3d6000fd5b50611d7d925050506001600160a01b03831684612b3e565b610de4565b6000611d8d85610548565b90508115611da557611da0838286612aed565b611cd8565b611cd86001600160a01b0382168486611e4d565b610559818314606761054b565b600080611dd1611393565b6001600160a01b031663d877845c6040518163ffffffff1660e01b815260040160206040518083038186803b158015611e0957600080fd5b505afa158015611e1d573d6000803e3d6000fd5b505050506040513d601f19601f82011682018060405250810190611e419190615864565b905061181d8382612f81565b610f848363a9059cbb60e01b8484604051602401611e6c929190615aa2565b60408051601f198184030181529190526020810180516001600160e01b03166001600160e01b031990931692909217909152612fce565b801561055957610559611eb4611393565b6001600160a01b0384169083611e4d565b611ece81612614565b61057e611eda826128c9565b6001600160a01b0316336001600160a01b0316146101f561054b565b600061ffff605083901c166116c0600382106101f461054b565b611f31816001600160a01b0316836001600160a01b0316141561020a61054b565b611f50816001600160a01b0316836001600160a01b031610606661054b565b60008381526009602052604090208054611f8d906001600160a01b0316158015611f85575060018201546001600160a01b0316155b61020b61054b565b80546001600160a01b039384166001600160a01b03199182161782556001909101805492909316911617905550565b6000828152600860205260408120905b8251811015610de4576000611ffd848381518110611fe657fe5b60200260200101518461306e90919063ffffffff16565b905061200b8161020a61054b565b50600101611fcc565b6000828152600160205260408120905b8251811015610de457600061205284838151811061203e57fe5b6020908102919091010151849060006130d1565b90506120608161020a61054b565b50600101612024565b600080600061207986868661317e565b9250925092506120a361208b84613245565b801561209b575061209b83613245565b61020d61054b565b600095865260096020526040862080546001600160a01b031990811682556001909101805490911690559490945550505050565b6000828152600860205260408120905b8251811015610de45760008382815181106120fe57fe5b6020026020010151905061214a61209b600760008881526020019081526020016000206000846001600160a01b03166001600160a01b0316815260200190815260200160002054613245565b60008581526007602090815260408083206001600160a01b038516845290915281208190556121798483613252565b90506121878161020961054b565b50506001016120e7565b6000828152600160205260408120905b8251811015610de45760008382815181106121b857fe5b6020026020010151905060006121ce8483613359565b90506121dc61209b82613245565b6121e68483613368565b5050508060010190506121a1565b6121fc614c64565b5090565b612208611719565b8361221281612614565b8361221c81611ab6565b612230836000015151846020015151611db9565b606061223f846000015161340a565b9050606061224d8883613498565b905060608060606122628c8c8c8c8c89613529565b92509250925060006122738c611ef6565b9050600281600281111561228357fe5b14156122eb576122e68c8760008151811061229a57fe5b6020026020010151866000815181106122af57fe5b6020026020010151896001815181106122c457fe5b6020026020010151886001815181106122d957fe5b60200260200101516136ee565b612314565b60018160028111156122f957fe5b141561230a576122e68c878661372d565b6123148c8561379a565b6000808e600181111561232357fe5b1490508b6001600160a01b03168d7fe5ce249087ce04f05a957192435400fd97868dba0e6a4b4c049abf8af80dae788961235d88866137e3565b8760405161236d93929190615b2d565b60405180910390a3505050505050505050611cd86117c9565b606083516001600160401b038111801561239f57600080fd5b506040519080825280602002602001820160405280156123c9578160200160208202803683370190505b5090506123d4614c8e565b6123dc614beb565b60008060005b8951811015612607578981815181106123f757fe5b6020026020010151945060008951866020015110801561241b575089518660400151105b905061242881606461054b565b600061244a8b88602001518151811061243d57fe5b6020026020010151611ae8565b905060006124618c89604001518151811061243d57fe5b9050612484816001600160a01b0316836001600160a01b031614156101fd61054b565b60608801516124d45761249c600085116101fe61054b565b60006124a98b848461388a565b6001600160a01b0316876001600160a01b03161490506124cb816101ff61054b565b50606088018590525b87516080880152868a60018111156124e857fe5b908160018111156124f557fe5b9052506001600160a01b0380831660208901528181166040808a01919091526060808b0151908a015260808a01516101008a01528c51821660c08a01528c01511660e088015260008061254789611b0d565b919850925090506125598c85856138ac565b975061258d612567836138c6565b8c8c602001518151811061257757fe5b60200260200101516138da90919063ffffffff16565b8b8b602001518151811061259d57fe5b6020026020010181815250506125db6125b5826138c6565b8c8c60400151815181106125c557fe5b602002602001015161390e90919063ffffffff16565b8b8b60400151815181106125eb57fe5b60200260200101818152505050505050508060010190506123e2565b5050505050949350505050565b60008181526005602052604090205461057e9060ff166101f461054b565b600080600080600061264387613942565b945094509450945050836001600160a01b0316866001600160a01b0316141561267257829450505050506116c0565b816001600160a01b0316866001600160a01b031614156126975793506116c092505050565b6126a26102096116c6565b5050505092915050565b60008281526007602090815260408083206001600160a01b0385168452909152812054816126d9826139b8565b806126f7575060008581526008602052604090206126f790856139ca565b9050806127125761270785612614565b6127126102096116c6565b509392505050565b60008281526001602052604081206109e08184613359565b6dffffffffffffffffffffffffffff1690565b60701c6dffffffffffffffffffffffffffff1690565b60e01c90565b60008061276d84611ef6565b9050600281600281111561277d57fe5b14156127955761278d84846139eb565b9150506116c0565b60018160028111156127a357fe5b14156127b35761278d8484613a3c565b61278d8484613a54565b60008060006127cb86611ef6565b905060008760028111156127db57fe5b14156127f7576127ed86828787613a6c565b9250925050612823565b600187600281111561280557fe5b1415612817576127ed86828787613ae7565b6127ed86828787613b63565b94509492505050565b60007f00000000000000000000000000000000000000000000000000000000000000007f00000000000000000000000000000000000000000000000000000000000000007f0000000000000000000000000000000000000000000000000000000000000000612899613bc6565b306040516020016128ae959493929190615cd1565b60405160208183030381529060405280519060200120905090565b60601c90565b60608060006128dd84611ef6565b905060028160028111156128ed57fe5b1415612906576128fc84613bca565b925092505061292c565b600181600281111561291457fe5b1415612923576128fc84613cff565b6128fc84613e24565b915091565b6060600082516001600160401b038111801561294c57600080fd5b50604051908082528060200260200182016040528015612976578160200160208202803683370190505b5091506000905060005b825181101561150157600084828151811061299757fe5b602002602001015190506129aa81613f1e565b8483815181106129b657fe5b6020026020010181815250506129d4836129cf8361275b565b613f39565b925050600101612980565b6001600160a01b03918216600090815260046020908152604080832093909416825291909152205460ff1690565b6003546040516326f8aa2160e21b815260009161010090046001600160a01b031690639be2a88490612a4790869086903090600401615c28565b60206040518083038186803b158015612a5f57600080fd5b505afa158015612a73573d6000803e3d6000fd5b505050506040513d601f19601f820116820180604052508101906116bd919061537b565b600080612aa486866119a8565b9050612abd8380612ab55750848210155b61020161054b565b612ac78185613f50565b9150818103612ae3878783612adb876138c6565b600003613f5f565b5050949350505050565b6000612af984846119a8565b90506000612b0782846118ec565b9050611cd8858583612b18876138c6565b613f5f565b610de4846323b872dd60e01b858585604051602401611e6c93929190615a58565b612b4d814710156101a361054b565b6000826001600160a01b031682604051612b6690610548565b60006040518083038185875af1925050503d8060008114612ba3576040519150601f19603f3d011682016040523d82523d6000602084013e612ba8565b606091505b50509050610f84816101a461054b565b6001600160a01b0382166000908152600260205260409020805460018101909155610f84612be68483613fba565b8361054b565b600080600080612c0986608001518760200151886040015161317e565b92509250925060008087604001516001600160a01b031688602001516001600160a01b03161015612c3e575083905082612c44565b50829050835b612c50888884846140e0565b60408b015160208c01519199509294509092506001600160a01b03918216911610612c8457612c7f81836141dd565b612c8e565b612c8e82826141dd565b909255509295945050505050565b600080612cb1846080015185602001516126ac565b90506000612cc7856080015186604001516126ac565b9050612cd5858584846140e0565b6080880180516000908152600760208181526040808420828e01516001600160a01b03908116865290835281852098909855935183529081528282209a830151909516815298909352919096209590955550929392505050565b60808201516000908152600160209081526040822090840151829182918290612d59908390614218565b90506000612d7488604001518461421890919063ffffffff16565b9050811580612d81575080155b15612d9e57612d938860800151612614565b612d9e6102096116c6565b60001991820191016000612db184614237565b90506060816001600160401b0381118015612dcb57600080fd5b50604051908082528060200260200182016040528015612df5578160200160208202803683370190505b50600060a08c018190529091505b82811015612e75576000612e17878361423b565b9050612e2281613f1e565b838381518110612e2e57fe5b602002602001018181525050612e4b8c60a001516129cf8361275b565b60a08d015281861415612e6057809850612e6c565b84821415612e6c578097505b50600101612e03565b5060405162f64aa560e11b81526001600160a01b038a16906301ec954a90612ea7908d90859089908990600401615d3c565b602060405180830381600087803b158015612ec157600080fd5b505af1158015612ed5573d6000803e3d6000fd5b505050506040513d601f19601f82011682018060405250810190612ef99190615864565b9750600080612f118c600001518d606001518c612f53565b9092509050612f208983614251565b9850612f2c8882614282565b9750612f3987878b614298565b612f4487868a614298565b50505050505050505092915050565b60008080856001811115612f6357fe5b1415612f73575082905081612f79565b50819050825b935093915050565b6000828202612fa5841580612f9e575083858381612f9b57fe5b04145b600361054b565b80612fb45760009150506116c0565b670de0b6b3a76400006000198201046001019150506116c0565b60006060836001600160a01b031683604051612fea91906159e6565b6000604051808303816000865af19150503d8060008114613027576040519150601f19603f3d011682016040523d82523d6000602084013e61302c565b606091505b50915091506000821415613044573d6000803e3d6000fd5b610de4815160001480613066575081806020019051810190613066919061537b565b6101a261054b565b600061307a83836139ca565b6130c957508154600180820184556000848152602080822090930180546001600160a01b0319166001600160a01b038616908117909155855490825282860190935260409020919091556116c0565b5060006116c0565b6001600160a01b03821660009081526002840160205260408120548061315e57505082546040805180820182526001600160a01b03858116808352602080840187815260008781526001808c018452878220965187546001600160a01b0319169616959095178655905194840194909455948201808955908352600288019094529190209190915561181d565b60001901600090815260018086016020526040822001839055905061181d565b600080600080600061319087876142b0565b9150915060006131a083836142e1565b60008a8152600960209081526040808320848452600201909152812080546001820154919750929350906131d3836139b8565b806131e257506131e2826139b8565b8061320357506131f28c876139eb565b801561320357506132038c866139eb565b90508061321e576132138c612614565b61321e6102096116c6565b6132288383614314565b98506132348383614339565b975050505050505093509350939050565b6001600160e01b03161590565b6001600160a01b0381166000908152600183016020526040812054801561334f578354600019808301919081019060009087908390811061328f57fe5b60009182526020909120015487546001600160a01b03909116915081908890859081106132b857fe5b600091825260208083209190910180546001600160a01b0319166001600160a01b0394851617905591831681526001898101909252604090209084019055865487908061330157fe5b60008281526020808220830160001990810180546001600160a01b03191690559092019092556001600160a01b03881682526001898101909152604082209190915594506116c09350505050565b60009150506116c0565b60006116bd8383610209614350565b6001600160a01b0381166000908152600283016020526040812054801561334f57835460001990810160008181526001878101602090815260408084209587018452808420865481546001600160a01b03199081166001600160a01b0392831617835588860180549387019390935588548216875260028d018086528488209a909a5588541690975584905593895593871682529390925281205590506116c0565b60608082516001600160401b038111801561342457600080fd5b5060405190808252806020026020018201604052801561344e578160200160208202803683370190505b50905060005b83518110156107fe5761346c84828151811061243d57fe5b82828151811061347857fe5b6001600160a01b0390921660209283029190910190910152600101613454565b60608060606134a6856128cf565b915091506134b682518551611db9565b6134c6600083511161020f61054b565b60005b8251811015613520576135188582815181106134e157fe5b60200260200101516001600160a01b03168483815181106134fe57fe5b60200260200101516001600160a01b03161461020861054b565b6001016134c9565b50949350505050565b606080606080600061353a86612931565b9150915060006135498b6128c9565b905060008c600181111561355957fe5b146135fc57806001600160a01b03166374f3b0098c8c8c878761357a61438d565b8f604001516040518863ffffffff1660e01b81526004016135a19796959493929190615c47565b600060405180830381600087803b1580156135bb57600080fd5b505af11580156135cf573d6000803e3d6000fd5b505050506040513d6000823e601f3d908101601f191682016040526135f79190810190615309565b613695565b806001600160a01b031663d5c096c48c8c8c878761361861438d565b8f604001516040518863ffffffff1660e01b815260040161363f9796959493929190615c47565b600060405180830381600087803b15801561365957600080fd5b505af115801561366d573d6000803e3d6000fd5b505050506040513d6000823e601f3d908101601f191682016040526136959190810190615309565b80955081965050506136ab875186518651614407565b60008c60018111156136b957fe5b146136d0576136cb898989888861441f565b6136dd565b6136dd8a89898888614565565b955050505096509650969350505050565b60006136fa85846142e1565b6000878152600960209081526040808320848452600201909152902090915061372385846141dd565b9055505050505050565b60005b8251811015610de45781818151811061374557fe5b602002602001015160076000868152602001908152602001600020600085848151811061376e57fe5b6020908102919091018101516001600160a01b0316825281019190915260400160002055600101613730565b6000828152600160205260408120905b8251811015610de4576137db818483815181106137c357fe5b6020026020010151846142989092919063ffffffff16565b6001016137aa565b606082516001600160401b03811180156137fc57600080fd5b50604051908082528060200260200182016040528015613826578160200160208202803683370190505b50905060005b83518110156107fe57826138565783818151811061384657fe5b602002602001015160000361386b565b83818151811061386257fe5b60200260200101515b82828151811061387757fe5b602090810291909101015260010161382c565b60008084600181111561389957fe5b146138a457816109e0565b509092915050565b6000808460018111156138bb57fe5b146107fe57826109e0565b60006121fc600160ff1b83106101a561054b565b60008282016116bd8284128015906138f25750848212155b80613907575060008412801561390757508482125b600061054b565b60008183036116bd8284128015906139265750848213155b8061393b575060008412801561393b57508482135b600161054b565b6000818152600960205260408120805460018201546001600160a01b039182169284929091169082908161397686856142e1565b600081815260028401602052604090208054600182015491995091925061399d8282614314565b96506139a98282614339565b94505050505091939590929450565b60006139c382613245565b1592915050565b6001600160a01b031660009081526001919091016020526040902054151590565b600082815260096020526040812080546001600160a01b0384811691161480613a23575060018101546001600160a01b038481169116145b80156109e0575050506001600160a01b03161515919050565b60008281526008602052604081206109e081846139ca565b60008281526001602052604081206109e081846146da565b6000806002856002811115613a7d57fe5b1415613a9357613a8e8685856146fb565b613abd565b6001856002811115613aa157fe5b1415613ab257613a8e868585614709565b613abd868585614717565b8215613ad757613ad76001600160a01b0385163385611e4d565b5050600081900394909350915050565b6000806002856002811115613af857fe5b1415613b0e57613b09868585614725565b613b38565b6001856002811115613b1c57fe5b1415613b2d57613b09868585614733565b613b38868585614741565b8215613b5357613b536001600160a01b038516333086612b1d565b5090946000869003945092505050565b6000806002856002811115613b7457fe5b1415613b8c57613b8586858561474f565b9050613bb9565b6001856002811115613b9a57fe5b1415613bab57613b8586858561475f565b613bb686858561476f565b90505b6000915094509492505050565b4690565b606080600080600080613bdc87613942565b92975090955093509150506001600160a01b0384161580613c0457506001600160a01b038216155b15613c2d575050604080516000808252602082019081528183019092529450925061292c915050565b60408051600280825260608201835290916020830190803683370190505095508386600081518110613c5b57fe5b60200260200101906001600160a01b031690816001600160a01b0316815250508186600181518110613c8957fe5b6001600160a01b03929092166020928302919091018201526040805160028082526060820183529092909190830190803683370190505094508285600081518110613cd057fe5b6020026020010181815250508085600181518110613cea57fe5b60200260200101818152505050505050915091565b60008181526008602052604090206060908190613d1b81614237565b6001600160401b0381118015613d3057600080fd5b50604051908082528060200260200182016040528015613d5a578160200160208202803683370190505b50925082516001600160401b0381118015613d7457600080fd5b50604051908082528060200260200182016040528015613d9e578160200160208202803683370190505b50915060005b8351811015613e1d576000613db9838361477f565b905080858381518110613dc857fe5b6001600160a01b03928316602091820292909201810191909152600088815260078252604080822093851682529290915220548451859084908110613e0957fe5b602090810291909101015250600101613da4565b5050915091565b60008181526001602052604090206060908190613e4081614237565b6001600160401b0381118015613e5557600080fd5b50604051908082528060200260200182016040528015613e7f578160200160208202803683370190505b50925082516001600160401b0381118015613e9957600080fd5b50604051908082528060200260200182016040528015613ec3578160200160208202803683370190505b50915060005b8351811015613e1d57613edc82826147ac565b858381518110613ee857fe5b60200260200101858481518110613efb57fe5b60209081029190910101919091526001600160a01b039091169052600101613ec9565b6000613f2982612745565b613f3283612732565b0192915050565b600081831015613f4957816116bd565b5090919050565b6000818310613f4957816116bd565b6001600160a01b038085166000818152600b602090815260408083209488168084529490915290819020859055517f18e1ea4139e68413d7d08aa752e71568e36b2c5bf940893314c2c5b01eaa0c4290611977908590615c1f565b600080613fc56147d0565b905042811015613fd95760009150506116c0565b6000613fe36147dc565b905080613ff5576000925050506116c0565b6000816140006148ed565b805160209182012060405161401c939233918a91899101615ca5565b604051602081830303815290604052805190602001209050600061403f8261493c565b9050600080600061404e614958565b9250925092506000600185858585604051600081526020016040526040516140799493929190615cfd565b6020604051602081039080840390855afa15801561409b573d6000803e3d6000fd5b5050604051601f1901519150506001600160a01b038116158015906140d157508a6001600160a01b0316816001600160a01b0316145b9b9a5050505050505050505050565b6000806000806140ef86613f1e565b905060006140fc86613f1e565b905061411361410a8861275b565b6129cf8861275b565b60a08a015260405163274b044360e21b81526001600160a01b03891690639d2c110c90614148908c9086908690600401615d75565b602060405180830381600087803b15801561416257600080fd5b505af1158015614176573d6000803e3d6000fd5b505050506040513d601f19601f8201168201806040525081019061419a9190615864565b92506000806141b28b600001518c6060015187612f53565b90925090506141c18983614251565b96506141cd8882614282565b9550505050509450945094915050565b6000806141f56141ec8561275b565b6129cf8561275b565b90506109e061420385612732565b61420c85612732565b8363ffffffff1661497f565b6001600160a01b03166000908152600291909101602052604090205490565b5490565b6000908152600191820160205260409020015490565b6000806142678361426186612732565b906118ec565b9050600061427485612745565b90504361128a83838361498d565b6000806142678361429286612732565b906149c6565b60009182526001928301602052604090912090910155565b600080826001600160a01b0316846001600160a01b0316106142d35782846142d6565b83835b915091509250929050565b600082826040516020016142f6929190615a02565b60405160208183030381529060405280519060200120905092915050565b60006116bd61432284612732565b61432b84612732565b6143348661275b565b61498d565b60006116bd61434784612745565b61432b84612745565b6001600160a01b03821660009081526002840160205260408120546143778115158461054b565b614384856001830361423b565b95945050505050565b6000614397611393565b6001600160a01b03166355c676286040518163ffffffff1660e01b815260040160206040518083038186803b1580156143cf57600080fd5b505afa1580156143e3573d6000803e3d6000fd5b505050506040513d601f19601f820116820180604052508101906112b29190615864565b610f84828414801561441857508183145b606761054b565b606083516001600160401b038111801561443857600080fd5b50604051908082528060200260200182016040528015614462578160200160208202803683370190505b50905060005b85515181101561455b57600084828151811061448057fe5b602002602001015190506144b08760200151838151811061449d57fe5b60200260200101518210156101f961054b565b6000876000015183815181106144c257fe5b602002602001015190506144dc81838b8b60600151611cdf565b60008584815181106144ea57fe5b6020026020010151905061450661450083611ae8565b82611ea3565b61453561451384836118ec565b89868151811061451f57fe5b602002602001015161428290919063ffffffff16565b85858151811061454157fe5b602002602001018181525050505050806001019050614468565b5095945050505050565b6060600084516001600160401b038111801561458057600080fd5b506040519080825280602002602001820160405280156145aa578160200160208202803683370190505b50915060005b8651518110156146d05760008582815181106145c857fe5b602002602001015190506145f8886020015183815181106145e557fe5b60200260200101518211156101fa61054b565b60008860000151838151811061460a57fe5b6020026020010151905061462481838c8c60600151611c01565b61462d816118df565b1561463f5761463c84836118ec565b93505b600086848151811061464d57fe5b6020026020010151905061466361450083611ae8565b808310156146825761467d8382038a868151811061451f57fe5b6146aa565b6146aa8184038a868151811061469457fe5b602002602001015161425190919063ffffffff16565b8685815181106146b657fe5b6020026020010181815250505050508060010190506145b0565b5061455b81611985565b6001600160a01b031660009081526002919091016020526040902054151590565b610de483836149dc84614a17565b610de483836149dc84614ac2565b610de483836149dc84614b1d565b610de48383614b6c84614a17565b610de48383614b6c84614ac2565b610de48383614b6c84614b1d565b60006109e08484614b8d85614a17565b60006109e08484614b8d85614ac2565b60006109e08484614b8d85614b1d565b600082600001828154811061479057fe5b6000918252602090912001546001600160a01b03169392505050565b600090815260019182016020526040902080549101546001600160a01b0390911691565b60006112b26000614ba7565b6000803560e01c8063b95cac28811461482457638bdb3913811461484c576352bbbe2981146148745763945bcec9811461489c5763fa6e671d81146148c457600092506148e8565b7f3f7b71252bd19113ff48c19c6e004a9bcfcca320a0d74d58e85877cbd7dcae5892506148e8565b7f8bbc57f66ea936902f50a71ce12b92c43f3c5340bb40c27c4e90ab84eeae335392506148e8565b7fe192dcbc143b1e244ad73b813fd3c097b832ad260a157340b4e5e5beda067abe92506148e8565b7f9bfc43a4d98313c6766986ffd7c916c7481566d9f224c6819af0a53388aced3a92506148e8565b7fa3f865aa351e51cfeb40f5178d1564bb629fe9030b83caf6361d1baaf5b90b5a92505b505090565b60606000368080601f0160208091040260200160405190810160405280939291908181526020018383808284376000920191909152505082519293505050608010156105485760803603815290565b600061494661282c565b82604051602001611112929190615a29565b60008060006149676020614ba7565b92506149736040614ba7565b91506108406060614ba7565b60e01b60709190911b010190565b60008383016149bb8582108015906149b357506e01000000000000000000000000000082105b61020e61054b565b61438485858561497f565b60006149d683831115600161054b565b50900390565b6000806149ec8361429286612732565b905060006149fd8461426187612745565b90506000614a0a8661275b565b905061128a83838361498d565b6000806000806000614a2889613942565b9450509350935093506000836001600160a01b0316896001600160a01b03161415614a73576000614a5d84898b63ffffffff16565b9050614a698185614bb1565b9093509050614a95565b6000614a8383898b63ffffffff16565b9050614a8f8184614bb1565b90925090505b614a9f83836141dd565b8555614aab8383614bcd565b600190950194909455509192505050949350505050565b600080614acf86866126ac565b90506000614ae182858763ffffffff16565b60008881526007602090815260408083206001600160a01b038b16845290915290208190559050614b128183614bb1565b979650505050505050565b600084815260016020526040812081614b368287613359565b90506000614b4882868863ffffffff16565b9050614b558388836130d1565b50614b608183614bb1565b98975050505050505050565b600080614b7c8361426186612732565b905060006149fd8461429287612745565b600080614b9984612732565b90504361438482858361498d565b3601607f19013590565b6000614bbc82612745565b614bc584612745565b039392505050565b60006116bd614bdb84612745565b614be484612745565b600061497f565b60408051610120810190915280600081526000602082018190526040820181905260608083018290526080830182905260a0830182905260c0830182905260e08301919091526101009091015290565b604080516080810190915280600081526000602082018190526040820181905260609091015290565b60405180608001604052806060815260200160608152602001606081526020016000151581525090565b6040518060a0016040528060008019168152602001600081526020016000815260200160008152602001606081525090565b80356116c081615e39565b600082601f830112614cdb578081fd5b8135614cee614ce982615de4565b615dbe565b818152915060208083019084810181840286018201871015614d0f57600080fd5b60005b84811015614d37578135614d2581615e39565b84529282019290820190600101614d12565b505050505092915050565b600082601f830112614d52578081fd5b8135614d60614ce982615de4565b818152915060208083019084810160005b84811015614d37578135870160a080601f19838c03011215614d9257600080fd5b614d9b81615dbe565b8583013581526040808401358783015260608085013582840152608091508185013581840152508284013592506001600160401b03831115614ddc57600080fd5b614dea8c8885870101614ec9565b90820152865250509282019290820190600101614d71565b600082601f830112614e12578081fd5b8135614e20614ce982615de4565b818152915060208083019084810181840286018201871015614e4157600080fd5b60005b84811015614d3757813584529282019290820190600101614e44565b600082601f830112614e70578081fd5b8151614e7e614ce982615de4565b818152915060208083019084810181840286018201871015614e9f57600080fd5b60005b84811015614d3757815184529282019290820190600101614ea2565b80356116c081615e4e565b600082601f830112614ed9578081fd5b81356001600160401b03811115614eee578182fd5b614f01601f8201601f1916602001615dbe565b9150808252836020828501011115614f1857600080fd5b8060208401602084013760009082016020015292915050565b80356116c081615e5c565b8035600281106116c057600080fd5b8035600481106116c057600080fd5b600060808284031215614f6b578081fd5b614f756080615dbe565b905081356001600160401b0380821115614f8e57600080fd5b614f9a85838601614ccb565b83526020840135915080821115614fb057600080fd5b614fbc85838601614e02565b60208401526040840135915080821115614fd557600080fd5b50614fe284828501614ec9565b604083015250614ff58360608401614ebe565b606082015292915050565b600060808284031215615011578081fd5b61501b6080615dbe565b9050813561502881615e39565b8152602082013561503881615e4e565b6020820152604082013561504b81615e39565b60408201526060820135614ff581615e4e565b60006020828403121561506f578081fd5b81356116bd81615e39565b6000806040838503121561508c578081fd5b823561509781615e39565b915060208301356150a781615e39565b809150509250929050565b6000806000606084860312156150c6578081fd5b83356150d181615e39565b925060208401356150e181615e39565b915060408401356150f181615e4e565b809150509250925092565b6000806040838503121561510e578182fd5b823561511981615e39565b915060208301356001600160401b03811115615133578182fd5b61513f85828601614ccb565b9150509250929050565b6000602080838503121561515b578182fd5b82356001600160401b03811115615170578283fd5b8301601f81018513615180578283fd5b803561518e614ce982615de4565b818152838101908385016080808502860187018a10156151ac578788fd5b8795505b848610156152155780828b0312156151c6578788fd5b6151cf81615dbe565b6151d98b84614f31565b8152878301358882015260406151f18c828601614cc0565b908201526060838101359082015284526001959095019492860192908101906151b0565b509098975050505050505050565b60006020808385031215615235578182fd5b82356001600160401b0381111561524a578283fd5b8301601f8101851361525a578283fd5b8035615268614ce982615de4565b8181528381019083850160a0808502860187018a1015615286578788fd5b8795505b848610156152155780828b0312156152a0578788fd5b6152a981615dbe565b6152b38b84614f4b565b81526152c18b898501614cc0565b818901526040838101359082015260606152dd8c828601614cc0565b9082015260806152ef8c858301614cc0565b90820152845260019590950194928601929081019061528a565b6000806040838503121561531b578182fd5b82516001600160401b0380821115615331578384fd5b61533d86838701614e60565b93506020850151915080821115615352578283fd5b5061513f85828601614e60565b600060208284031215615370578081fd5b81356116bd81615e4e565b60006020828403121561538c578081fd5b81516116bd81615e4e565b6000602082840312156153a8578081fd5b5035919050565b600080600080608085870312156153c4578182fd5b8435935060208501356153d681615e39565b925060408501356153e681615e39565b915060608501356001600160401b03811115615400578182fd5b61540c87828801614f5a565b91505092959194509250565b6000806040838503121561542a578182fd5b8235915060208301356001600160401b03811115615133578182fd5b60008060006060848603121561545a578081fd5b833592506020808501356001600160401b0380821115615478578384fd5b61548488838901614ccb565b94506040870135915080821115615499578384fd5b508501601f810187136154aa578283fd5b80356154b8614ce982615de4565b81815283810190838501858402850186018b10156154d4578687fd5b8694505b838510156154ff5780356154eb81615e39565b8352600194909401939185019185016154d8565b5080955050505050509250925092565b60008060408385031215615521578182fd5b8235915060208301356150a781615e39565b600060208284031215615544578081fd5b81356001600160e01b0319811681146116bd578182fd5b60008060008060808587031215615570578182fd5b843561557b81615e39565b935060208501356001600160401b0380821115615596578384fd5b6155a288838901614ccb565b945060408701359150808211156155b7578384fd5b6155c388838901614e02565b935060608701359150808211156155d8578283fd5b5061540c87828801614ec9565b6000602082840312156155f6578081fd5b81356116bd81615e5c565b60008060008060e08587031215615616578182fd5b6156208686614f3c565b935060208501356001600160401b038082111561563b578384fd5b61564788838901614d42565b9450604087013591508082111561565c578384fd5b5061566987828801614ccb565b9250506156798660608701615000565b905092959194509250565b600080600080600080610120878903121561569d578384fd5b6156a78888614f3c565b95506020808801356001600160401b03808211156156c3578687fd5b6156cf8b838c01614d42565b975060408a01359150808211156156e4578687fd5b6156f08b838c01614ccb565b96506156ff8b60608c01615000565b955060e08a0135915080821115615714578485fd5b508801601f81018a13615725578384fd5b8035615733614ce982615de4565b81815283810190838501858402850186018e101561574f578788fd5b8794505b83851015615771578035835260019490940193918501918501615753565b50809650505050505061010087013590509295509295509295565b60008060008060e085870312156157a1578182fd5b84356001600160401b03808211156157b7578384fd5b9086019060c082890312156157ca578384fd5b6157d460c0615dbe565b823581526157e58960208501614f3c565b602082015260408301356157f881615e39565b604082015261580a8960608501614cc0565b60608201526080830135608082015260a08301358281111561582a578586fd5b6158368a828601614ec9565b60a08301525080965050505061584f8660208701615000565b939693955050505060a08201359160c0013590565b600060208284031215615875578081fd5b5051919050565b6001600160a01b03169052565b6000815180845260208085019450808401835b838110156158c15781516001600160a01b03168752958201959082019060010161589c565b509495945050505050565b6000815180845260208085019450808401835b838110156158c1578151875295820195908201906001016158df565b60008151808452615913816020860160208601615e03565b601f01601f19169290920160200192915050565b600061012082516002811061593857fe5b80855250602083015161594e602086018261587c565b506040830151615961604086018261587c565b50606083015160608501526080830151608085015260a083015160a085015260c083015161599260c086018261587c565b5060e08301516159a560e086018261587c565b5061010080840151828287015261128a838701826158fb565b9182526001600160e01b031916602082015260240190565b6000828483379101908152919050565b600082516159f8818460208701615e03565b9190910192915050565b6bffffffffffffffffffffffff19606093841b811682529190921b16601482015260280190565b61190160f01b81526002810192909252602282015260420190565b6001600160a01b0391909116815260200190565b6001600160a01b039384168152919092166020820152604081019190915260600190565b6001600160a01b038316815260408101615a9583615e2f565b8260208301529392505050565b6001600160a01b03929092168252602082015260400190565b6000602082526116bd6020830184615889565b600060408252615ae16040830185615889565b828103602084810191909152845180835285820192820190845b81811015615b205784516001600160a01b031683529383019391830191600101615afb565b5090979650505050505050565b600060608252615b406060830186615889565b8281036020840152615b5281866158cc565b9050828103604084015261128a81856158cc565b600060808252615b796080830187615889565b8281036020840152615b8b81876158cc565b90508281036040840152615b9f81866158cc565b90508281036060840152614b1281856158fb565b600060608252615bc66060830186615889565b8281036020840152615bd881866158cc565b915050826040830152949350505050565b6000602082526116bd60208301846158cc565b901515815260200190565b92151583526020830191909152604082015260600190565b90815260200190565b9283526001600160a01b03918216602084015216604082015260600190565b60008882526001600160a01b03808916602084015280881660408401525060e06060830152615c7960e08301876158cc565b8560808401528460a084015282810360c0840152615c9781856158fb565b9a9950505050505050505050565b94855260208501939093526001600160a01b039190911660408401526060830152608082015260a00190565b9485526020850193909352604084019190915260608301526001600160a01b0316608082015260a00190565b93845260ff9290921660208401526040830152606082015260800190565b60208101615d2883615e2f565b91905290565b918252602082015260400190565b600060808252615d4f6080830187615927565b8281036020840152615d6181876158cc565b604084019590955250506060015292915050565b600060608252615d886060830186615927565b60208301949094525060400152919050565b938452602084019290925260408301526001600160a01b0316606082015260800190565b6040518181016001600160401b0381118282101715615ddc57600080fd5b604052919050565b60006001600160401b03821115615df9578081fd5b5060209081020190565b60005b83811015615e1e578181015183820152602001615e06565b83811115610de45750506000910152565b6003811061057e57fe5b6001600160a01b038116811461057e57600080fd5b801515811461057e57600080fd5b6003811061057e57600080fdfea26469706673582212208733a0f527195cc89516619189a53501ef1515fad1ba270abc56f5703af0bde564736f6c6343000701003360c060405234801561001057600080fd5b50604051610b5c380380610b5c83398101604081905261002f9161004d565b30608052600160005560601b6001600160601b03191660a05261007b565b60006020828403121561005e578081fd5b81516001600160a01b0381168114610074578182fd5b9392505050565b60805160a05160601c610ab66100a66000398061040352806105095250806102975250610ab66000f3fe608060405234801561001057600080fd5b50600436106100935760003560e01c8063851c1bb311610066578063851c1bb3146100f1578063aaabadc514610104578063d877845c14610119578063e42abf3514610121578063fbfa77cf1461014157610093565b806338e9922e1461009857806355c67628146100ad5780636b6b9f69146100cb5780636daefab6146100de575b600080fd5b6100ab6100a636600461092a565b610149565b005b6100b56101a8565b6040516100c29190610a1c565b60405180910390f35b6100ab6100d936600461092a565b6101ae565b6100ab6100ec366004610777565b610201565b6100b56100ff3660046108ca565b610293565b61010c6102e5565b6040516100c291906109ab565b6100b56102f4565b61013461012f3660046107f8565b6102fa565b6040516100c291906109d8565b61010c610401565b610151610425565b6101686706f05b59d3b20000821115610258610456565b60018190556040517fa9ba3ffe0b6c366b81232caab38605a0699ad5398d6cce76f91ee809e322dafc9061019d908390610a1c565b60405180910390a150565b60015490565b6101b6610425565b6101cc662386f26fc10000821115610259610456565b60028190556040517f5a0b7386237e7f07fa741efc64e59c9387d2cccafec760efed4d53387f20e19a9061019d908390610a1c565b610209610468565b610211610425565b61021b8483610481565b60005b8481101561028357600086868381811061023457fe5b9050602002016020810190610249919061090e565b9050600085858481811061025957fe5b6020029190910135915061027990506001600160a01b038316858361048e565b505060010161021e565b5061028c6104fe565b5050505050565b60007f0000000000000000000000000000000000000000000000000000000000000000826040516020016102c892919061095a565b604051602081830303815290604052805190602001209050919050565b60006102ef610505565b905090565b60025490565b6060815167ffffffffffffffff8111801561031457600080fd5b5060405190808252806020026020018201604052801561033e578160200160208202803683370190505b50905060005b82518110156103fb5782818151811061035957fe5b60200260200101516001600160a01b03166370a08231306040518263ffffffff1660e01b815260040161038c91906109ab565b60206040518083038186803b1580156103a457600080fd5b505afa1580156103b8573d6000803e3d6000fd5b505050506040513d601f19601f820116820180604052508101906103dc9190610942565b8282815181106103e857fe5b6020908102919091010152600101610344565b50919050565b7f000000000000000000000000000000000000000000000000000000000000000081565b600061043c6000356001600160e01b031916610293565b905061045361044b8233610598565b610191610456565b50565b81610464576104648161062a565b5050565b61047a60026000541415610190610456565b6002600055565b6104648183146067610456565b6104f98363a9059cbb60e01b84846040516024016104ad9291906109bf565b60408051601f198184030181529190526020810180517bffffffffffffffffffffffffffffffffffffffffffffffffffffffff166001600160e01b03199093169290921790915261067d565b505050565b6001600055565b60007f00000000000000000000000000000000000000000000000000000000000000006001600160a01b031663aaabadc56040518163ffffffff1660e01b815260040160206040518083038186803b15801561056057600080fd5b505afa158015610574573d6000803e3d6000fd5b505050506040513d601f19601f820116820180604052508101906102ef91906108f2565b60006105a2610505565b6001600160a01b0316639be2a8848484306040518463ffffffff1660e01b81526004016105d193929190610a25565b60206040518083038186803b1580156105e957600080fd5b505afa1580156105fd573d6000803e3d6000fd5b505050506040513d601f19601f8201168201806040525081019061062191906108a3565b90505b92915050565b62461bcd60e51b6000908152602060045260076024526642414c23000030600a808404818106603090810160081b95839006959095019082900491820690940160101b939093010160c81b604452606490fd5b60006060836001600160a01b0316836040516106999190610972565b6000604051808303816000865af19150503d80600081146106d6576040519150601f19603f3d011682016040523d82523d6000602084013e6106db565b606091505b509150915060008214156106f3573d6000803e3d6000fd5b61071d81516000148061071557508180602001905181019061071591906108a3565b6101a2610456565b50505050565b60008083601f840112610734578182fd5b50813567ffffffffffffffff81111561074b578182fd5b602083019150836020808302850101111561076557600080fd5b9250929050565b803561062481610a6b565b60008060008060006060868803121561078e578081fd5b853567ffffffffffffffff808211156107a5578283fd5b6107b189838a01610723565b909750955060208801359150808211156107c9578283fd5b506107d688828901610723565b90945092505060408601356107ea81610a6b565b809150509295509295909350565b6000602080838503121561080a578182fd5b823567ffffffffffffffff80821115610821578384fd5b818501915085601f830112610834578384fd5b813581811115610842578485fd5b8381029150610852848301610a44565b8181528481019084860184860187018a101561086c578788fd5b8795505b83861015610896576108828a8261076c565b835260019590950194918601918601610870565b5098975050505050505050565b6000602082840312156108b4578081fd5b815180151581146108c3578182fd5b9392505050565b6000602082840312156108db578081fd5b81356001600160e01b0319811681146108c3578182fd5b600060208284031215610903578081fd5b81516108c381610a6b565b60006020828403121561091f578081fd5b81356108c381610a6b565b60006020828403121561093b578081fd5b5035919050565b600060208284031215610953578081fd5b5051919050565b9182526001600160e01b031916602082015260240190565b60008251815b818110156109925760208186018101518583015201610978565b818111156109a05782828501525b509190910192915050565b6001600160a01b0391909116815260200190565b6001600160a01b03929092168252602082015260400190565b6020808252825182820181905260009190848201906040850190845b81811015610a10578351835292840192918401916001016109f4565b50909695505050505050565b90815260200190565b9283526001600160a01b03918216602084015216604082015260600190565b60405181810167ffffffffffffffff81118282101715610a6357600080fd5b604052919050565b6001600160a01b038116811461045357600080fdfea2646970667358221220e05bb1ca209c41cbd55a8a5cb4ffb6a39c1ac50b3ac1d86b70d642eec1ac37bd64736f6c63430007010033",
  "linkReferences": {},
  "deployedLinkReferences": {}
}