{
  "contracts/mocks/Reverter.sol": {
    "Reverter": {
      "abi": [
        {
          "inputs": [],
          "name": "fail",
          "outputs": [],
          "stateMutability": "pure",
          "type": "function"
        }
      ],
      "evm": {
        "bytecode": {
          "linkReferences": {},
          "object": "6080604052348015600f57600080fd5b50606b80601d6000396000f3fe6080604052348015600f57600080fd5b506004361060285760003560e01c8063a9cc471814602d575b600080fd5b60336028565b00fea2646970667358221220e86cd5c1c53d8c524aeed297debfcea6c0bc28b83b76d7703c1f3c78aa6cd71a64736f6c63430008030033",
          "opcodes": "PUSH1 0x80 PUSH1 0x40 MSTORE CALLVALUE DUP1 ISZERO PUSH1 0xF JUMPI PUSH1 0x0 DUP1 REVERT JUMPDEST POP PUSH1 0x6B DUP1 PUSH1 0x1D PUSH1 0x0 CODECOPY PUSH1 0x0 RETURN INVALID PUSH1 0x80 PUSH1 0x40 MSTORE CALLVALUE DUP1 ISZERO PUSH1 0xF JUMPI PUSH1 0x0 DUP1 REVERT JUMPDEST POP PUSH1 0x4 CALLDATASIZE LT PUSH1 0x28 JUMPI PUSH1 0x0 CALLDATALOAD PUSH1 0xE0 SHR DUP1 PUSH4 0xA9CC4718 EQ PUSH1 0x2D JUMPI JUMPDEST PUSH1 0x0 DUP1 REVERT JUMPDEST PUSH1 0x33 PUSH1 0x28 JUMP JUMPDEST STOP INVALID LOG2 PUSH5 0x6970667358 0x22 SLT KECCAK256 0xE8 PUSH13 0xD5C1C53D8C524AEED297DEBFCE 0xA6 0xC0 0xBC 0x28 0xB8 EXTCODESIZE PUSH23 0xD7703C1F3C78AA6CD71A64736F6C634300080300330000 "
        },
        "methodIdentifiers": {
          "fail()": "a9cc4718"
        }
      }
    }
  }
}