{
  "_format": "hh-sol-artifact-1",
  "contractName": "WeightedPool",
  "sourceName": "contracts/balancer-core-v2/pools/weighted/WeightedPool.sol",
  "abi": [
    {
      "inputs": [
        {
          "internalType": "contract IVault",
          "name": "vault",
          "type": "address"
        },
        {
          "internalType": "string",
          "name": "name",
          "type": "string"
        },
        {
          "internalType": "string",
          "name": "symbol",
          "type": "string"
        },
        {
          "internalType": "contract IERC20[]",
          "name": "tokens",
          "type": "address[]"
        },
        {
          "internalType": "uint256[]",
          "name": "normalizedWeights",
          "type": "uint256[]"
        },
        {
          "internalType": "uint256",
          "name": "swapFeePercentage",
          "type": "uint256"
        },
        {
          "internalType": "uint256",
          "name": "pauseWindowDuration",
          "type": "uint256"
        },
        {
          "internalType": "uint256",
          "name": "bufferPeriodDuration",
          "type": "uint256"
        },
        {
          "internalType": "address",
          "name": "owner",
          "type": "address"
        }
      ],
      "stateMutability": "nonpayable",
      "type": "constructor"
    },
    {
      "anonymous": false,
      "inputs": [
        {
          "indexed": true,
          "internalType": "address",
          "name": "owner",
          "type": "address"
        },
        {
          "indexed": true,
          "internalType": "address",
          "name": "spender",
          "type": "address"
        },
        {
          "indexed": false,
          "internalType": "uint256",
          "name": "value",
          "type": "uint256"
        }
      ],
      "name": "Approval",
      "type": "event"
    },
    {
      "anonymous": false,
      "inputs": [
        {
          "indexed": false,
          "internalType": "bool",
          "name": "paused",
          "type": "bool"
        }
      ],
      "name": "PausedStateChanged",
      "type": "event"
    },
    {
      "anonymous": false,
      "inputs": [
        {
          "indexed": false,
          "internalType": "uint256",
          "name": "swapFeePercentage",
          "type": "uint256"
        }
      ],
      "name": "SwapFeePercentageChanged",
      "type": "event"
    },
    {
      "anonymous": false,
      "inputs": [
        {
          "indexed": true,
          "internalType": "address",
          "name": "from",
          "type": "address"
        },
        {
          "indexed": true,
          "internalType": "address",
          "name": "to",
          "type": "address"
        },
        {
          "indexed": false,
          "internalType": "uint256",
          "name": "value",
          "type": "uint256"
        }
      ],
      "name": "Transfer",
      "type": "event"
    },
    {
      "inputs": [],
      "name": "DOMAIN_SEPARATOR",
      "outputs": [
        {
          "internalType": "bytes32",
          "name": "",
          "type": "bytes32"
        }
      ],
      "stateMutability": "view",
      "type": "function"
    },
    {
      "inputs": [
        {
          "internalType": "address",
          "name": "owner",
          "type": "address"
        },
        {
          "internalType": "address",
          "name": "spender",
          "type": "address"
        }
      ],
      "name": "allowance",
      "outputs": [
        {
          "internalType": "uint256",
          "name": "",
          "type": "uint256"
        }
      ],
      "stateMutability": "view",
      "type": "function"
    },
    {
      "inputs": [
        {
          "internalType": "address",
          "name": "spender",
          "type": "address"
        },
        {
          "internalType": "uint256",
          "name": "amount",
          "type": "uint256"
        }
      ],
      "name": "approve",
      "outputs": [
        {
          "internalType": "bool",
          "name": "",
          "type": "bool"
        }
      ],
      "stateMutability": "nonpayable",
      "type": "function"
    },
    {
      "inputs": [
        {
          "internalType": "address",
          "name": "account",
          "type": "address"
        }
      ],
      "name": "balanceOf",
      "outputs": [
        {
          "internalType": "uint256",
          "name": "",
          "type": "uint256"
        }
      ],
      "stateMutability": "view",
      "type": "function"
    },
    {
      "inputs": [],
      "name": "decimals",
      "outputs": [
        {
          "internalType": "uint8",
          "name": "",
          "type": "uint8"
        }
      ],
      "stateMutability": "pure",
      "type": "function"
    },
    {
      "inputs": [
        {
          "internalType": "address",
          "name": "spender",
          "type": "address"
        },
        {
          "internalType": "uint256",
          "name": "amount",
          "type": "uint256"
        }
      ],
      "name": "decreaseApproval",
      "outputs": [
        {
          "internalType": "bool",
          "name": "",
          "type": "bool"
        }
      ],
      "stateMutability": "nonpayable",
      "type": "function"
    },
    {
      "inputs": [
        {
          "internalType": "bytes4",
          "name": "selector",
          "type": "bytes4"
        }
      ],
      "name": "getActionId",
      "outputs": [
        {
          "internalType": "bytes32",
          "name": "",
          "type": "bytes32"
        }
      ],
      "stateMutability": "view",
      "type": "function"
    },
    {
      "inputs": [],
      "name": "getAuthorizer",
      "outputs": [
        {
          "internalType": "contract IAuthorizer",
          "name": "",
          "type": "address"
        }
      ],
      "stateMutability": "view",
      "type": "function"
    },
    {
      "inputs": [],
      "name": "getInvariant",
      "outputs": [
        {
          "internalType": "uint256",
          "name": "",
          "type": "uint256"
        }
      ],
      "stateMutability": "view",
      "type": "function"
    },
    {
      "inputs": [],
      "name": "getLastInvariant",
      "outputs": [
        {
          "internalType": "uint256",
          "name": "",
          "type": "uint256"
        }
      ],
      "stateMutability": "view",
      "type": "function"
    },
    {
      "inputs": [],
      "name": "getNormalizedWeights",
      "outputs": [
        {
          "internalType": "uint256[]",
          "name": "",
          "type": "uint256[]"
        }
      ],
      "stateMutability": "view",
      "type": "function"
    },
    {
      "inputs": [],
      "name": "getOwner",
      "outputs": [
        {
          "internalType": "address",
          "name": "",
          "type": "address"
        }
      ],
      "stateMutability": "view",
      "type": "function"
    },
    {
      "inputs": [],
      "name": "getPausedState",
      "outputs": [
        {
          "internalType": "bool",
          "name": "paused",
          "type": "bool"
        },
        {
          "internalType": "uint256",
          "name": "pauseWindowEndTime",
          "type": "uint256"
        },
        {
          "internalType": "uint256",
          "name": "bufferPeriodEndTime",
          "type": "uint256"
        }
      ],
      "stateMutability": "view",
      "type": "function"
    },
    {
      "inputs": [],
      "name": "getPoolId",
      "outputs": [
        {
          "internalType": "bytes32",
          "name": "",
          "type": "bytes32"
        }
      ],
      "stateMutability": "view",
      "type": "function"
    },
    {
      "inputs": [],
      "name": "getRate",
      "outputs": [
        {
          "internalType": "uint256",
          "name": "",
          "type": "uint256"
        }
      ],
      "stateMutability": "view",
      "type": "function"
    },
    {
      "inputs": [],
      "name": "getSwapFeePercentage",
      "outputs": [
        {
          "internalType": "uint256",
          "name": "",
          "type": "uint256"
        }
      ],
      "stateMutability": "view",
      "type": "function"
    },
    {
      "inputs": [],
      "name": "getVault",
      "outputs": [
        {
          "internalType": "contract IVault",
          "name": "",
          "type": "address"
        }
      ],
      "stateMutability": "view",
      "type": "function"
    },
    {
      "inputs": [
        {
          "internalType": "address",
          "name": "spender",
          "type": "address"
        },
        {
          "internalType": "uint256",
          "name": "amount",
          "type": "uint256"
        }
      ],
      "name": "increaseApproval",
      "outputs": [
        {
          "internalType": "bool",
          "name": "",
          "type": "bool"
        }
      ],
      "stateMutability": "nonpayable",
      "type": "function"
    },
    {
      "inputs": [],
      "name": "name",
      "outputs": [
        {
          "internalType": "string",
          "name": "",
          "type": "string"
        }
      ],
      "stateMutability": "view",
      "type": "function"
    },
    {
      "inputs": [
        {
          "internalType": "address",
          "name": "owner",
          "type": "address"
        }
      ],
      "name": "nonces",
      "outputs": [
        {
          "internalType": "uint256",
          "name": "",
          "type": "uint256"
        }
      ],
      "stateMutability": "view",
      "type": "function"
    },
    {
      "inputs": [
        {
          "internalType": "bytes32",
          "name": "poolId",
          "type": "bytes32"
        },
        {
          "internalType": "address",
          "name": "sender",
          "type": "address"
        },
        {
          "internalType": "address",
          "name": "recipient",
          "type": "address"
        },
        {
          "internalType": "uint256[]",
          "name": "balances",
          "type": "uint256[]"
        },
        {
          "internalType": "uint256",
          "name": "lastChangeBlock",
          "type": "uint256"
        },
        {
          "internalType": "uint256",
          "name": "protocolSwapFeePercentage",
          "type": "uint256"
        },
        {
          "internalType": "bytes",
          "name": "userData",
          "type": "bytes"
        }
      ],
      "name": "onExitPool",
      "outputs": [
        {
          "internalType": "uint256[]",
          "name": "",
          "type": "uint256[]"
        },
        {
          "internalType": "uint256[]",
          "name": "",
          "type": "uint256[]"
        }
      ],
      "stateMutability": "nonpayable",
      "type": "function"
    },
    {
      "inputs": [
        {
          "internalType": "bytes32",
          "name": "poolId",
          "type": "bytes32"
        },
        {
          "internalType": "address",
          "name": "sender",
          "type": "address"
        },
        {
          "internalType": "address",
          "name": "recipient",
          "type": "address"
        },
        {
          "internalType": "uint256[]",
          "name": "balances",
          "type": "uint256[]"
        },
        {
          "internalType": "uint256",
          "name": "lastChangeBlock",
          "type": "uint256"
        },
        {
          "internalType": "uint256",
          "name": "protocolSwapFeePercentage",
          "type": "uint256"
        },
        {
          "internalType": "bytes",
          "name": "userData",
          "type": "bytes"
        }
      ],
      "name": "onJoinPool",
      "outputs": [
        {
          "internalType": "uint256[]",
          "name": "",
          "type": "uint256[]"
        },
        {
          "internalType": "uint256[]",
          "name": "",
          "type": "uint256[]"
        }
      ],
      "stateMutability": "nonpayable",
      "type": "function"
    },
    {
      "inputs": [
        {
          "components": [
            {
              "internalType": "enum IVault.SwapKind",
              "name": "kind",
              "type": "uint8"
            },
            {
              "internalType": "contract IERC20",
              "name": "tokenIn",
              "type": "address"
            },
            {
              "internalType": "contract IERC20",
              "name": "tokenOut",
              "type": "address"
            },
            {
              "internalType": "uint256",
              "name": "amount",
              "type": "uint256"
            },
            {
              "internalType": "bytes32",
              "name": "poolId",
              "type": "bytes32"
            },
            {
              "internalType": "uint256",
              "name": "lastChangeBlock",
              "type": "uint256"
            },
            {
              "internalType": "address",
              "name": "from",
              "type": "address"
            },
            {
              "internalType": "address",
              "name": "to",
              "type": "address"
            },
            {
              "internalType": "bytes",
              "name": "userData",
              "type": "bytes"
            }
          ],
          "internalType": "struct IPoolSwapStructs.SwapRequest",
          "name": "request",
          "type": "tuple"
        },
        {
          "internalType": "uint256",
          "name": "balanceTokenIn",
          "type": "uint256"
        },
        {
          "internalType": "uint256",
          "name": "balanceTokenOut",
          "type": "uint256"
        }
      ],
      "name": "onSwap",
      "outputs": [
        {
          "internalType": "uint256",
          "name": "",
          "type": "uint256"
        }
      ],
      "stateMutability": "view",
      "type": "function"
    },
    {
      "inputs": [
        {
          "internalType": "address",
          "name": "owner",
          "type": "address"
        },
        {
          "internalType": "address",
          "name": "spender",
          "type": "address"
        },
        {
          "internalType": "uint256",
          "name": "value",
          "type": "uint256"
        },
        {
          "internalType": "uint256",
          "name": "deadline",
          "type": "uint256"
        },
        {
          "internalType": "uint8",
          "name": "v",
          "type": "uint8"
        },
        {
          "internalType": "bytes32",
          "name": "r",
          "type": "bytes32"
        },
        {
          "internalType": "bytes32",
          "name": "s",
          "type": "bytes32"
        }
      ],
      "name": "permit",
      "outputs": [],
      "stateMutability": "nonpayable",
      "type": "function"
    },
    {
      "inputs": [
        {
          "internalType": "bytes32",
          "name": "poolId",
          "type": "bytes32"
        },
        {
          "internalType": "address",
          "name": "sender",
          "type": "address"
        },
        {
          "internalType": "address",
          "name": "recipient",
          "type": "address"
        },
        {
          "internalType": "uint256[]",
          "name": "balances",
          "type": "uint256[]"
        },
        {
          "internalType": "uint256",
          "name": "lastChangeBlock",
          "type": "uint256"
        },
        {
          "internalType": "uint256",
          "name": "protocolSwapFeePercentage",
          "type": "uint256"
        },
        {
          "internalType": "bytes",
          "name": "userData",
          "type": "bytes"
        }
      ],
      "name": "queryExit",
      "outputs": [
        {
          "internalType": "uint256",
          "name": "bptIn",
          "type": "uint256"
        },
        {
          "internalType": "uint256[]",
          "name": "amountsOut",
          "type": "uint256[]"
        }
      ],
      "stateMutability": "nonpayable",
      "type": "function"
    },
    {
      "inputs": [
        {
          "internalType": "bytes32",
          "name": "poolId",
          "type": "bytes32"
        },
        {
          "internalType": "address",
          "name": "sender",
          "type": "address"
        },
        {
          "internalType": "address",
          "name": "recipient",
          "type": "address"
        },
        {
          "internalType": "uint256[]",
          "name": "balances",
          "type": "uint256[]"
        },
        {
          "internalType": "uint256",
          "name": "lastChangeBlock",
          "type": "uint256"
        },
        {
          "internalType": "uint256",
          "name": "protocolSwapFeePercentage",
          "type": "uint256"
        },
        {
          "internalType": "bytes",
          "name": "userData",
          "type": "bytes"
        }
      ],
      "name": "queryJoin",
      "outputs": [
        {
          "internalType": "uint256",
          "name": "bptOut",
          "type": "uint256"
        },
        {
          "internalType": "uint256[]",
          "name": "amountsIn",
          "type": "uint256[]"
        }
      ],
      "stateMutability": "nonpayable",
      "type": "function"
    },
    {
      "inputs": [
        {
          "internalType": "bool",
          "name": "paused",
          "type": "bool"
        }
      ],
      "name": "setPaused",
      "outputs": [],
      "stateMutability": "nonpayable",
      "type": "function"
    },
    {
      "inputs": [
        {
          "internalType": "uint256",
          "name": "swapFeePercentage",
          "type": "uint256"
        }
      ],
      "name": "setSwapFeePercentage",
      "outputs": [],
      "stateMutability": "nonpayable",
      "type": "function"
    },
    {
      "inputs": [],
      "name": "symbol",
      "outputs": [
        {
          "internalType": "string",
          "name": "",
          "type": "string"
        }
      ],
      "stateMutability": "view",
      "type": "function"
    },
    {
      "inputs": [],
      "name": "totalSupply",
      "outputs": [
        {
          "internalType": "uint256",
          "name": "",
          "type": "uint256"
        }
      ],
      "stateMutability": "view",
      "type": "function"
    },
    {
      "inputs": [
        {
          "internalType": "address",
          "name": "recipient",
          "type": "address"
        },
        {
          "internalType": "uint256",
          "name": "amount",
          "type": "uint256"
        }
      ],
      "name": "transfer",
      "outputs": [
        {
          "internalType": "bool",
          "name": "",
          "type": "bool"
        }
      ],
      "stateMutability": "nonpayable",
      "type": "function"
    },
    {
      "inputs": [
        {
          "internalType": "address",
          "name": "sender",
          "type": "address"
        },
        {
          "internalType": "address",
          "name": "recipient",
          "type": "address"
        },
        {
          "internalType": "uint256",
          "name": "amount",
          "type": "uint256"
        }
      ],
      "name": "transferFrom",
      "outputs": [
        {
          "internalType": "bool",
          "name": "",
          "type": "bool"
        }
      ],
      "stateMutability": "nonpayable",
      "type": "function"
    }
  ],
  "bytecode": "0x6105006040527f6e71edae12b1b97f4d1f60370fef10105fa2faae0126114a169c64845d6126c9610120523480156200003757600080fd5b5060405162005c0b38038062005c0b8339810160408190526200005a9162000cf2565b88888888878787878785516002146200007557600162000078565b60025b6040805180820190915260018152603160f81b6020808301918252336080526001600160601b0319606087901b1660a0528b51908c0190812060c0529151902060e0527f8b73c3c69bb8fe3d512ecc4cf759cc79239f7b179b0ffacaa9a75d522b39400f6101005289518a918a918a918a918a918a918a91849184918a918a9162000107916003919062000abb565b5080516200011d90600490602084019062000abb565b50620001359150506276a70083111561019462000865565b6200014962278d0082111561019562000865565b42909101610140819052016101605284516200016b906002111560c862000865565b6200018360088651111560c96200086560201b60201c565b62000199856200087a60201b62000ded1760201c565b620001a48462000886565b6040516309b2760f60e01b81526000906001600160a01b038b16906309b2760f90620001d5908c9060040162000eab565b602060405180830381600087803b158015620001f057600080fd5b505af115801562000205573d6000803e3d6000fd5b505050506040513d601f19601f820116820180604052508101906200022b919062000cd9565b9050896001600160a01b03166366a9c7d2828889516001600160401b03811180156200025657600080fd5b5060405190808252806020026020018201604052801562000281578160200160208202803683370190505b506040518463ffffffff1660e01b8152600401620002a29392919062000e0f565b600060405180830381600087803b158015620002bd57600080fd5b505af1158015620002d2573d6000803e3d6000fd5b5050506001600160601b031960608c901b1661018052506101a081905285516101c0528551620003045760006200031b565b856000815181106200031257fe5b60200260200101515b60601b6001600160601b0319166101e05285516001106200033e57600062000355565b856001815181106200034c57fe5b60200260200101515b60601b6001600160601b031916610200528551600210620003785760006200038f565b856002815181106200038657fe5b60200260200101515b60601b6001600160601b031916610220528551600310620003b2576000620003c9565b85600381518110620003c057fe5b60200260200101515b60601b6001600160601b031916610240528551600410620003ec57600062000403565b85600481518110620003fa57fe5b60200260200101515b60601b6001600160601b031916610260528551600510620004265760006200043d565b856005815181106200043457fe5b60200260200101515b60601b6001600160601b0319166102805285516006106200046057600062000477565b856006815181106200046e57fe5b60200260200101515b60601b6001600160601b0319166102a05285516007106200049a576000620004b1565b85600781518110620004a857fe5b60200260200101515b60601b6001600160601b0319166102c0528551620004d1576000620004f7565b620004f786600081518110620004e357fe5b6020026020010151620008f560201b60201c565b6102e05285516001106200050d5760006200051f565b6200051f86600181518110620004e357fe5b6103005285516002106200053557600062000547565b6200054786600281518110620004e357fe5b6103205285516003106200055d5760006200056f565b6200056f86600381518110620004e357fe5b6103405285516004106200058557600062000597565b6200059786600481518110620004e357fe5b610360528551600510620005ad576000620005bf565b620005bf86600581518110620004e357fe5b610380528551600610620005d5576000620005e7565b620005e786600681518110620004e357fe5b6103a0528551600710620005fd5760006200060f565b6200060f86600781518110620004e357fe5b6103c08181525050505050505050505050505050505050505050600086519050620006478187516200099760201b62000dfb1760201c565b6000806000805b848160ff161015620006cd5760008a8260ff16815181106200066c57fe5b6020026020010151905062000694662386f26fc1000082101561012e6200086560201b60201c565b620006ae8186620009a660201b62000e081790919060201c565b945082811115620006c3578160ff1693508092505b506001016200064e565b50620006e6670de0b6b3a7640000841461013462000865565b6103e08290528851620006fb57600062000712565b886000815181106200070957fe5b60200260200101515b610400528851600110620007285760006200073f565b886001815181106200073657fe5b60200260200101515b610420528851600210620007555760006200076c565b886002815181106200076357fe5b60200260200101515b6104405288516003106200078257600062000799565b886003815181106200079057fe5b60200260200101515b610460528851600410620007af576000620007c6565b88600481518110620007bd57fe5b60200260200101515b610480528851600510620007dc576000620007f3565b88600581518110620007ea57fe5b60200260200101515b6104a05288516006106200080957600062000820565b886006815181106200081757fe5b60200260200101515b6104c0528851600710620008365760006200084d565b886007815181106200084457fe5b60200260200101515b6104e0525062000f329b505050505050505050505050565b8162000876576200087681620009c3565b5050565b80620008768162000a16565b6200089b64e8d4a5100082101560cb62000865565b620008b367016345785d8a000082111560ca62000865565b60078190556040517fa9ba3ffe0b6c366b81232caab38605a0699ad5398d6cce76f91ee809e322dafc90620008ea90839062000ec0565b60405180910390a150565b600080826001600160a01b031663313ce5676040518163ffffffff1660e01b815260040160206040518083038186803b1580156200093257600080fd5b505afa15801562000947573d6000803e3d6000fd5b505050506040513d601f19601f820116820180604052508101906200096d919062000dec565b60ff16905060006200098c60128362000aa360201b62000e1a1760201c565b600a0a949350505050565b62000876828214606762000865565b6000828201620009ba848210158362000865565b90505b92915050565b62461bcd60e51b6000908152602060045260076024526642414c23000030600a808404818106603090810160081b95839006959095019082900491820690940160101b939093010160c81b604452606490fd5b60028151101562000a275762000aa0565b60008160008151811062000a3757fe5b602002602001015190506000600190505b825181101562000a9d57600083828151811062000a6157fe5b6020026020010151905062000a92816001600160a01b0316846001600160a01b03161060656200086560201b60201c565b915060010162000a48565b50505b50565b600062000ab583831115600162000865565b50900390565b828054600181600116156101000203166002900490600052602060002090601f016020900481019282601f1062000afe57805160ff191683800117855562000b2e565b8280016001018555821562000b2e579182015b8281111562000b2e57825182559160200191906001019062000b11565b5062000b3c92915062000b40565b5090565b5b8082111562000b3c576000815560010162000b41565b8051620009bd8162000f1c565b600082601f83011262000b75578081fd5b815162000b8c62000b868262000ef0565b62000ec9565b81815291506020808301908481018184028601820187101562000bae57600080fd5b60005b8481101562000bda57815162000bc78162000f1c565b8452928201929082019060010162000bb1565b505050505092915050565b600082601f83011262000bf6578081fd5b815162000c0762000b868262000ef0565b81815291506020808301908481018184028601820187101562000c2957600080fd5b60005b8481101562000bda5781518452928201929082019060010162000c2c565b600082601f83011262000c5b578081fd5b81516001600160401b0381111562000c71578182fd5b602062000c87601f8301601f1916820162000ec9565b9250818352848183860101111562000c9e57600080fd5b60005b8281101562000cbe57848101820151848201830152810162000ca1565b8281111562000cd05760008284860101525b50505092915050565b60006020828403121562000ceb578081fd5b5051919050565b60008060008060008060008060006101208a8c03121562000d11578485fd5b62000d1d8b8b62000b57565b60208b01519099506001600160401b038082111562000d3a578687fd5b62000d488d838e0162000c4a565b995060408c015191508082111562000d5e578687fd5b62000d6c8d838e0162000c4a565b985060608c015191508082111562000d82578687fd5b62000d908d838e0162000b64565b975060808c015191508082111562000da6578687fd5b5062000db58c828d0162000be5565b95505060a08a0151935060c08a0151925060e08a0151915062000ddd8b6101008c0162000b57565b90509295985092959850929598565b60006020828403121562000dfe578081fd5b815160ff81168114620009ba578182fd5b60006060820185835260206060818501528186518084526080860191508288019350845b8181101562000e5b5762000e48855162000f10565b8352938301939183019160010162000e33565b505084810360408601528551808252908201925081860190845b8181101562000e9d5762000e8a835162000f10565b8552938301939183019160010162000e75565b509298975050505050505050565b602081016003831062000eba57fe5b91905290565b90815260200190565b6040518181016001600160401b038111828210171562000ee857600080fd5b604052919050565b60006001600160401b0382111562000f06578081fd5b5060209081020190565b6001600160a01b031690565b6001600160a01b038116811462000aa057600080fd5b60805160a05160601c60c05160e051610100516101205161014051610160516101805160601c6101a0516101c0516101e05160601c6102005160601c6102205160601c6102405160601c6102605160601c6102805160601c6102a05160601c6102c05160601c6102e05161030051610320516103405161036051610380516103a0516103c0516103e05161040051610420516104405161046051610480516104a0516104c0516104e051614ac3620011486000398061201c52806129e6525080611fd95280612985525080611f965280612924525080611f5352806128c3525080611f105280612862525080611ecd5280612801525080611e8a52806127a0525080611e47528061273f525080612441528061247552806124b152508061177f5280611c7552508061173c5280611c145250806116f95280611bb35250806116b65280611b525250806116735280611af15250806116305280611a905250806115ed5280611a2f52508061159c52806119ce525080611c3a52806129ab525080611bd9528061294a525080611b7852806128e9525080611b175280612888525080611ab65280612827525080611a5552806127c65250806119f4528061276552508061199352806127045250806111ce525080610613525080610871525080610fbd525080610f99525080610b2d5250806110c05250806111025250806110e152508061084d5250806107d75250614ac36000f3fe608060405234801561001057600080fd5b50600436106101f05760003560e01c80637ecebe001161010f578063a9059cbb116100a2578063d5c096c411610071578063d5c096c4146103e6578063d73dd623146103f9578063dd62ed3e1461040c578063f89f27ed1461041f576101f0565b8063a9059cbb146103b0578063aaabadc5146103c3578063c0ff1a15146103cb578063d505accf146103d3576101f0565b80638d928af8116100de5780638d928af81461038557806395d89b411461038d5780639b02cdde146103955780639d2c110c1461039d576101f0565b80637ecebe0014610337578063851c1bb31461034a57806387ec68171461035d578063893d20e814610370576101f0565b806338e9922e11610187578063661884631161015657806366188463146102e8578063679aefce146102fb57806370a082311461030357806374f3b00914610316576101f0565b806338e9922e146102a457806338fff2d0146102b757806355c67628146102bf5780636028bfd4146102c7576101f0565b80631c0de051116101c35780631c0de0511461025d57806323b872dd14610274578063313ce567146102875780633644e5151461029c576101f0565b806306fdde03146101f5578063095ea7b31461021357806316c38b3c1461023357806318160ddd14610248575b600080fd5b6101fd610434565b60405161020a919061497e565b60405180910390f35b610226610221366004614308565b6104e9565b60405161020a91906148b5565b6102466102413660046143ff565b610500565b005b610250610514565b60405161020a91906148d8565b61026561051a565b60405161020a939291906148c0565b610226610282366004614253565b610543565b61028f6105e4565b60405161020a9190614a08565b6102506105e9565b6102466102b23660046147a1565b6105f8565b610250610611565b610250610635565b6102da6102d5366004614437565b61063b565b60405161020a9291906149ef565b6102266102f6366004614308565b610672565b6102506106cc565b6102506103113660046141ff565b6106f7565b610329610324366004614437565b610716565b60405161020a929190614890565b6102506103453660046141ff565b6107b8565b610250610358366004614534565b6107d3565b6102da61036b366004614437565b610825565b61037861084b565b60405161020a9190614869565b61037861086f565b6101fd610893565b610250610912565b6102506103ab3660046146a5565b610918565b6102266103be366004614308565b6109ff565b610378610a0c565b610250610a16565b6102466103e1366004614293565b610af8565b6103296103f4366004614437565b610c5f565b610226610407366004614308565b610d82565b61025061041a36600461421b565b610db8565b610427610de3565b60405161020a919061487d565b60038054604080516020601f60027fffffffffffffffffffffffffffffffffffffffffffffffffffffffffffffffff6101006001881615020190951694909404938401819004810282018101909252828152606093909290918301828280156104de5780601f106104b3576101008083540402835291602001916104de565b820191906000526020600020905b8154815290600101906020018083116104c157829003601f168201915b505050505090505b90565b60006104f6338484610e30565b5060015b92915050565b610508610e98565b61051181610ede565b50565b60025490565b6000806000610527610f7a565b159250610532610f97565b915061053c610fbb565b9050909192565b6001600160a01b038316600081815260016020908152604080832033808552925282205491926105819114806105795750838210155b610197610fdf565b61058c858585610fed565b336001600160a01b038616148015906105c557507fffffffffffffffffffffffffffffffffffffffffffffffffffffffffffffffff8114155b156105d7576105d78533858403610e30565b60019150505b9392505050565b601290565b60006105f36110bc565b905090565b610600610e98565b610608611159565b6105118161116e565b7f000000000000000000000000000000000000000000000000000000000000000090565b60075490565b60006060610651865161064c6111cc565b610dfb565b610666898989898989896111f06112b861131e565b97509795505050505050565b3360009081526001602090815260408083206001600160a01b03861684529091528120548083106106ae576106a933856000610e30565b6106c2565b6106c233856106bd8487610e1a565b610e30565b5060019392505050565b60006105f36106d9610514565b6106f16106e4610a16565b6106ec6111cc565b6114cb565b906114ef565b6001600160a01b0381166000908152602081905260409020545b919050565b6060808861074061072561086f565b6001600160a01b0316336001600160a01b03161460cd610fdf565b61075561074b610611565b82146101f4610fdf565b606061075f611540565b905061076b88826117bd565b600060608061077f8e8e8e8e8e8e8e6111f0565b92509250925061078f8d8461181e565b61079982856112b8565b6107a381856112b8565b909550935050505b5097509795505050505050565b6001600160a01b031660009081526005602052604090205490565b60007f0000000000000000000000000000000000000000000000000000000000000000826040516020016108089291906147f3565b604051602081830303815290604052805190602001209050919050565b60006060610836865161064c6111cc565b610666898989898989896118b161192e61131e565b7f000000000000000000000000000000000000000000000000000000000000000090565b7f000000000000000000000000000000000000000000000000000000000000000090565b60048054604080516020601f60027fffffffffffffffffffffffffffffffffffffffffffffffffffffffffffffffff6101006001881615020190951694909404938401819004810282018101909252828152606093909290918301828280156104de5780601f106104b3576101008083540402835291602001916104de565b60085490565b600080610928856020015161198f565b90506000610939866040015161198f565b905060008651600181111561094a57fe5b14156109b05761095d8660600151611ca4565b606087015261096c8583611cc8565b94506109788482611cc8565b9350610988866060015183611cc8565b6060870152600061099a878787611cd4565b90506109a68183611d0f565b93505050506105dd565b6109ba8583611cc8565b94506109c68482611cc8565b93506109d6866060015182611cc8565b606087015260006109e8878787611d1b565b90506109f48184611d4e565b90506109a681611d5a565b60006104f6338484610fed565b60006105f3611d71565b60006060610a2261086f565b6001600160a01b031663f94d4668610a38610611565b6040518263ffffffff1660e01b8152600401610a5491906148d8565b60006040518083038186803b158015610a6c57600080fd5b505afa158015610a80573d6000803e3d6000fd5b505050506040513d6000823e601f3d9081017fffffffffffffffffffffffffffffffffffffffffffffffffffffffffffffffe0168201604052610ac69190810190614333565b50915050610adb81610ad6611540565b6117bd565b6060610ae5611deb565b9050610af18183612048565b9250505090565b610b068442111560d1610fdf565b6001600160a01b0387166000908152600560209081526040808320549051909291610b5d917f0000000000000000000000000000000000000000000000000000000000000000918c918c918c9188918d9101614900565b6040516020818303038152906040528051906020012090506000610b80826120ba565b9050600060018288888860405160008152602001604052604051610ba79493929190614960565b6020604051602081039080840390855afa158015610bc9573d6000803e3d6000fd5b50506040517fffffffffffffffffffffffffffffffffffffffffffffffffffffffffffffffe001519150610c2990506001600160a01b03821615801590610c2157508b6001600160a01b0316826001600160a01b0316145b6101f8610fdf565b6001600160a01b038b166000908152600560205260409020600185019055610c528b8b8b610e30565b5050505050505050505050565b60608088610c6e61072561086f565b610c7961074b610611565b6060610c83611540565b9050610c8d610514565b610d335760006060610ca18d8d8d8a6120d6565b91509150610cb6620f424083101560cc610fdf565b610cc46000620f4240612171565b610cd38b620f42408403612171565b610cdd818461192e565b80610ce66111cc565b67ffffffffffffffff81118015610cfc57600080fd5b50604051908082528060200260200182016040528015610d26578160200160208202803683370190505b50955095505050506107ab565b610d3d88826117bd565b6000606080610d518e8e8e8e8e8e8e6118b1565b925092509250610d618c84612171565b610d6b828561192e565b610d7581856112b8565b90955093506107ab915050565b3360008181526001602090815260408083206001600160a01b038716845290915281205490916104f69185906106bd9086610e08565b6001600160a01b03918216600090815260016020908152604080832093909416825291909152205490565b60606105f3611deb565b80610df781612207565b5050565b610df78183146067610fdf565b60008282016105dd8482101583610fdf565b6000610e2a838311156001610fdf565b50900390565b6001600160a01b0380841660008181526001602090815260408083209487168084529490915290819020849055517f8c5be1e5ebec7d5bd14f71427d1e84f3dd0314c0f7b2291e5b200ac8c7c3b92590610e8b9085906148d8565b60405180910390a3505050565b6000610ec76000357fffffffff00000000000000000000000000000000000000000000000000000000166107d3565b9050610511610ed68233612280565b610191610fdf565b8015610efe57610ef9610eef610f97565b4210610193610fdf565b610f13565b610f13610f09610fbb565b42106101a9610fdf565b600680547fffffffffffffffffffffffffffffffffffffffffffffffffffffffffffffff00168215151790556040517f9e3a5e37224532dea67b89face185703738a228a6e8a23dee546960180d3be6490610f6f9083906148b5565b60405180910390a150565b6000610f84610fbb565b4211806105f357505060065460ff161590565b7f000000000000000000000000000000000000000000000000000000000000000090565b7f000000000000000000000000000000000000000000000000000000000000000090565b81610df757610df781612370565b6001600160a01b03831660009081526020819052604090205461101582821015610196610fdf565b61102c6001600160a01b0384161515610199610fdf565b6001600160a01b0380851660009081526020819052604080822085850390559185168152205461105c9083610e08565b6001600160a01b0380851660008181526020819052604090819020939093559151908616907fddf252ad1be2c89b69c2b068fc378daa952ba7f163c4a11628f55a4df523b3ef906110ae9086906148d8565b60405180910390a350505050565b60007f00000000000000000000000000000000000000000000000000000000000000007f00000000000000000000000000000000000000000000000000000000000000007f00000000000000000000000000000000000000000000000000000000000000006111296123dd565b3060405160200161113e959493929190614934565b60405160208183030381529060405280519060200120905090565b61116c611164610f7a565b610192610fdf565b565b61118164e8d4a5100082101560cb610fdf565b61119767016345785d8a000082111560ca610fdf565b60078190556040517fa9ba3ffe0b6c366b81232caab38605a0699ad5398d6cce76f91ee809e322dafc90610f6f9083906148d8565b7f000000000000000000000000000000000000000000000000000000000000000090565b600060608060606111ff611deb565b9050611209610f7a565b1561124057600061121a828a612048565b905061122b8983600854848b6123e1565b925061123a8984610e1a6124f1565b5061128c565b6112486111cc565b67ffffffffffffffff8111801561125e57600080fd5b50604051908082528060200260200182016040528015611288578160200160208202803683370190505b5091505b61129788828761255c565b90945092506112a78884836125c9565b600855509750975097945050505050565b60005b6112c36111cc565b811015611319576112fa8382815181106112d957fe5b60200260200101518383815181106112ed57fe5b60200260200101516125e2565b83828151811061130657fe5b60209081029190910101526001016112bb565b505050565b33301461140d576000306001600160a01b0316600036604051611342929190614823565b6000604051808303816000865af19150503d806000811461137f576040519150601f19603f3d011682016040523d82523d6000602084013e611384565b606091505b50509050806000811461139357fe5b60046000803e6000517fffffffff00000000000000000000000000000000000000000000000000000000167f43adbafb0000000000000000000000000000000000000000000000000000000081146113ef573d6000803e3d6000fd5b506020600460003e604060205260243d03602460403e601c3d016000f35b6060611417611540565b905061142387826117bd565b6000606061143a8c8c8c8c8c8c8c8c63ffffffff16565b509150915061144d81848663ffffffff16565b80517fffffffffffffffffffffffffffffffffffffffffffffffffffffffffffffffe082018390526343adbafb7fffffffffffffffffffffffffffffffffffffffffffffffffffffffffffffffc08301526020027fffffffffffffffffffffffffffffffffffffffffffffffffffffffffffffffdc82016044820181fd5b60008282026105dd8415806114e85750838583816114e557fe5b04145b6003610fdf565b60006114fe8215156004610fdf565b8261150b575060006104fa565b670de0b6b3a76400008381029061152e9085838161152557fe5b04146005610fdf565b82818161153757fe5b049150506104fa565b6060600061154c6111cc565b905060608167ffffffffffffffff8111801561156757600080fd5b50604051908082528060200260200182016040528015611591578160200160208202803683370190505b50905081156115d9577f0000000000000000000000000000000000000000000000000000000000000000816000815181106115c857fe5b6020026020010181815250506115e2565b91506104e69050565b60018211156115d9577f00000000000000000000000000000000000000000000000000000000000000008160018151811061161957fe5b60200260200101818152505060028211156115d9577f00000000000000000000000000000000000000000000000000000000000000008160028151811061165c57fe5b60200260200101818152505060038211156115d9577f00000000000000000000000000000000000000000000000000000000000000008160038151811061169f57fe5b60200260200101818152505060048211156115d9577f0000000000000000000000000000000000000000000000000000000000000000816004815181106116e257fe5b60200260200101818152505060058211156115d9577f00000000000000000000000000000000000000000000000000000000000000008160058151811061172557fe5b60200260200101818152505060068211156115d9577f00000000000000000000000000000000000000000000000000000000000000008160068151811061176857fe5b60200260200101818152505060078211156115d9577f0000000000000000000000000000000000000000000000000000000000000000816007815181106117ab57fe5b60200260200101818152505091505090565b60005b6117c86111cc565b811015611319576117ff8382815181106117de57fe5b60200260200101518383815181106117f257fe5b60200260200101516114cb565b83828151811061180b57fe5b60209081029190910101526001016117c0565b6001600160a01b03821660009081526020819052604090205461184682821015610196610fdf565b6001600160a01b038316600090815260208190526040902082820390556002546118709083610e1a565b6002556040516000906001600160a01b038516907fddf252ad1be2c89b69c2b068fc378daa952ba7f163c4a11628f55a4df523b3ef90610e8b9086906148d8565b60006060806118be611159565b60606118c8611deb565b905060006118d6828a612048565b905060606118e98a84600854858c6123e1565b90506118f88a82610e1a6124f1565b600060606119078c868b612602565b915091506119168c828761265c565b600855909e909d50909b509950505050505050505050565b60005b6119396111cc565b8110156113195761197083828151811061194f57fe5b602002602001015183838151811061196357fe5b602002602001015161266b565b83828151811061197c57fe5b6020908102919091010152600101611931565b60007f00000000000000000000000000000000000000000000000000000000000000006001600160a01b0316826001600160a01b031614156119f257507f0000000000000000000000000000000000000000000000000000000000000000610711565b7f00000000000000000000000000000000000000000000000000000000000000006001600160a01b0316826001600160a01b03161415611a5357507f0000000000000000000000000000000000000000000000000000000000000000610711565b7f00000000000000000000000000000000000000000000000000000000000000006001600160a01b0316826001600160a01b03161415611ab457507f0000000000000000000000000000000000000000000000000000000000000000610711565b7f00000000000000000000000000000000000000000000000000000000000000006001600160a01b0316826001600160a01b03161415611b1557507f0000000000000000000000000000000000000000000000000000000000000000610711565b7f00000000000000000000000000000000000000000000000000000000000000006001600160a01b0316826001600160a01b03161415611b7657507f0000000000000000000000000000000000000000000000000000000000000000610711565b7f00000000000000000000000000000000000000000000000000000000000000006001600160a01b0316826001600160a01b03161415611bd757507f0000000000000000000000000000000000000000000000000000000000000000610711565b7f00000000000000000000000000000000000000000000000000000000000000006001600160a01b0316826001600160a01b03161415611c3857507f0000000000000000000000000000000000000000000000000000000000000000610711565b7f00000000000000000000000000000000000000000000000000000000000000006001600160a01b0316826001600160a01b03161415611c9957507f0000000000000000000000000000000000000000000000000000000000000000610711565b610711610135612370565b600080611cbc6007548461269e90919063ffffffff16565b90506105dd8382610e1a565b60006105dd83836114cb565b6000611cde611159565b611d0783611cef8660200151612700565b84611cfd8860400151612700565b8860600151612a0a565b949350505050565b60006105dd83836125e2565b6000611d25611159565b611d0783611d368660200151612700565b84611d448860400151612700565b8860600151612a85565b60006105dd838361266b565b60006104fa611d6a600754612afb565b8390612b21565b6000611d7b61086f565b6001600160a01b031663aaabadc56040518163ffffffff1660e01b815260040160206040518083038186803b158015611db357600080fd5b505afa158015611dc7573d6000803e3d6000fd5b505050506040513d601f19601f820116820180604052508101906105f39190614574565b60606000611df76111cc565b905060608167ffffffffffffffff81118015611e1257600080fd5b50604051908082528060200260200182016040528015611e3c578160200160208202803683370190505b50905081156115d9577f000000000000000000000000000000000000000000000000000000000000000081600081518110611e7357fe5b60200260200101818152505060018211156115d9577f000000000000000000000000000000000000000000000000000000000000000081600181518110611eb657fe5b60200260200101818152505060028211156115d9577f000000000000000000000000000000000000000000000000000000000000000081600281518110611ef957fe5b60200260200101818152505060038211156115d9577f000000000000000000000000000000000000000000000000000000000000000081600381518110611f3c57fe5b60200260200101818152505060048211156115d9577f000000000000000000000000000000000000000000000000000000000000000081600481518110611f7f57fe5b60200260200101818152505060058211156115d9577f000000000000000000000000000000000000000000000000000000000000000081600581518110611fc257fe5b60200260200101818152505060068211156115d9577f00000000000000000000000000000000000000000000000000000000000000008160068151811061200557fe5b60200260200101818152505060078211156115d9577f0000000000000000000000000000000000000000000000000000000000000000816007815181106117ab57fe5b670de0b6b3a764000060005b83518110156120aa576120a061209985838151811061206f57fe5b602002602001015185848151811061208357fe5b6020026020010151612b6390919063ffffffff16565b8390612bb2565b9150600101612054565b506104fa60008211610137610fdf565b60006120c46110bc565b82604051602001610808929190614833565b600060606120e2611159565b60006120ed84612bde565b9050612108600082600281111561210057fe5b1460ce610fdf565b606061211385612bf4565b90506121276121206111cc565b8251610dfb565b61213381610ad6611540565b606061213d611deb565b9050600061214b8284612048565b9050600061215b826106ec6111cc565b6008929092555099919850909650505050505050565b6001600160a01b0382166000908152602081905260409020546121949082610e08565b6001600160a01b0383166000908152602081905260409020556002546121ba9082610e08565b6002556040516001600160a01b038316906000907fddf252ad1be2c89b69c2b068fc378daa952ba7f163c4a11628f55a4df523b3ef906121fb9085906148d8565b60405180910390a35050565b60028151101561221657610511565b60008160008151811061222557fe5b602002602001015190506000600190505b825181101561131957600083828151811061224d57fe5b60200260200101519050612276816001600160a01b0316846001600160a01b0316106065610fdf565b9150600101612236565b600073ba1ba1ba1ba1ba1ba1ba1ba1ba1ba1ba1ba1ba1b61229f61084b565b6001600160a01b0316141580156122ba57506122ba83612c0a565b156122e2576122c761084b565b6001600160a01b0316336001600160a01b03161490506104fa565b6122ea611d71565b6001600160a01b0316639be2a8848484306040518463ffffffff1660e01b8152600401612319939291906148e1565b60206040518083038186803b15801561233157600080fd5b505afa158015612345573d6000803e3d6000fd5b505050506040513d601f19601f82011682018060405250810190612369919061441b565b90506104fa565b7f08c379a0000000000000000000000000000000000000000000000000000000006000908152602060045260076024526642414c23000030600a808404818106603090810160081b95839006959095019082900491820690940160101b939093010160c81b604452606490fd5b4690565b6060806123ec6111cc565b67ffffffffffffffff8111801561240257600080fd5b5060405190808252806020026020018201604052801561242c578160200160208202803683370190505b5090508261243b5790506124e8565b6124ae877f00000000000000000000000000000000000000000000000000000000000000008151811061246a57fe5b6020026020010151877f00000000000000000000000000000000000000000000000000000000000000008151811061249e57fe5b6020026020010151878787612c3d565b817f0000000000000000000000000000000000000000000000000000000000000000815181106124da57fe5b602090810291909101015290505b95945050505050565b60005b6124fc6111cc565b8110156125565761253784828151811061251257fe5b602002602001015184838151811061252657fe5b60200260200101518463ffffffff16565b84828151811061254357fe5b60209081029190910101526001016124f4565b50505050565b60006060600061256b84612bde565b9050600081600281111561257b57fe5b14156125965761258c868686612cb5565b92509250506125c1565b60018160028111156125a457fe5b14156125b45761258c8685612d93565b61258c868686612dc5565b505b935093915050565b60006125d88484610e1a6124f1565b611d078285612048565b60006125f18215156004610fdf565b8183816125fa57fe5b049392505050565b60006060600061261184612bde565b9050600181600281111561262157fe5b14156126325761258c868686612e30565b600281600281111561264057fe5b14156126515761258c868686612e8a565b6125bf610136612370565b60006125d88484610e086124f1565b600061267a8215156004610fdf565b82612687575060006104fa565b81600184038161269357fe5b0460010190506104fa565b60008282026126b88415806114e85750838583816114e557fe5b806126c75760009150506104fa565b670de0b6b3a76400007fffffffffffffffffffffffffffffffffffffffffffffffffffffffffffffffff82015b046001019150506104fa565b60007f00000000000000000000000000000000000000000000000000000000000000006001600160a01b0316826001600160a01b0316141561276357507f0000000000000000000000000000000000000000000000000000000000000000610711565b7f00000000000000000000000000000000000000000000000000000000000000006001600160a01b0316826001600160a01b031614156127c457507f0000000000000000000000000000000000000000000000000000000000000000610711565b7f00000000000000000000000000000000000000000000000000000000000000006001600160a01b0316826001600160a01b0316141561282557507f0000000000000000000000000000000000000000000000000000000000000000610711565b7f00000000000000000000000000000000000000000000000000000000000000006001600160a01b0316826001600160a01b0316141561288657507f0000000000000000000000000000000000000000000000000000000000000000610711565b7f00000000000000000000000000000000000000000000000000000000000000006001600160a01b0316826001600160a01b031614156128e757507f0000000000000000000000000000000000000000000000000000000000000000610711565b7f00000000000000000000000000000000000000000000000000000000000000006001600160a01b0316826001600160a01b0316141561294857507f0000000000000000000000000000000000000000000000000000000000000000610711565b7f00000000000000000000000000000000000000000000000000000000000000006001600160a01b0316826001600160a01b031614156129a957507f0000000000000000000000000000000000000000000000000000000000000000610711565b7f00000000000000000000000000000000000000000000000000000000000000006001600160a01b0316826001600160a01b03161415611c9957507f0000000000000000000000000000000000000000000000000000000000000000610711565b6000612a2c612a2187670429d069189e0000612bb2565b831115610130610fdf565b6000612a388784610e08565b90506000612a468883612b21565b90506000612a5488876114ef565b90506000612a628383612f32565b9050612a77612a7082612afb565b8990612bb2565b9a9950505050505050505050565b6000612aa7612a9c85670429d069189e0000612bb2565b831115610131610fdf565b6000612abd612ab68685610e1a565b8690612b21565b90506000612acb8588612b21565b90506000612ad98383612f32565b90506000612aef82670de0b6b3a7640000610e1a565b9050612a778a8261269e565b6000670de0b6b3a76400008210612b135760006104fa565b50670de0b6b3a76400000390565b6000612b308215156004610fdf565b82612b3d575060006104fa565b670de0b6b3a764000083810290612b579085838161152557fe5b8260018203816126f457fe5b600080612b708484612f5e565b90506000612b8a612b838361271061269e565b6001610e08565b905080821015612b9f576000925050506104fa565b612ba98282610e1a565b925050506104fa565b6000828202612bcc8415806114e85750838583816114e557fe5b670de0b6b3a764000090049392505050565b6000818060200190518101906104fa9190614590565b6060818060200190518101906105dd9190614656565b6000612c357f38e9922e000000000000000000000000000000000000000000000000000000006107d3565b909114919050565b6000838311612c4e575060006124e8565b6000612c5a8585612b21565b90506000612c70670de0b6b3a7640000886114ef565b9050612c84826709b6e64a8ec6000061309b565b91506000612c928383612f32565b90506000612ca9612ca283612afb565b8b90612bb2565b9050612a778187612bb2565b60006060612cc1611159565b600080612ccd856130b2565b91509150612ce5612cdc6111cc565b82106064610fdf565b6060612cef6111cc565b67ffffffffffffffff81118015612d0557600080fd5b50604051908082528060200260200182016040528015612d2f578160200160208202803683370190505b509050612d6e888381518110612d4157fe5b6020026020010151888481518110612d5557fe5b602002602001015185612d66610514565b6007546130d4565b818381518110612d7a57fe5b6020908102919091010152919791965090945050505050565b600060606000612da284613191565b90506060612db88683612db3610514565b6131a7565b9196919550909350505050565b60006060612dd1611159565b60606000612dde85613259565b91509150612def825161064c6111cc565b612dfb82610ad6611540565b6000612e13888885612e0b610514565b600754613271565b9050612e238282111560cf610fdf565b9791965090945050505050565b60006060806000612e4085613259565b91509150612e56612e4f6111cc565b8351610dfb565b612e6282610ad6611540565b6000612e7a888885612e72610514565b600754613496565b9050612e238282101560d0610fdf565b60006060600080612e9a856130b2565b91509150612ea9612cdc6111cc565b6060612eb36111cc565b67ffffffffffffffff81118015612ec957600080fd5b50604051908082528060200260200182016040528015612ef3578160200160208202803683370190505b509050612d6e888381518110612f0557fe5b6020026020010151888481518110612f1957fe5b602002602001015185612f2a610514565b6007546136a7565b600080612f3f8484612f5e565b90506000612f52612b838361271061269e565b90506124e88282610e08565b600081612f745750670de0b6b3a76400006104fa565b82612f81575060006104fa565b612fae7f800000000000000000000000000000000000000000000000000000000000000084106006610fdf565b82612fd4770bce5086492111aea88f4bb1ca6bcf584181ea8059f7653284106007610fdf565b826000670c7d713b49da000083138015612ff55750670f43fc2c04ee000083125b1561302c57600061300584613749565b9050670de0b6b3a764000080820784020583670de0b6b3a76400008305020191505061303a565b8161303684613880565b0290505b670de0b6b3a764000090056130887ffffffffffffffffffffffffffffffffffffffffffffffffdc702bd3a30fc00008212801590613081575068070c1cc73b00c800008213155b6008610fdf565b61309181613c20565b9695505050505050565b6000818310156130ab57816105dd565b5090919050565b600080828060200190518101906130c99190614620565b909590945092505050565b6000806130eb846130e58188610e1a565b90612b21565b90506131046709b6e64a8ec60000821015610132610fdf565b600061312261311b670de0b6b3a7640000896114ef565b8390612f32565b9050600061313961313283612afb565b8a90612bb2565b9050600061314689612afb565b90506000613154838361269e565b905060006131628483610e1a565b905061318161317a6131738a612afb565b8490612bb2565b8290610e08565b9c9b505050505050505050505050565b6000818060200190518101906105dd91906145f3565b606060006131b584846114ef565b90506060855167ffffffffffffffff811180156131d157600080fd5b506040519080825280602002602001820160405280156131fb578160200160208202803683370190505b50905060005b865181101561324f576132308388838151811061321a57fe5b6020026020010151612bb290919063ffffffff16565b82828151811061323c57fe5b6020908102919091010152600101613201565b5095945050505050565b60606000828060200190518101906130c991906145ac565b60006060845167ffffffffffffffff8111801561328d57600080fd5b506040519080825280602002602001820160405280156132b7578160200160208202803683370190505b5090506000805b885181101561337c576133178982815181106132d657fe5b60200260200101516130e58984815181106132ed57fe5b60200260200101518c858151811061330157fe5b6020026020010151610e1a90919063ffffffff16565b83828151811061332357fe5b60200260200101818152505061337261336b89838151811061334157fe5b602002602001015185848151811061335557fe5b602002602001015161269e90919063ffffffff16565b8390610e08565b91506001016132be565b50670de0b6b3a764000060005b89518110156134755760008482815181106133a057fe5b60200260200101518411156133f75760006133c96133bd86612afb565b8d858151811061321a57fe5b905060006133dd828c868151811061330157fe5b90506133ee61336b611d6a8b612afb565b9250505061340e565b88828151811061340357fe5b602002602001015190505b60006134378c848151811061341f57fe5b60200260200101516106f1848f878151811061330157fe5b90506134696134628c858151811061344b57fe5b602002602001015183612b6390919063ffffffff16565b8590612bb2565b93505050600101613389565b5061348961348282612afb565b879061269e565b9998505050505050505050565b60006060845167ffffffffffffffff811180156134b257600080fd5b506040519080825280602002602001820160405280156134dc578160200160208202803683370190505b5090506000805b88518110156135845761353c8982815181106134fb57fe5b60200260200101516106f189848151811061351257fe5b60200260200101518c858151811061352657fe5b6020026020010151610e0890919063ffffffff16565b83828151811061354857fe5b60200260200101818152505061357a61336b89838151811061356657fe5b602002602001015185848151811061321a57fe5b91506001016134e3565b50670de0b6b3a764000060005b8951811015613665576000838583815181106135a957fe5b602002602001015111156136055760006135ce6133bd86670de0b6b3a7640000610e1a565b905060006135e2828c868151811061330157fe5b90506135fc61336b612099670de0b6b3a76400008c610e1a565b9250505061361c565b88828151811061361157fe5b602002602001015190505b60006136458c848151811061362d57fe5b60200260200101516106f1848f878151811061352657fe5b90506136596134628c858151811061344b57fe5b93505050600101613591565b50670de0b6b3a7640000811061369b5761369161368a82670de0b6b3a7640000610e1a565b8790612bb2565b93505050506124e8565b600093505050506124e8565b6000806136b8846130e58188610e08565b90506136d16729a2241af62c0000821115610133610fdf565b60006136e861311b670de0b6b3a764000089612b21565b9050600061370861370183670de0b6b3a7640000610e1a565b8a9061269e565b9050600061371589612afb565b90506000613723838361269e565b905060006137318483610e1a565b905061318161317a6137428a612afb565b8490612b21565b670de0b6b3a7640000026000806ec097ce7bc90715b34b9f1000000000808401907fffffffffffffffffffffffffffffffffff3f68318436f8ea4cb460f0000000008501028161379557fe5b05905060006ec097ce7bc90715b34b9f100000000082800205905081806ec097ce7bc90715b34b9f100000000081840205915060038205016ec097ce7bc90715b34b9f100000000082840205915060058205016ec097ce7bc90715b34b9f100000000082840205915060078205016ec097ce7bc90715b34b9f100000000082840205915060098205016ec097ce7bc90715b34b9f1000000000828402059150600b8205016ec097ce7bc90715b34b9f1000000000828402059150600d8205016ec097ce7bc90715b34b9f1000000000828402059150600f826002919005919091010295945050505050565b6000670de0b6b3a76400008212156138bd576138b3826ec097ce7bc90715b34b9f1000000000816138ad57fe5b05613880565b6000039050610711565b60007e1600ef3172e58d2e933ec884fde10064c63b5372d805e203c0000000000000831261390e57770195e54c5dd42177f53a27172fa9ec630262827000000000830592506806f05b59d3b2000000015b73011798004d755d3c8bc8e03204cf44619e0000008312613946576b1425982cf597cd205cef7380830592506803782dace9d9000000015b606492830292026e01855144814a7ff805980ff0084000831261398e576e01855144814a7ff805980ff008400068056bc75e2d63100000840205925068ad78ebc5ac62000000015b6b02df0ab5a80a22c61ab5a70083126139c9576b02df0ab5a80a22c61ab5a70068056bc75e2d6310000084020592506856bc75e2d631000000015b693f1fce3da636ea5cf8508312613a0057693f1fce3da636ea5cf85068056bc75e2d631000008402059250682b5e3af16b18800000015b690127fa27722cc06cc5e28312613a3757690127fa27722cc06cc5e268056bc75e2d6310000084020592506815af1d78b58c400000015b68280e60114edb805d038312613a6c5768280e60114edb805d0368056bc75e2d631000008402059250680ad78ebc5ac6200000015b680ebc5fb417461211108312613a9757680ebc5fb4174612111068056bc75e2d631000009384020592015b6808f00f760a4b2db55d8312613acc576808f00f760a4b2db55d68056bc75e2d6310000084020592506802b5e3af16b1880000015b6806f5f17757889379378312613b01576806f5f177578893793768056bc75e2d63100000840205925068015af1d78b58c40000015b6806248f33704b2866038312613b35576806248f33704b28660368056bc75e2d63100000840205925067ad78ebc5ac620000015b6805c548670b9510e7ac8312613b69576805c548670b9510e7ac68056bc75e2d6310000084020592506756bc75e2d6310000015b600068056bc75e2d63100000840168056bc75e2d631000008086030281613b8c57fe5b059050600068056bc75e2d63100000828002059050818068056bc75e2d63100000818402059150600382050168056bc75e2d63100000828402059150600582050168056bc75e2d63100000828402059150600782050168056bc75e2d63100000828402059150600982050168056bc75e2d63100000828402059150600b820501600202606485820105979650505050505050565b6000613c657ffffffffffffffffffffffffffffffffffffffffffffffffdc702bd3a30fc00008312158015613c5e575068070c1cc73b00c800008313155b6009610fdf565b6000821215613c9957613c7a82600003613c20565b6ec097ce7bc90715b34b9f100000000081613c9157fe5b059050610711565b60006806f05b59d3b20000008312613cef57507ffffffffffffffffffffffffffffffffffffffffffffffff90fa4a62c4e00000090910190770195e54c5dd42177f53a27172fa9ec630262827000000000613d3b565b6803782dace9d90000008312613d3757507ffffffffffffffffffffffffffffffffffffffffffffffffc87d2531627000000909101906b1425982cf597cd205cef7380613d3b565b5060015b6064929092029168056bc75e2d6310000068ad78ebc5ac620000008412613da1577fffffffffffffffffffffffffffffffffffffffffffffff5287143a539e0000009093019268056bc75e2d631000006e01855144814a7ff805980ff008400082020590505b6856bc75e2d6310000008412613df3577fffffffffffffffffffffffffffffffffffffffffffffffa9438a1d29cf0000009093019268056bc75e2d631000006b02df0ab5a80a22c61ab5a70082020590505b682b5e3af16b188000008412613e43577fffffffffffffffffffffffffffffffffffffffffffffffd4a1c50e94e78000009093019268056bc75e2d63100000693f1fce3da636ea5cf85082020590505b6815af1d78b58c4000008412613e93577fffffffffffffffffffffffffffffffffffffffffffffffea50e2874a73c000009093019268056bc75e2d63100000690127fa27722cc06cc5e282020590505b680ad78ebc5ac62000008412613ee2577ffffffffffffffffffffffffffffffffffffffffffffffff5287143a539e000009093019268056bc75e2d6310000068280e60114edb805d0382020590505b68056bc75e2d631000008412613f31577ffffffffffffffffffffffffffffffffffffffffffffffffa9438a1d29cf000009093019268056bc75e2d63100000680ebc5fb4174612111082020590505b6802b5e3af16b18800008412613f80577ffffffffffffffffffffffffffffffffffffffffffffffffd4a1c50e94e7800009093019268056bc75e2d631000006808f00f760a4b2db55d82020590505b68015af1d78b58c400008412613fcf577ffffffffffffffffffffffffffffffffffffffffffffffffea50e2874a73c00009093019268056bc75e2d631000006806f5f177578893793782020590505b68056bc75e2d631000008481019085906002908280020505918201919050600368056bc75e2d631000008783020505918201919050600468056bc75e2d631000008783020505918201919050600568056bc75e2d631000008783020505918201919050600668056bc75e2d631000008783020505918201919050600768056bc75e2d631000008783020505918201919050600868056bc75e2d631000008783020505918201919050600968056bc75e2d631000008783020505918201919050600a68056bc75e2d631000008783020505918201919050600b68056bc75e2d631000008783020505918201919050600c68056bc75e2d631000008783020505918201919050606468056bc75e2d63100000848402058502059695505050505050565b80356104fa81614a5d565b600082601f83011261410b578081fd5b815161411e61411982614a3d565b614a16565b81815291506020808301908481018184028601820187101561413f57600080fd5b60005b8481101561415e57815184529282019290820190600101614142565b505050505092915050565b600082601f830112614179578081fd5b813567ffffffffffffffff81111561418f578182fd5b6141c060207fffffffffffffffffffffffffffffffffffffffffffffffffffffffffffffffe0601f84011601614a16565b91508082528360208285010111156141d757600080fd5b8060208401602084013760009082016020015292915050565b8035600281106104fa57600080fd5b600060208284031215614210578081fd5b81356105dd81614a5d565b6000806040838503121561422d578081fd5b823561423881614a5d565b9150602083013561424881614a5d565b809150509250929050565b600080600060608486031215614267578081fd5b833561427281614a5d565b9250602084013561428281614a5d565b929592945050506040919091013590565b600080600080600080600060e0888a0312156142ad578283fd5b87356142b881614a5d565b965060208801356142c881614a5d565b95506040880135945060608801359350608088013560ff811681146142eb578384fd5b9699959850939692959460a0840135945060c09093013592915050565b6000806040838503121561431a578182fd5b823561432581614a5d565b946020939093013593505050565b600080600060608486031215614347578081fd5b835167ffffffffffffffff8082111561435e578283fd5b818601915086601f830112614371578283fd5b815161437f61411982614a3d565b80828252602080830192508086018b82838702890101111561439f578788fd5b8796505b848710156143ca5780516143b681614a5d565b8452600196909601959281019281016143a3565b5089015190975093505050808211156143e1578283fd5b506143ee868287016140fb565b925050604084015190509250925092565b600060208284031215614410578081fd5b81356105dd81614a72565b60006020828403121561442c578081fd5b81516105dd81614a72565b600080600080600080600060e0888a031215614451578081fd5b8735965060208089013561446481614a5d565b9650604089013561447481614a5d565b9550606089013567ffffffffffffffff80821115614490578384fd5b818b0191508b601f8301126144a3578384fd5b81356144b161411982614a3d565b8082825285820191508585018f8788860288010111156144cf578788fd5b8795505b838610156144f15780358352600195909501949186019186016144d3565b509850505060808b0135955060a08b0135945060c08b0135925080831115614517578384fd5b50506145258a828b01614169565b91505092959891949750929550565b600060208284031215614545578081fd5b81357fffffffff00000000000000000000000000000000000000000000000000000000811681146105dd578182fd5b600060208284031215614585578081fd5b81516105dd81614a5d565b6000602082840312156145a1578081fd5b81516105dd81614a80565b6000806000606084860312156145c0578081fd5b83516145cb81614a80565b602085015190935067ffffffffffffffff8111156145e7578182fd5b6143ee868287016140fb565b60008060408385031215614605578182fd5b825161461081614a80565b6020939093015192949293505050565b600080600060608486031215614634578081fd5b835161463f81614a80565b602085015160409095015190969495509392505050565b60008060408385031215614668578182fd5b825161467381614a80565b602084015190925067ffffffffffffffff81111561468f578182fd5b61469b858286016140fb565b9150509250929050565b6000806000606084860312156146b9578081fd5b833567ffffffffffffffff808211156146d0578283fd5b81860191506101208083890312156146e6578384fd5b6146ef81614a16565b90506146fb88846141f0565b815261470a88602085016140f0565b602082015261471c88604085016140f0565b6040820152606083013560608201526080830135608082015260a083013560a082015261474c8860c085016140f0565b60c082015261475e8860e085016140f0565b60e08201526101008084013583811115614776578586fd5b6147828a828701614169565b9183019190915250976020870135975060409096013595945050505050565b6000602082840312156147b2578081fd5b5035919050565b6000815180845260208085019450808401835b838110156147e8578151875295820195908201906001016147cc565b509495945050505050565b9182527fffffffff0000000000000000000000000000000000000000000000000000000016602082015260240190565b6000828483379101908152919050565b7f190100000000000000000000000000000000000000000000000000000000000081526002810192909252602282015260420190565b6001600160a01b0391909116815260200190565b6000602082526105dd60208301846147b9565b6000604082526148a360408301856147b9565b82810360208401526124e881856147b9565b901515815260200190565b92151583526020830191909152604082015260600190565b90815260200190565b9283526001600160a01b03918216602084015216604082015260600190565b9586526001600160a01b0394851660208701529290931660408501526060840152608083019190915260a082015260c00190565b9485526020850193909352604084019190915260608301526001600160a01b0316608082015260a00190565b93845260ff9290921660208401526040830152606082015260800190565b6000602080835283518082850152825b818110156149aa5785810183015185820160400152820161498e565b818111156149bb5783604083870101525b50601f017fffffffffffffffffffffffffffffffffffffffffffffffffffffffffffffffe016929092016040019392505050565b600083825260406020830152611d0760408301846147b9565b60ff91909116815260200190565b60405181810167ffffffffffffffff81118282101715614a3557600080fd5b604052919050565b600067ffffffffffffffff821115614a53578081fd5b5060209081020190565b6001600160a01b038116811461051157600080fd5b801515811461051157600080fd5b6003811061051157600080fdfea26469706673582212204e16674b3e59529b4e020b352350d53eb27b237e9107e13691d83c2d75724ab764736f6c63430007010033",
  "linkReferences": {},
  "deployedLinkReferences": {}
}