{
  "_format": "hh-sol-artifact-1",
  "contractName": "BalancerPoolToken",
  "sourceName": "contracts/balancer-core-v2/pools/BalancerPoolToken.sol",
  "abi": [
    {
      "inputs": [
        {
          "internalType": "string",
          "name": "tokenName",
          "type": "string"
        },
        {
          "internalType": "string",
          "name": "tokenSymbol",
          "type": "string"
        }
      ],
      "stateMutability": "nonpayable",
      "type": "constructor"
    },
    {
      "anonymous": false,
      "inputs": [
        {
          "indexed": true,
          "internalType": "address",
          "name": "owner",
          "type": "address"
        },
        {
          "indexed": true,
          "internalType": "address",
          "name": "spender",
          "type": "address"
        },
        {
          "indexed": false,
          "internalType": "uint256",
          "name": "value",
          "type": "uint256"
        }
      ],
      "name": "Approval",
      "type": "event"
    },
    {
      "anonymous": false,
      "inputs": [
        {
          "indexed": true,
          "internalType": "address",
          "name": "from",
          "type": "address"
        },
        {
          "indexed": true,
          "internalType": "address",
          "name": "to",
          "type": "address"
        },
        {
          "indexed": false,
          "internalType": "uint256",
          "name": "value",
          "type": "uint256"
        }
      ],
      "name": "Transfer",
      "type": "event"
    },
    {
      "inputs": [],
      "name": "DOMAIN_SEPARATOR",
      "outputs": [
        {
          "internalType": "bytes32",
          "name": "",
          "type": "bytes32"
        }
      ],
      "stateMutability": "view",
      "type": "function"
    },
    {
      "inputs": [
        {
          "internalType": "address",
          "name": "owner",
          "type": "address"
        },
        {
          "internalType": "address",
          "name": "spender",
          "type": "address"
        }
      ],
      "name": "allowance",
      "outputs": [
        {
          "internalType": "uint256",
          "name": "",
          "type": "uint256"
        }
      ],
      "stateMutability": "view",
      "type": "function"
    },
    {
      "inputs": [
        {
          "internalType": "address",
          "name": "spender",
          "type": "address"
        },
        {
          "internalType": "uint256",
          "name": "amount",
          "type": "uint256"
        }
      ],
      "name": "approve",
      "outputs": [
        {
          "internalType": "bool",
          "name": "",
          "type": "bool"
        }
      ],
      "stateMutability": "nonpayable",
      "type": "function"
    },
    {
      "inputs": [
        {
          "internalType": "address",
          "name": "account",
          "type": "address"
        }
      ],
      "name": "balanceOf",
      "outputs": [
        {
          "internalType": "uint256",
          "name": "",
          "type": "uint256"
        }
      ],
      "stateMutability": "view",
      "type": "function"
    },
    {
      "inputs": [],
      "name": "decimals",
      "outputs": [
        {
          "internalType": "uint8",
          "name": "",
          "type": "uint8"
        }
      ],
      "stateMutability": "pure",
      "type": "function"
    },
    {
      "inputs": [
        {
          "internalType": "address",
          "name": "spender",
          "type": "address"
        },
        {
          "internalType": "uint256",
          "name": "amount",
          "type": "uint256"
        }
      ],
      "name": "decreaseApproval",
      "outputs": [
        {
          "internalType": "bool",
          "name": "",
          "type": "bool"
        }
      ],
      "stateMutability": "nonpayable",
      "type": "function"
    },
    {
      "inputs": [
        {
          "internalType": "address",
          "name": "spender",
          "type": "address"
        },
        {
          "internalType": "uint256",
          "name": "amount",
          "type": "uint256"
        }
      ],
      "name": "increaseApproval",
      "outputs": [
        {
          "internalType": "bool",
          "name": "",
          "type": "bool"
        }
      ],
      "stateMutability": "nonpayable",
      "type": "function"
    },
    {
      "inputs": [],
      "name": "name",
      "outputs": [
        {
          "internalType": "string",
          "name": "",
          "type": "string"
        }
      ],
      "stateMutability": "view",
      "type": "function"
    },
    {
      "inputs": [
        {
          "internalType": "address",
          "name": "owner",
          "type": "address"
        }
      ],
      "name": "nonces",
      "outputs": [
        {
          "internalType": "uint256",
          "name": "",
          "type": "uint256"
        }
      ],
      "stateMutability": "view",
      "type": "function"
    },
    {
      "inputs": [
        {
          "internalType": "address",
          "name": "owner",
          "type": "address"
        },
        {
          "internalType": "address",
          "name": "spender",
          "type": "address"
        },
        {
          "internalType": "uint256",
          "name": "value",
          "type": "uint256"
        },
        {
          "internalType": "uint256",
          "name": "deadline",
          "type": "uint256"
        },
        {
          "internalType": "uint8",
          "name": "v",
          "type": "uint8"
        },
        {
          "internalType": "bytes32",
          "name": "r",
          "type": "bytes32"
        },
        {
          "internalType": "bytes32",
          "name": "s",
          "type": "bytes32"
        }
      ],
      "name": "permit",
      "outputs": [],
      "stateMutability": "nonpayable",
      "type": "function"
    },
    {
      "inputs": [],
      "name": "symbol",
      "outputs": [
        {
          "internalType": "string",
          "name": "",
          "type": "string"
        }
      ],
      "stateMutability": "view",
      "type": "function"
    },
    {
      "inputs": [],
      "name": "totalSupply",
      "outputs": [
        {
          "internalType": "uint256",
          "name": "",
          "type": "uint256"
        }
      ],
      "stateMutability": "view",
      "type": "function"
    },
    {
      "inputs": [
        {
          "internalType": "address",
          "name": "recipient",
          "type": "address"
        },
        {
          "internalType": "uint256",
          "name": "amount",
          "type": "uint256"
        }
      ],
      "name": "transfer",
      "outputs": [
        {
          "internalType": "bool",
          "name": "",
          "type": "bool"
        }
      ],
      "stateMutability": "nonpayable",
      "type": "function"
    },
    {
      "inputs": [
        {
          "internalType": "address",
          "name": "sender",
          "type": "address"
        },
        {
          "internalType": "address",
          "name": "recipient",
          "type": "address"
        },
        {
          "internalType": "uint256",
          "name": "amount",
          "type": "uint256"
        }
      ],
      "name": "transferFrom",
      "outputs": [
        {
          "internalType": "bool",
          "name": "",
          "type": "bool"
        }
      ],
      "stateMutability": "nonpayable",
      "type": "function"
    }
  ],
  "bytecode": "0x6101006040527f6e71edae12b1b97f4d1f60370fef10105fa2faae0126114a169c64845d6126c960e0523480156200003657600080fd5b5060405162000fb338038062000fb3833981810160405260408110156200005c57600080fd5b81019080805160405193929190846401000000008211156200007d57600080fd5b9083019060208201858111156200009357600080fd5b8251640100000000811182820188101715620000ae57600080fd5b82525081516020918201929091019080838360005b83811015620000dd578181015183820152602001620000c3565b50505050905090810190601f1680156200010b5780820380516001836020036101000a031916815260200191505b50604052602001805160405193929190846401000000008211156200012f57600080fd5b9083019060208201858111156200014557600080fd5b82516401000000008111828201881017156200016057600080fd5b82525081516020918201929091019080838360005b838110156200018f57818101518382015260200162000175565b50505050905090810190601f168015620001bd5780820380516001836020036101000a031916815260200191505b506040818101905260018152603160f81b602080830191825287519088019081206080529151902060a0527f8b73c3c69bb8fe3d512ecc4cf759cc79239f7b179b0ffacaa9a75d522b39400f60c05285516200022194506003935090915062000240565b5080516200023790600490602084019062000240565b505050620002dc565b828054600181600116156101000203166002900490600052602060002090601f016020900481019282601f106200028357805160ff1916838001178555620002b3565b82800160010185558215620002b3579182015b82811115620002b357825182559160200191906001019062000296565b50620002c1929150620002c5565b5090565b5b80821115620002c15760008155600101620002c6565b60805160a05160c05160e051610ca1620003126000398061070c525080610a9d525080610adf525080610abe5250610ca16000f3fe608060405234801561001057600080fd5b50600436106100ea5760003560e01c806370a082311161008c578063a9059cbb11610066578063a9059cbb146102e3578063d505accf1461031c578063d73dd6231461037c578063dd62ed3e146103b5576100ea565b806370a08231146102755780637ecebe00146102a857806395d89b41146102db576100ea565b806323b872dd116100c857806323b872dd146101d3578063313ce567146102165780633644e51514610234578063661884631461023c576100ea565b806306fdde03146100ef578063095ea7b31461016c57806318160ddd146101b9575b600080fd5b6100f76103f0565b6040805160208082528351818301528351919283929083019185019080838360005b83811015610131578181015183820152602001610119565b50505050905090810190601f16801561015e5780820380516001836020036101000a031916815260200191505b509250505060405180910390f35b6101a56004803603604081101561018257600080fd5b5073ffffffffffffffffffffffffffffffffffffffff81351690602001356104a4565b604080519115158252519081900360200190f35b6101c16104ba565b60408051918252519081900360200190f35b6101a5600480360360608110156101e957600080fd5b5073ffffffffffffffffffffffffffffffffffffffff8135811691602081013590911690604001356104c0565b61021e610579565b6040805160ff9092168252519081900360200190f35b6101c161057e565b6101a56004803603604081101561025257600080fd5b5073ffffffffffffffffffffffffffffffffffffffff813516906020013561058d565b6101c16004803603602081101561028b57600080fd5b503573ffffffffffffffffffffffffffffffffffffffff166105f4565b6101c1600480360360208110156102be57600080fd5b503573ffffffffffffffffffffffffffffffffffffffff1661061c565b6100f7610644565b6101a5600480360360408110156102f957600080fd5b5073ffffffffffffffffffffffffffffffffffffffff81351690602001356106c3565b61037a600480360360e081101561033257600080fd5b5073ffffffffffffffffffffffffffffffffffffffff813581169160208101359091169060408101359060608101359060ff6080820135169060a08101359060c001356106d0565b005b6101a56004803603604081101561039257600080fd5b5073ffffffffffffffffffffffffffffffffffffffff813516906020013561089f565b6101c1600480360360408110156103cb57600080fd5b5073ffffffffffffffffffffffffffffffffffffffff813581169160200135166108e2565b60038054604080516020601f60027fffffffffffffffffffffffffffffffffffffffffffffffffffffffffffffffff61010060018816150201909516949094049384018190048102820181019092528281526060939092909183018282801561049a5780601f1061046f5761010080835404028352916020019161049a565b820191906000526020600020905b81548152906001019060200180831161047d57829003601f168201915b5050505050905090565b60006104b133848461091a565b50600192915050565b60025490565b73ffffffffffffffffffffffffffffffffffffffff83166000818152600160209081526040808320338085529252822054919261050b9114806105035750838210155b610197610989565b61051685858561099b565b3373ffffffffffffffffffffffffffffffffffffffff86161480159061055c57507fffffffffffffffffffffffffffffffffffffffffffffffffffffffffffffffff8114155b1561056e5761056e853385840361091a565b506001949350505050565b601290565b6000610588610a99565b905090565b33600090815260016020908152604080832073ffffffffffffffffffffffffffffffffffffffff861684529091528120548083106105d6576105d13385600061091a565b6105ea565b6105ea33856105e58487610b64565b61091a565b5060019392505050565b73ffffffffffffffffffffffffffffffffffffffff1660009081526020819052604090205490565b73ffffffffffffffffffffffffffffffffffffffff1660009081526005602052604090205490565b60048054604080516020601f60027fffffffffffffffffffffffffffffffffffffffffffffffffffffffffffffffff61010060018816150201909516949094049384018190048102820181019092528281526060939092909183018282801561049a5780601f1061046f5761010080835404028352916020019161049a565b60006104b133848461099b565b6106de8442111560d1610989565b73ffffffffffffffffffffffffffffffffffffffff80881660008181526005602090815260408083205481517f00000000000000000000000000000000000000000000000000000000000000008185015280830195909552948b166060850152608084018a905260a0840185905260c08085018a90528151808603909101815260e0909401905282519201919091209061077782610b7a565b9050600060018288888860405160008152602001604052604051808581526020018460ff1681526020018381526020018281526020019450505050506020604051602081039080840390855afa1580156107d5573d6000803e3d6000fd5b50506040517fffffffffffffffffffffffffffffffffffffffffffffffffffffffffffffffe00151915061085c905073ffffffffffffffffffffffffffffffffffffffff82161580159061085457508b73ffffffffffffffffffffffffffffffffffffffff168273ffffffffffffffffffffffffffffffffffffffff16145b6101f8610989565b73ffffffffffffffffffffffffffffffffffffffff8b1660009081526005602052604090206001850190556108928b8b8b61091a565b5050505050505050505050565b33600081815260016020908152604080832073ffffffffffffffffffffffffffffffffffffffff8716845290915281205490916104b19185906105e59086610be1565b73ffffffffffffffffffffffffffffffffffffffff918216600090815260016020908152604080832093909416825291909152205490565b73ffffffffffffffffffffffffffffffffffffffff808416600081815260016020908152604080832094871680845294825291829020859055815185815291517f8c5be1e5ebec7d5bd14f71427d1e84f3dd0314c0f7b2291e5b200ac8c7c3b9259281900390910190a3505050565b816109975761099781610bfa565b5050565b73ffffffffffffffffffffffffffffffffffffffff83166000908152602081905260409020546109d082821015610196610989565b6109f473ffffffffffffffffffffffffffffffffffffffff84161515610199610989565b73ffffffffffffffffffffffffffffffffffffffff808516600090815260208190526040808220858503905591851681522054610a319083610be1565b73ffffffffffffffffffffffffffffffffffffffff8085166000818152602081815260409182902094909455805186815290519193928816927fddf252ad1be2c89b69c2b068fc378daa952ba7f163c4a11628f55a4df523b3ef92918290030190a350505050565b60007f00000000000000000000000000000000000000000000000000000000000000007f00000000000000000000000000000000000000000000000000000000000000007f0000000000000000000000000000000000000000000000000000000000000000610b06610c67565b30604051602001808681526020018581526020018481526020018381526020018273ffffffffffffffffffffffffffffffffffffffff1681526020019550505050505060405160208183030381529060405280519060200120905090565b6000610b74838311156001610989565b50900390565b6000610b84610a99565b8260405160200180807f190100000000000000000000000000000000000000000000000000000000000081525060020183815260200182815260200192505050604051602081830303815290604052805190602001209050919050565b6000828201610bf38482101583610989565b9392505050565b7f08c379a0000000000000000000000000000000000000000000000000000000006000908152602060045260076024526642414c23000030600a808404818106603090810160081b95839006959095019082900491820690940160101b939093010160c81b604452606490fd5b469056fea26469706673582212204187c62ae28abadc9e573f66e8973f463fb2eb71bb9d8adc0514877a1e0b255a64736f6c63430007010033",
  "linkReferences": {},
  "deployedLinkReferences": {}
}