{
  "_format": "hh-sol-artifact-1",
  "contractName": "MockFactoryCreatedPool",
  "sourceName": "contracts/balancer-core-v2/test/MockPoolFactory.sol",
  "abi": [
    {
      "inputs": [],
      "name": "getPoolId",
      "outputs": [
        {
          "internalType": "bytes32",
          "name": "",
          "type": "bytes32"
        }
      ],
      "stateMutability": "view",
      "type": "function"
    }
  ],
  "bytecode": "0x6080604052348015600f57600080fd5b50608a8061001e6000396000f3fe6080604052348015600f57600080fd5b506004361060285760003560e01c806338fff2d014602d575b600080fd5b60336047565b604051603e9190604b565b60405180910390f35b3090565b9081526020019056fea26469706673582212204e4002aaf6a5776b600e6299291cee759f817cd82aba96e76df8ed5e524122cb64736f6c63430007010033",
  "linkReferences": {},
  "deployedLinkReferences": {}
}