{
  "_format": "hh-sol-artifact-1",
  "contractName": "TestERC20",
  "sourceName": "contracts/test/TestERC20.sol",
  "abi": [
    {
      "inputs": [
        {
          "internalType": "string",
          "name": "name_",
          "type": "string"
        },
        {
          "internalType": "string",
          "name": "symbol_",
          "type": "string"
        },
        {
          "internalType": "uint8",
          "name": "decimals_",
          "type": "uint8"
        }
      ],
      "stateMutability": "nonpayable",
      "type": "constructor"
    },
    {
      "anonymous": false,
      "inputs": [
        {
          "indexed": true,
          "internalType": "address",
          "name": "owner",
          "type": "address"
        },
        {
          "indexed": true,
          "internalType": "address",
          "name": "spender",
          "type": "address"
        },
        {
          "indexed": false,
          "internalType": "uint256",
          "name": "value",
          "type": "uint256"
        }
      ],
      "name": "Approval",
      "type": "event"
    },
    {
      "anonymous": false,
      "inputs": [
        {
          "indexed": true,
          "internalType": "address",
          "name": "from",
          "type": "address"
        },
        {
          "indexed": true,
          "internalType": "address",
          "name": "to",
          "type": "address"
        },
        {
          "indexed": false,
          "internalType": "uint256",
          "name": "value",
          "type": "uint256"
        }
      ],
      "name": "Transfer",
      "type": "event"
    },
    {
      "inputs": [],
      "name": "DOMAIN_SEPARATOR",
      "outputs": [
        {
          "internalType": "bytes32",
          "name": "",
          "type": "bytes32"
        }
      ],
      "stateMutability": "view",
      "type": "function"
    },
    {
      "inputs": [],
      "name": "PERMIT_TYPEHASH",
      "outputs": [
        {
          "internalType": "bytes32",
          "name": "",
          "type": "bytes32"
        }
      ],
      "stateMutability": "view",
      "type": "function"
    },
    {
      "inputs": [
        {
          "internalType": "address",
          "name": "",
          "type": "address"
        },
        {
          "internalType": "address",
          "name": "",
          "type": "address"
        }
      ],
      "name": "allowance",
      "outputs": [
        {
          "internalType": "uint256",
          "name": "",
          "type": "uint256"
        }
      ],
      "stateMutability": "view",
      "type": "function"
    },
    {
      "inputs": [
        {
          "internalType": "address",
          "name": "account",
          "type": "address"
        },
        {
          "internalType": "uint256",
          "name": "amount",
          "type": "uint256"
        }
      ],
      "name": "approve",
      "outputs": [
        {
          "internalType": "bool",
          "name": "",
          "type": "bool"
        }
      ],
      "stateMutability": "nonpayable",
      "type": "function"
    },
    {
      "inputs": [
        {
          "internalType": "address",
          "name": "",
          "type": "address"
        }
      ],
      "name": "balanceOf",
      "outputs": [
        {
          "internalType": "uint256",
          "name": "",
          "type": "uint256"
        }
      ],
      "stateMutability": "view",
      "type": "function"
    },
    {
      "inputs": [],
      "name": "decimals",
      "outputs": [
        {
          "internalType": "uint8",
          "name": "",
          "type": "uint8"
        }
      ],
      "stateMutability": "view",
      "type": "function"
    },
    {
      "inputs": [
        {
          "internalType": "address",
          "name": "account",
          "type": "address"
        },
        {
          "internalType": "uint256",
          "name": "amount",
          "type": "uint256"
        }
      ],
      "name": "mint",
      "outputs": [],
      "stateMutability": "nonpayable",
      "type": "function"
    },
    {
      "inputs": [],
      "name": "name",
      "outputs": [
        {
          "internalType": "string",
          "name": "",
          "type": "string"
        }
      ],
      "stateMutability": "view",
      "type": "function"
    },
    {
      "inputs": [
        {
          "internalType": "address",
          "name": "",
          "type": "address"
        }
      ],
      "name": "nonces",
      "outputs": [
        {
          "internalType": "uint256",
          "name": "",
          "type": "uint256"
        }
      ],
      "stateMutability": "view",
      "type": "function"
    },
    {
      "inputs": [
        {
          "internalType": "address",
          "name": "owner",
          "type": "address"
        },
        {
          "internalType": "address",
          "name": "spender",
          "type": "address"
        },
        {
          "internalType": "uint256",
          "name": "value",
          "type": "uint256"
        },
        {
          "internalType": "uint256",
          "name": "deadline",
          "type": "uint256"
        },
        {
          "internalType": "uint8",
          "name": "v",
          "type": "uint8"
        },
        {
          "internalType": "bytes32",
          "name": "r",
          "type": "bytes32"
        },
        {
          "internalType": "bytes32",
          "name": "s",
          "type": "bytes32"
        }
      ],
      "name": "permit",
      "outputs": [],
      "stateMutability": "nonpayable",
      "type": "function"
    },
    {
      "inputs": [
        {
          "internalType": "address",
          "name": "destination",
          "type": "address"
        },
        {
          "internalType": "uint256",
          "name": "amount",
          "type": "uint256"
        }
      ],
      "name": "setBalance",
      "outputs": [],
      "stateMutability": "nonpayable",
      "type": "function"
    },
    {
      "inputs": [],
      "name": "symbol",
      "outputs": [
        {
          "internalType": "string",
          "name": "",
          "type": "string"
        }
      ],
      "stateMutability": "view",
      "type": "function"
    },
    {
      "inputs": [
        {
          "internalType": "address",
          "name": "recipient",
          "type": "address"
        },
        {
          "internalType": "uint256",
          "name": "amount",
          "type": "uint256"
        }
      ],
      "name": "transfer",
      "outputs": [
        {
          "internalType": "bool",
          "name": "",
          "type": "bool"
        }
      ],
      "stateMutability": "nonpayable",
      "type": "function"
    },
    {
      "inputs": [
        {
          "internalType": "address",
          "name": "spender",
          "type": "address"
        },
        {
          "internalType": "address",
          "name": "recipient",
          "type": "address"
        },
        {
          "internalType": "uint256",
          "name": "amount",
          "type": "uint256"
        }
      ],
      "name": "transferFrom",
      "outputs": [
        {
          "internalType": "bool",
          "name": "",
          "type": "bool"
        }
      ],
      "stateMutability": "nonpayable",
      "type": "function"
    },
    {
      "inputs": [
        {
          "internalType": "address",
          "name": "destination",
          "type": "address"
        },
        {
          "internalType": "uint256",
          "name": "amount",
          "type": "uint256"
        }
      ],
      "name": "uncheckedTransfer",
      "outputs": [],
      "stateMutability": "nonpayable",
      "type": "function"
    }
  ],
  "bytecode": "0x60806040523480156200001157600080fd5b50604051620013f3380380620013f38339810160408190526200003491620002d2565b8251839083906200004d90600090602085019062000181565b5080516200006390600190602084019062000181565b506002805460ff1916601217905560036020526000197f3617319a054d772f909f7c479a2cebe5066e836a939412e32403c99029b92eff8190553060009081526040902055620000b262000169565b7f8b73c3c69bb8fe3d512ecc4cf759cc79239f7b179b0ffacaa9a75d522b39400f6000604051620000e4919062000353565b60408051918290038220828201825260018352603160f81b60209384015290516200013793927fc89efdaa54c0f20c7adf612882df0950f5a951637e0307cdcb4c672f298b8bc6914691309101620003f8565b60408051601f19818403018152919052805160209091012060065550620001609050816200016b565b50505062000483565b565b6002805460ff191660ff92909216919091179055565b8280546200018f9062000430565b90600052602060002090601f016020900481019282620001b35760008555620001fe565b82601f10620001ce57805160ff1916838001178555620001fe565b82800160010185558215620001fe579182015b82811115620001fe578251825591602001919060010190620001e1565b506200020c92915062000210565b5090565b5b808211156200020c576000815560010162000211565b600082601f83011262000238578081fd5b81516001600160401b03808211156200025557620002556200046d565b6040516020601f8401601f19168201810183811183821017156200027d576200027d6200046d565b604052838252858401810187101562000294578485fd5b8492505b83831015620002b7578583018101518284018201529182019162000298565b83831115620002c857848185840101525b5095945050505050565b600080600060608486031215620002e7578283fd5b83516001600160401b0380821115620002fe578485fd5b6200030c8783880162000227565b9450602086015191508082111562000322578384fd5b50620003318682870162000227565b925050604084015160ff8116811462000348578182fd5b809150509250925092565b81546000908190600281046001808316806200037057607f831692505b60208084108214156200039157634e487b7160e01b87526022600452602487fd5b818015620003a85760018114620003ba57620003ea565b60ff19861689528489019650620003ea565b620003c58a62000424565b885b86811015620003e25781548b820152908501908301620003c7565b505084890196505b509498975050505050505050565b9485526020850193909352604084019190915260608301526001600160a01b0316608082015260a00190565b60009081526020902090565b6002810460018216806200044557607f821691505b602082108114156200046757634e487b7160e01b600052602260045260246000fd5b50919050565b634e487b7160e01b600052604160045260246000fd5b610f6080620004936000396000f3fe608060405234801561001057600080fd5b50600436106100f55760003560e01c806370a0823111610097578063d505accf11610066578063d505accf146101d3578063dd62ed3e146101e6578063e22f03c1146101f9578063e30443bc1461020c576100f5565b806370a08231146101925780637ecebe00146101a557806395d89b41146101b8578063a9059cbb146101c0576100f5565b806330adf81f116100d357806330adf81f1461014b578063313ce567146101605780633644e5151461017557806340c10f191461017d576100f5565b806306fdde03146100fa578063095ea7b31461011857806323b872dd14610138575b600080fd5b61010261021f565b60405161010f9190610c50565b60405180910390f35b61012b610126366004610b7e565b6102ad565b60405161010f9190610bdd565b61012b610146366004610ad2565b610324565b610153610533565b60405161010f9190610be8565b610168610557565b60405161010f9190610e31565b610153610560565b61019061018b366004610b7e565b610566565b005b6101536101a0366004610a86565b610574565b6101536101b3366004610a86565b610586565b610102610598565b61012b6101ce366004610b7e565b6105a5565b6101906101e1366004610b0d565b6105b9565b6101536101f4366004610aa0565b6108cb565b610190610207366004610b7e565b6108e8565b61019061021a366004610b7e565b610979565b6000805461022c90610e6e565b80601f016020809104026020016040519081016040528092919081815260200182805461025890610e6e565b80156102a55780601f1061027a576101008083540402835291602001916102a5565b820191906000526020600020905b81548152906001019060200180831161028857829003601f168201915b505050505081565b33600081815260046020908152604080832073ffffffffffffffffffffffffffffffffffffffff8716808552925280832085905551919290917f8c5be1e5ebec7d5bd14f71427d1e84f3dd0314c0f7b2291e5b200ac8c7c3b92590610313908690610be8565b60405180910390a350600192915050565b73ffffffffffffffffffffffffffffffffffffffff83166000908152600360205260408120548281101561038d576040517f08c379a000000000000000000000000000000000000000000000000000000000815260040161038490610dfa565b60405180910390fd5b73ffffffffffffffffffffffffffffffffffffffff8516331461047a5773ffffffffffffffffffffffffffffffffffffffff851660009081526004602090815260408083203384529091529020547fffffffffffffffffffffffffffffffffffffffffffffffffffffffffffffffff8114610478578381101561043c576040517f08c379a000000000000000000000000000000000000000000000000000000000815260040161038490610cc1565b6104468482610e57565b73ffffffffffffffffffffffffffffffffffffffff871660009081526004602090815260408083203384529091529020555b505b6104848382610e57565b73ffffffffffffffffffffffffffffffffffffffff80871660009081526003602052604080822093909355908616815220546104c1908490610e3f565b73ffffffffffffffffffffffffffffffffffffffff80861660008181526003602052604090819020939093559151908716907fddf252ad1be2c89b69c2b068fc378daa952ba7f163c4a11628f55a4df523b3ef90610520908790610be8565b60405180910390a3506001949350505050565b7f6e71edae12b1b97f4d1f60370fef10105fa2faae0126114a169c64845d6126c981565b60025460ff1681565b60065481565b61057082826109d0565b5050565b60036020526000908152604090205481565b60056020526000908152604090205481565b6001805461022c90610e6e565b60006105b2338484610324565b9392505050565b60065473ffffffffffffffffffffffffffffffffffffffff8816600090815260056020908152604080832054905192939261061f927f6e71edae12b1b97f4d1f60370fef10105fa2faae0126114a169c64845d6126c9928d928d928d92918d9101610bf1565b60405160208183030381529060405280519060200120604051602001610646929190610ba7565b604080517fffffffffffffffffffffffffffffffffffffffffffffffffffffffffffffffe08184030181529190528051602090910120905073ffffffffffffffffffffffffffffffffffffffff88166106cb576040517f08c379a000000000000000000000000000000000000000000000000000000000815260040161038490610d55565b600181858585604051600081526020016040526040516106ee9493929190610c32565b6020604051602081039080840390855afa158015610710573d6000803e3d6000fd5b5050506020604051035173ffffffffffffffffffffffffffffffffffffffff168873ffffffffffffffffffffffffffffffffffffffff161461077e576040517f08c379a000000000000000000000000000000000000000000000000000000000815260040161038490610d8c565b84158061078b5750844211155b6107c1576040517f08c379a000000000000000000000000000000000000000000000000000000000815260040161038490610dc3565b7f7fffffffffffffffffffffffffffffff5d576e7357a4501ddfe92f46681b20a082111561081b576040517f08c379a000000000000000000000000000000000000000000000000000000000815260040161038490610cf8565b73ffffffffffffffffffffffffffffffffffffffff8816600090815260056020526040812080549161084c83610ec2565b909155505073ffffffffffffffffffffffffffffffffffffffff8089166000818152600460209081526040808320948c168084529490915290819020899055517f8c5be1e5ebec7d5bd14f71427d1e84f3dd0314c0f7b2291e5b200ac8c7c3b925906108b9908a90610be8565b60405180910390a35050505050505050565b600460209081526000928352604080842090915290825290205481565b73ffffffffffffffffffffffffffffffffffffffff82166000908152600360205260408120805483929061091d908490610e3f565b909155505060405173ffffffffffffffffffffffffffffffffffffffff8316906000907fddf252ad1be2c89b69c2b068fc378daa952ba7f163c4a11628f55a4df523b3ef9061096d908590610be8565b60405180910390a35050565b73ffffffffffffffffffffffffffffffffffffffff8216600081815260036020526040808220849055517fddf252ad1be2c89b69c2b068fc378daa952ba7f163c4a11628f55a4df523b3ef9061096d908590610be8565b73ffffffffffffffffffffffffffffffffffffffff8216600090815260036020526040902054610a01908290610e3f565b73ffffffffffffffffffffffffffffffffffffffff83166000818152600360205260408082209390935591519091907fddf252ad1be2c89b69c2b068fc378daa952ba7f163c4a11628f55a4df523b3ef9061096d908590610be8565b803573ffffffffffffffffffffffffffffffffffffffff81168114610a8157600080fd5b919050565b600060208284031215610a97578081fd5b6105b282610a5d565b60008060408385031215610ab2578081fd5b610abb83610a5d565b9150610ac960208401610a5d565b90509250929050565b600080600060608486031215610ae6578081fd5b610aef84610a5d565b9250610afd60208501610a5d565b9150604084013590509250925092565b600080600080600080600060e0888a031215610b27578283fd5b610b3088610a5d565b9650610b3e60208901610a5d565b95506040880135945060608801359350608088013560ff81168114610b61578384fd5b9699959850939692959460a0840135945060c09093013592915050565b60008060408385031215610b90578182fd5b610b9983610a5d565b946020939093013593505050565b7f190100000000000000000000000000000000000000000000000000000000000081526002810192909252602282015260420190565b901515815260200190565b90815260200190565b95865273ffffffffffffffffffffffffffffffffffffffff94851660208701529290931660408501526060840152608083019190915260a082015260c00190565b93845260ff9290921660208401526040830152606082015260800190565b6000602080835283518082850152825b81811015610c7c57858101830151858201604001528201610c60565b81811115610c8d5783604083870101525b50601f017fffffffffffffffffffffffffffffffffffffffffffffffffffffffffffffffe016929092016040019392505050565b6020808252601d908201527f45524332303a20696e73756666696369656e742d616c6c6f77616e6365000000604082015260600190565b60208082526022908201527f45524332303a20696e76616c6964207369676e6174757265202773272076616c60408201527f7565000000000000000000000000000000000000000000000000000000000000606082015260800190565b60208082526018908201527f45524332303a20696e76616c69642d616464726573732d300000000000000000604082015260600190565b60208082526015908201527f45524332303a20696e76616c69642d7065726d69740000000000000000000000604082015260600190565b60208082526015908201527f45524332303a207065726d69742d657870697265640000000000000000000000604082015260600190565b6020808252601b908201527f45524332303a20696e73756666696369656e742d62616c616e63650000000000604082015260600190565b60ff91909116815260200190565b60008219821115610e5257610e52610efb565b500190565b600082821015610e6957610e69610efb565b500390565b600281046001821680610e8257607f821691505b60208210811415610ebc577f4e487b7100000000000000000000000000000000000000000000000000000000600052602260045260246000fd5b50919050565b60007fffffffffffffffffffffffffffffffffffffffffffffffffffffffffffffffff821415610ef457610ef4610efb565b5060010190565b7f4e487b7100000000000000000000000000000000000000000000000000000000600052601160045260246000fdfea264697066735822122066432eea601de3433f5a23221757f7ba23eea8f95d37314faf40ab4269a3773964736f6c63430008000033",
  "linkReferences": {},
  "deployedLinkReferences": {}
}