{
  "_format": "hh-sol-artifact-1",
  "contractName": "TestEthSender",
  "sourceName": "contracts/test/TestEthSender.sol",
  "abi": [
    {
      "inputs": [
        {
          "internalType": "address payable",
          "name": "to",
          "type": "address"
        }
      ],
      "name": "sendEth",
      "outputs": [],
      "stateMutability": "payable",
      "type": "function"
    }
  ],
  "bytecode": "0x608060405234801561001057600080fd5b5060e68061001f6000396000f3fe608060405260043610601c5760003560e01c806376a54c60146021575b600080fd5b6030602c3660046077565b6032565b005b60405173ffffffffffffffffffffffffffffffffffffffff8216903480156108fc02916000818181858888f193505050501580156073573d6000803e3d6000fd5b5050565b6000602082840312156087578081fd5b813573ffffffffffffffffffffffffffffffffffffffff8116811460a9578182fd5b939250505056fea2646970667358221220e72f7aeda97a45993905e189649210a6c4228b6544669677e969f54d1dc4df9b64736f6c63430008000033",
  "linkReferences": {},
  "deployedLinkReferences": {}
}