{
  "_format": "hh-sol-artifact-1",
  "contractName": "CodeSizeChecker",
  "sourceName": "contracts/test/CodeSizeChecker.sol",
  "abi": [
    {
      "inputs": [
        {
          "internalType": "address",
          "name": "which",
          "type": "address"
        }
      ],
      "name": "codeSize",
      "outputs": [
        {
          "internalType": "uint256",
          "name": "ret",
          "type": "uint256"
        }
      ],
      "stateMutability": "view",
      "type": "function"
    }
  ],
  "bytecode": "0x608060405234801561001057600080fd5b5060cc8061001f6000396000f3fe6080604052348015600f57600080fd5b506004361060285760003560e01c806352872cf314602d575b600080fd5b603c60383660046054565b6050565b60405160479190608d565b60405180910390f35b3b90565b6000602082840312156064578081fd5b813573ffffffffffffffffffffffffffffffffffffffff811681146086578182fd5b9392505050565b9081526020019056fea2646970667358221220f5614bfc9f65e7dca17a0946ca06cecf38d41290df36bf3dddf4693f657af08064736f6c63430008000033",
  "linkReferences": {},
  "deployedLinkReferences": {}
}