{
  "_format": "hh-sol-artifact-1",
  "contractName": "FactoryWidePauseWindow",
  "sourceName": "contracts/balancer-core-v2/pools/factories/FactoryWidePauseWindow.sol",
  "abi": [
    {
      "inputs": [],
      "stateMutability": "nonpayable",
      "type": "constructor"
    },
    {
      "inputs": [],
      "name": "getPauseConfiguration",
      "outputs": [
        {
          "internalType": "uint256",
          "name": "pauseWindowDuration",
          "type": "uint256"
        },
        {
          "internalType": "uint256",
          "name": "bufferPeriodDuration",
          "type": "uint256"
        }
      ],
      "stateMutability": "view",
      "type": "function"
    }
  ],
  "bytecode": "0x60a060405234801561001057600080fd5b50426276a7000160805260805160f461003560003980604e52806076525060f46000f3fe6080604052348015600f57600080fd5b506004361060285760003560e01c80632da47c4014602d575b600080fd5b60336048565b604051603f92919060b0565b60405180910390f35b600080427f000000000000000000000000000000000000000000000000000000000000000081101560a257807f000000000000000000000000000000000000000000000000000000000000000003925062278d00915060ab565b60009250600091505b509091565b91825260208201526040019056fea26469706673582212201f1b1133d511a24232d37ad17d9f4d1ea028c5714755bf7e8a91d1ff8cd88b0f64736f6c63430007010033",
  "linkReferences": {},
  "deployedLinkReferences": {}
}