{
  "_format": "hh-sol-artifact-1",
  "contractName": "BalancerErrorsMock",
  "sourceName": "contracts/balancer-core-v2/test/lib/BalancerErrorsMock.sol",
  "abi": [
    {
      "inputs": [
        {
          "internalType": "uint256",
          "name": "code",
          "type": "uint256"
        }
      ],
      "name": "fail",
      "outputs": [],
      "stateMutability": "pure",
      "type": "function"
    }
  ],
  "bytecode": "0x6080604052348015600f57600080fd5b5060f68061001e6000396000f3fe6080604052348015600f57600080fd5b506004361060285760003560e01c8063132e4f3c14602d575b600080fd5b604760048036036020811015604157600080fd5b50356049565b005b6050816053565b50565b7f08c379a0000000000000000000000000000000000000000000000000000000006000908152602060045260076024526642414c23000030600a808404818106603090810160081b95839006959095019082900491820690940160101b939093010160c81b604452606490fdfea2646970667358221220dcc470c2dfa50c6cbff518b19671ad45a06e31e5331f2b4ff22ad966c14d2dc164736f6c63430007010033",
  "linkReferences": {},
  "deployedLinkReferences": {}
}